:020000040040BA
:100000009810002069074000650740006507400020
:1000100065074000650740006507400000000000DC
:100020000000000000000000000000006507400024
:1000300065074000000000006507400065074000BC
:100040006507400065074000650740006507400000
:10005000650740006507400065074000000000009C
:10006000650740006507400000000000650740008C
:10007000650740000000000065074000650740007C
:100080000000000000000000650740006507400018
:1000900065074000650740006507400065074000B0
:1000A00065074000650740000000000000000000F8
:1000B000000000006507400065074000650740003C
:1000C0006507400065074000650740000348044B92
:1000D000834202D0034B03B118477047A45E40002F
:1000E000A45E400000000000054806490B1AD90F25
:1000F00001EBA301491002D0034B03B1184770472D
:10010000A45E4000A45E40000000000010B5064C54
:10011000237843B9FFF7DAFF044B13B10448AFF378
:1001200000800123237010BD6C000020000000003F
:10013000A45E400008B5044B1BB104490448AFF36A
:100140000080BDE80840CFE70000000070000020FC
:10015000A45E400038B5044D04462078A84714F842
:10016000013F002BF9D138BDF90840002DE9F041DD
:10017000DFF8308004460E460025B5420DDA6719D7
:10018000C047C0B260550028FAD00A2803D1002326
:100190003B70BDE8F0810135EFE73444002304F8FB
:1001A000013CF6E7150940002DE9F043DFF83880FF
:1001B000DFF8389085B007460E460025B54205DBCE
:1001C0000A4B0A20984705B0BDE8F08357F8252070
:1001D000074B4146684698476C4614F8010B08B92E
:1001E0000135EBE7C847F8E7F85B4000F908400045
:1001F000C1514000002370B502464D1E184601262D
:100200008B4200DB70BD42FA03F4E40742BFEC1AF4
:1002100006FA04F420430133F2E700002DE9F84325
:10022000114F0E46054611460024B44201DBBDE8DD
:10023000F8832046B847844213DA05EBC40205EB85
:10024000C00355F834E0D2F804C055F83090D3F824
:10025000048045F83490C2F8048045F830E0C3F8D3
:1002600004C00134E1E700BFF501400000000000D8
:100270002DE9F04F93B0684B0B909847674B684C53
:10028000984761A3D3E90023A047664B9847664B84
:1002900098470B9B0A90584300EBD0704010634B7B
:1002A000C0009847002382464FF0010B06934FF0A1
:1002B00000084FF080490A9B9B4503DD504613B070
:1002C000BDE8F08F544B5A4C0BF1FF309847CDE905
:1002D000020102460B4640464946A047554C0022C3
:1002E0000023A047504B98470023044607930798E4
:1002F000494B4F4D504E9847DDE90223CDE90401AB
:1003000040464946A8474D4B0022B0474C4E024656
:100310000B46DDE90401B047D0B90BF1010BCAE788
:10032000DDE9022340464946A847DDE9022340466D
:100330004946A84702460B46CDE904232046364BE2
:100340003C4C9847DDE90423A047B847044653E0F6
:100350000B9B9C42E1DC304B58469847CDE90801A5
:1003600002460B4640464946A847DFF8D8C0064635
:100370000F460022DDE904014FF00043E04732461A
:100380003B46DFF89CC0E04721A3D3E90023CDE939
:100390000C01DFF8B0C0DDE90401E047DFF880C000
:1003A00032463B46E0470B4601461846CDE9001071
:1003B000DDE90C232449254E0EA88847DDE90E010E
:1003C000B047069B4AF83300DDE91001B0470AF157
:1003D0000407069B494647F83300DDE908234046F9
:1003E000A847114FB847013494FBF0F606FB1046BE
:1003F000002E95D0079E0136069B0133CDE90636C7
:1004000075E700BFAFF30080EF39FAFE422EE63FFA
:10041000182D4454FB2119C0893D400009114000AA
:10042000B1404000410F4000BD434000FD4D400041
:100430007D114000F13A4000ED3A40000000F03FED
:10044000554340005D3E4000010E40000D44400019
:100450002DE9F04F91B0724B0791814608469847BD
:10046000704B714C98476CA3D3E90023A0476F4BA6
:1004700098476F4B98476F4B0C90079898470C9A8A
:1004800007996D4B0D90484698476C4B9847012350
:10049000039300230993039B0C9A934204DD684B5A
:1004A00011B0BDE8F04F1847039B664E664C581ECE
:1004B0005B4B9847CDE9040102460B4600204FF004
:1004C0008041B04700220023A047594B98470D9B1D
:1004D000099A089603EBC2034FF0000A04460693FC
:1004E0005546DDE90423089EDFF8608100204FF0C7
:1004F0008041B0474A4BCDE90A0150469847544BDA
:1005000006460F460022DDE90A01C04702460B46B7
:10051000304639464F4EB04750BB039B01330393DF
:10052000B9E7DDF820C0DFF82081DDE904230020F1
:100530004FF08041E0473A4B82468B462846984729
:1005400052465B46C047B847DDE90423DDF820C0CA
:1005500005464FF080410020E047314B82468B46F4
:100560002046984752465B46C047B84704464AE093
:10057000079B9C42D1DC09EBC40309EBC50B5B680C
:10058000069A0699DBF804700093526859F83430E3
:100590000968DFF8C48059F835600EA8C0470E9B83
:1005A0000A9319462D4ADDF83C80304690472B4A85
:1005B00049F835004146384690470A9BCBF804007D
:1005C0001946DFF89CB03046D847414649F8340018
:1005D0003846D84709EBC403154F58600398104BB1
:1005E0009847089E02460B4600204FF08041B047D6
:1005F000B847013494FBF0F606FB10460135002E97
:100600008FD00AF10106099B01330993069B083339
:100610000693B24665E700BFEF39FAFE422EE63F89
:10062000893D400009114000B1404000410F4000A9
:10063000BD434000710240001D02400079094000A6
:10064000590940007D114000F13A4000ED3A400068
:100650000000F03F5543400069494000B944400064
:10066000B544400010B50023934200DB10BDC45CCC
:10067000303C41F823400133F6E70000B0B500AF4D
:10068000ADF5806D04460D4668464FF48061084B19
:1006900098470848084B98472A4621466846074B22
:1006A0009847074B294620469847BD46B0BD00BF36
:1006B0006D014000275C4000550140006506400088
:1006C000A90140002DE9F84F1A4B1B4F98471B4BCF
:1006D00098471B4B98474FF000082020B84720222E
:1006E0000021184BDFF860A0DFF8609005469847BE
:1006F0001748184B9847184B082128469847402020
:10070000B8470024064600F1040B4BF8348055F836
:100710002400D0470021C84746F834000134082C93
:10072000F3D130460D4B214698470D4B284698474C
:10073000D3E700BFFD074000FD4D40009508400095
:1007400039094000514F400021464000B944400063
:10075000FC5B4000550140007D0640005104400014
:100760000D4E4000FEE7000019491A48814210B5BD
:1007700020D9194BDA1C121A22F00302C41EA3421C
:1007800038BF0022154B984700BF154B1548DA1C9F
:10079000121AC11E22F00302994288BF0022124B96
:1007A00000219847114B124A9A60124B9847124BFE
:1007B0009847FEE7E8D2084B0A1F181A1044C1F107
:1007C0000401C842E0D050F8042943F8042DF8E7AA
:1007D000A45E4000000000206C0000201D4E400080
:1007E000980000206C000020514F400000ED00E018
:1007F00000004000B54D4000C5064000184B4FF4C6
:10080000004270B500205A65164D174C174EA84788
:100810000120A8470520A847154B002098471548F8
:10082000A047154B00209847144B3E2101209847C4
:10083000B0470028FCD0124B00209847114B984736
:100840001148A047114A136823F0806313600B20FE
:10085000A847BDE870400E4B4FF060510F2018477D
:1008600000140E40A50D4000610C4000950D4000A5
:10087000E50D4000000E2707C50C4000490D400063
:10088000050D4000950B400010757000000A0E40E9
:10089000E90A40001FB5104B104C4FF46132CDE90E
:1008A00001324FF40063039308200D4B984701A9D0
:1008B0000C4B2046984720460B4B98470B4B204645
:1008C00098470B4C0B490920A0474FF000610A20C4
:1008D000A04704B010BD00BF90AD710000060E40EF
:1008E000A50D400099094000D3094000CD09400002
:1008F000E90A40000100000870B5044E044D0446AA
:1009000021463046A8470028FAD170BD00060E40A7
:10091000D909400037B5064D064C0DF107012846B0
:10092000A0470028F9D19DF8070003B030BD00BFF3
:1009300000060E40E709400010B5054B0B20984714
:10094000BDE81040034B4FF040510720184700BF4F
:10095000A50D4000E90A400010B5054B0720984757
:10096000BDE81040034B4FF040510720184700BF2F
:10097000CF0A4000E90A400010B5054B0720984710
:10098000BDE81040034B4FF060510720184700BFEF
:10099000B50A4000E90A4000AC2310B50360D1E974
:1009A0000032B3FBF2F31B095C1E4FF6FE72944259
:1009B0000AD803628B68436040F20223C0F82031FA
:1009C00050230360002010BD0120FCE7402303609A
:1009D000704710230360704743699B0746BFC1619E
:1009E0000020012070474369DB0743BF83690B7018
:1009F000002001207047B1F1C05F426426D007D8C3
:100A0000B1F1006F12D0B1F1805F1CD061B97047B5
:100A1000B1F1005F23D007D3B1F1405F05D021F0E1
:100A20008051B1F1205F00D042607047016F036FC9
:100A30000B4023EA02030367416F436F0B4023EA35
:100A400002034367F0E7036F1343F4E7016F036F9B
:100A50000B4023EA02030367436F1343F1E7036F7D
:100A60001343F8E7D30741644CBF4166016612F0B7
:100A70000A0F14BF01624162930704D5C0F88010C9
:100A8000416101607047130748BFC0F88410F7E761
:100A900010B5029C41643CB141663BB101653AB17D
:100AA00001630161016010BD0166F6E74165F6E78B
:100AB0004163F6E7430903F5001303F207735B0292
:100AC00000F01F00012202FA00F01863704743098A
:100AD00003F5001303F207735B0200F01F0001220D
:100AE00002FA00F05863704773B5044640090D469A
:100AF00000F5001001F0F04100F20770B1F1005F65
:100B00004FEA40201ED00CD8B1F1805F1AD0B1F16D
:100B1000C05F17D0B1F1006F14D00026304602B08C
:100B200070BD05F0E043B3F1405F19D0B1F1205F33
:100B3000F3D104F01F040126134B2A4606FA04F1F0
:100B40009847EBE704F01F02012404FA02F20F4B6E
:100B5000984715EA040612BF426602662646DDE79C
:100B600005F06052012602F1484105EA06034A42B7
:100B700004F01F0400934A41C5F3800306FA04F110
:100B8000034CA047CAE700BF650A4000F7094000D0
:100B9000910A400010B52C4A2C4B116B01F0030157
:100BA00001292AD0023901291DD8116ACC0148D463
:100BB00027491960116A01F0700110293ED02029DF
:100BC0003FD0106B196800F0030002280BBF946A35
:100BD000D46A906AD06AC4F30A4404FB0111C0B21B
:100BE000B1FBF0F107E01B49496A08064CBF4FF41E
:100BF00000414FF4FA4119600DE0116AC90101D5B5
:100C00001549F8E712491960116A01F070011029BD
:100C100012D02029F4D0106B196800F070007028F1
:100C20001BBF126BC2F30212032221FA02F208BFA9
:100C3000B1FBF2F21A6010BD0849DCE70749196000
:100C4000BFE70549FBE700BF00040E40000000209D
:100C500000093D0000140E40001BB70000127A008E
:100C60000E4B98420E4B03D84FF080621A607047CB
:100C70000C4A904201D20C4AF8E70C4A904201D249
:100C80000B4AF3E70B4A904201D80B4AEEE70B4AB6
:100C900090428CBF0A4A4FF00422E7E7FF2C310153
:100CA000000A0E40005A620200010004008793030C
:100CB00000020004FFB3C40400030004FFE0F505D4
:100CC000000500040E4B1A6B22F003021A6340F673
:100CD0000102996E09070BD51A6B22F070021043BE
:100CE000186340F60102996E090705D50020704788
:100CF000013AEED101207047013AF4D1FAE700BF82
:100D000000040E400F4B1A6B22F0030242F0010266
:100D10001A6340F60102996E09070BD51A6B22F08F
:100D200070021043186340F60102996E090705D559
:100D300000207047013AEED101207047013AF4D10A
:100D4000FAE700BF00040E400F4A30B1136A0F49A2
:100D500019400F4B0B4313627047106A0B0220F4CB
:100D60005C119BB221F003010B4343F45C1343F08D
:100D700001031362936EDB07FCD5136A43F09B7388
:100D800043F48033E7E700BF00040E40FCFFC8FED9
:100D900002003701024B986E00F48030704700BFAC
:100DA00000040E40222818D81F280D4A4FF00103D6
:100DB00008D8916903FA00F030EA010300D010610D
:100DC00000207047D2F80811203803FA00F030EA0A
:100DD0000103F5D0C2F80001F2E70120704700BF1F
:100DE00000040E40034B18B1034AC3F8E4207047D7
:100DF000024AFAE700040E4001434D5000434D50B3
:100E000082B02DE9F04708A981E80C00DDE90A89E4
:100E1000DDE90867824642464B463046394600F0D7
:100E20003DF842464B4604460D463046394600F0F2
:100E300031F8804689462046294600F025F90646C5
:100E40000F464046494600F0C5F832463B4603F09F
:100E500005F804460D464046494600F021F8324662
:100E60003B4602F0FBFF002206460F4600232046C9
:100E7000294602F0F3FF02460B463046394602F09F
:100E800037FECAE90245CAE900015046BDE8F0470D
:100E900002B0704710461946704700BF704700BF48
:100EA000254A21F00043934223DD10B5234A9342A3
:100EB00086B009DD02460B4602F018FE02460B46DC
:100EC0001046194606B010BD02AA01F05DFB00F005
:100ED0000304012C11D0022C23D0CCB10124DDE974
:100EE0000423DDE90201009402F096FB02460B4662
:100EF000E6E70022002301F037BEDDE90423DDE947
:100F00000201009402F088FB024601F10043D7E79A
:100F1000DDE90423DDE9020101F026FE02460B466D
:100F2000CEE7DDE90423DDE9020101F01DFE024602
:100F300001F10043C4E700BFFB21E93FFFFFEF7F62
:100F400038B5C1F30A55A5F2FF32132A0B46844681
:100F50008E4604461EDC002A0EDB1D49114103EAC1
:100F60000100204313D04FF4002343FA02F29644C9
:100F70002EEA010E002408E001F0004E013204BF09
:100F80004EF07F5E4EF4401E00247346A446604639
:100F9000194638BD332A08DDB2F5806FF7D1024615
:100FA00002F0A6FD84460B46F1E7A5F213454FF08B
:100FB000FF3121FA05F52842E9D00123C2F13302BD
:100FC00003FA02F2841828BF9E4424EA0504DCE7F1
:100FD000FFFF0F0010B5294A21F00043934286B06D
:100FE00020DD274A934209DD02460B4602F07EFDD2
:100FF00002460B461046194606B010BD02AA01F083
:10100000C3FA00F00300012818D002282AD0F0B15A
:10101000DDE90423DDE9020101F0A6FD024601F14C
:101020000043E7E7002300930022002302F0F4FAD4
:1010300002460B461046194606B010BDDDE90423F2
:10104000DDE9020101F090FD02460B46D2E70124E2
:10105000DDE90423DDE90201009402F0DDFA024635
:101060000B46C7E70124DDE90423DDE90201009412
:1010700002F0D2FA024601F10043BBE7FB21E93F4F
:10108000FFFFEF7F00000000F8B504460D4600F0BA
:1010900037F91B4B93F90030013306460F4614D045
:1010A0002046294602F07EFB78B111A3D3E9002344
:1010B0002046294603F062F988B90FA3D3E900233B
:1010C0002046294603F03CF910B930463946F8BDB0
:1010D00003F06AFE2223036000260027F5E703F0F1
:1010E00063FE2223074F03600026EEE7AFF3008084
:1010F000EF39FAFE422E864051302DD5104987C077
:10110000040000200000F07FF8B504460D4600F012
:10111000C7FA174B93F90030013306460F461AD031
:1011200022462B462046294603F032F998B9002280
:1011300000232046294603F021F960B9002200234C
:101140002046294603F0F2F840B103F02DFE094F86
:1011500022230360002630463946F8BD03F024FE02
:10116000034621221A600448BDE8F84002F09CBB07
:10117000040000200000F0FF6C5E40002DE9F84301
:101180001D4606460F46144600F08AFC574B93F95D
:1011900000300133804689462AD022462B4620461D
:1011A000294603F0F5F818BB32463B46304639462F
:1011B00003F0EEF8002841D10022002330463946E2
:1011C00003F0B4F8C0B1002200232046294603F002
:1011D000ADF800283AD12046294602F0E3FA38B1AA
:1011E000204629460022002303F0AAF8002859D1FE
:1011F00040464946BDE8F8834046494602F0D2FAE7
:1012000060B3002200234046494603F08FF80028CF
:10121000EED03046394602F0C5FA0028E8D0204624
:10122000294602F0BFFA0028E2D003F0BDFD2223D8
:1012300003604FF000084FF00009D9E72046294627
:101240000022002303F072F80028D1D0DFF8A0902C
:101250004FF0000840464946BDE8F883304639461D
:1012600002F0A0FA0028CCD02046294602F09AFAD3
:101270000028C6D042464B464046494603F088F80F
:1012800030BB03F091FD034622221A6030463946F6
:101290000022002303F054F84FF0000858B9DFF89B
:1012A0005490A5E703F080FD2123DFF84C90036004
:1012B0004FF000089CE72046294602F0FBFA224640
:1012C0002B4603F033F80028E9D1DFF82C908FE7A4
:1012D00003F06AFD00220023212101601046194617
:1012E00002F0E6FE8046894682E700BF0400002047
:1012F0000000F03F0000F07F0000F0FF0000000061
:101300002DE9F04FD44F21F00042BA4287B0054694
:101310000C464FEAD17612D9D04FBA422BD9C1F33D
:1013200013030343024640F05481002E00F0EB808B
:1013300000252C462846214607B0BDE8F08FC84B53
:101340009A4255D8C74B9A4200F2E280ACA3D3E947
:10135000002302F0CDFBC44B002203F00FF800285D
:1013600000F0D68028462146BF4B002202F0C0FB89
:1013700005460C46C7E0A4A3D3E9002302F0FEFF14
:10138000002840F03081A2A3D3E90023284621465B
:1013900002F0D6FF0028CBD1B44B284603EBC6069B
:1013A00021469DA3D3E9002302F058FDD6E9082386
:1013B00002F09EFB03F002F8019002F0E5FC98A316
:1013C000D3E9002306460F4602F048FD02460B46CD
:1013D0002846214602F08AFB93A3D3E900238046E6
:1013E00089463046394602F039FDCDE9020114E064
:1013F0009F4B9A42D0D89D4C04EBC604D4E90023FD
:1014000002F074FBD4E90434C6F1010ACDE90234D8
:10141000AAEB0603804689460193DDE90223404694
:10142000494602F063FB02460B4682468B46054660
:101430000C4602F013FD7EA3D3E9002306460F46B7
:1014400002F00CFD7CA3D3E9002302F04FFB3246EF
:101450003B4602F003FD7AA3D3E9002302F048FBE8
:1014600032463B4602F0FAFC77A3D3E9002302F0B0
:101470003DFB32463B4602F0F1FC75A3D3E9002365
:1014800002F036FB32463B4602F0E8FC0B460246D1
:101490005946504602F02AFB019B06460F46CDE90D
:1014A0000467002B6DD032463B465046594602F049
:1014B000D5FC324604460D463B4600204FF08041A5
:1014C00002F014FB02460B462046294602F0F0FDCE
:1014D00002460B46DDE9020102F008FB42464B469C
:1014E00002F004FB02460B4600205F4902F0FEFAC0
:1014F000019C6FF47F739C420246C0F2BB8001EBFB
:10150000045305461C462846214607B0BDE8F08F27
:101510002A4623462846214602F0A0FC44A3D3E9EC
:10152000002306460F4602F099FC43A3D3E90023AB
:1015300002F0DCFA32463B4602F090FC40A3D3E9CD
:10154000002302F0D5FA32463B4602F087FC3EA368
:10155000D3E9002302F0CAFA32463B4602F07EFC91
:101560003BA3D3E9002302F0C3FA32463B4602F024
:1015700075FC02460B462846214602F0B7FACDE933
:101580000401DDE90489284642464B46214602F023
:1015900065FC002206460F46404649464FF0804310
:1015A00002F0A4FA02460B463046394602F080FDAE
:1015B0002A46234602F09AFA02460B4600202A49A0
:1015C00002F094FA05460C462846214607B0BDE8CD
:1015D000F08F0B4602F08CFA05460C462846214651
:1015E00007B0BDE8F08F06A3D3E9002310461946E3
:1015F00002F034FC05460C4685E700BFAFF30080DF
:101600009C7500883CE4377EEF39FAFE422E864016
:1016100051302DD5104987C0FE822B654715F73F05
:101620000000E0FE422EE63F763C7935EF39EA3D98
:10163000D0A4BE726937663EF16BD2C541BDBB3ED8
:101640002CDE25AF6A56113F93BDBE166CC1663FB6
:101650003E5555555555C53F412E8640FFFFEF7FFE
:10166000422ED63FFFFF2F3E0000F03F305C40008F
:10167000B1A2F03F019800F57A7A01EB0A531046C7
:10168000194600224FF0B87302F0E8FB05460C46FD
:101690002846214607B0BDE8F08F00BF00000000DB
:1016A0002DE9F04FB1F5801F87B002460B460F467B
:1016B00058DA21F00044044300F0F8800029C0F219
:1016C0003281D74B002202F0C9FB0F460B46D549A9
:1016D0008F4202466FF0350049DC3E15C7F3130711
:1016E00007F51521A6F2FF3601F66471064401F4F0
:1016F000801106EB115681F07F5181F4401141EACF
:101700000703104619460022C74B02F0EFF9BB1C35
:10171000C3F31303022B82468B462FDC00220023E7
:1017200002F004FE002800F0CA80002E00F04B8179
:10173000304602F029FBA6A3D3E9002306460F4654
:1017400002F08CFBA4A3D3E9002304460D463046E7
:10175000394602F083FB02460B462046294602F03A
:10176000C7F908E0AF498F424FF00000B5DD1046E1
:10177000194602F0BDF907B0BDE8F08FA7F5C22306
:10178000A3F27A43019300224FF0804302F0B0F9B4
:1017900002460B465046594602F08AFC0446304643
:1017A0000D4602F0F1FA2246CDE904012B4620460F
:1017B0002946CDE9024502F051FB02460B46804620
:1017C000894602F04BFB86A3D3E9002304460D466D
:1017D00002F044FB84A3D3E9002302F089F92246F6
:1017E0002B4602F03BFB82A3D3E9002302F080F9F1
:1017F00022462B4602F032FB7FA3D3E9002302F0FE
:1018000077F942464B4602F029FB7DA3D3E900233A
:10181000804689462046294602F020FB7AA3D3E978
:10182000002302F065F922462B4602F017FB78A34D
:10183000D3E9002302F05CF922462B4602F00EFBAE
:101840000B4602464946404602F052F9C7F5D727F3
:10185000019B51371F43002F8046894655DD734B4E
:1018600000225046594602F0F9FA52465B4602F011
:10187000F5FA04460D46002E5CD122462B46404622
:10188000494602F035F9DDE9022302F0E7FA0246A3
:101890000B462046294602F029F902460B465046DF
:1018A000594602F023F907B0BDE8F08F002200236B
:1018B0005F49002002F0FCFB07B0BDE8F08F56A3A3
:1018C000D3E900235046594602F0C8FA02460B46B7
:1018D0000020564902F00AF9524604460D465B467E
:1018E0005046594602F0BAFA02460B4620462946AF
:1018F00002F0B4FA04460D46002E50D102460B46C3
:101900005046594602F0F2F835E7002E40F092803A
:1019100002460B465046594602F0E8F8DDE902233C
:1019200002F09CFAB9E702F0E1F80022002302F08D
:10193000BFFB20E726A3D3E90023DDE9040102F081
:101940008DFA22462B4606460F464046494602F08F
:10195000CFF8DDE9022302F081FA1FA3D3E90023C7
:1019600080468946DDE9040102F078FA02460B461A
:101970004046494602F0BCF802460B46204629463E
:1019800002F0B4F852465B4602F0B0F802460B464D
:101990003046394602F0AAF807B0BDE8F08F30466D
:1019A00002F0F2F90AA3D3E900238046894602F047
:1019B00055FA09A3D3E9002306460F464046494697
:1019C00002F04CFAD8E700200021D4E6AFF3008003
:1019D0000000E0FE422EE63F763C7935EF39EA3DE5
:1019E00044523EDF12F1C23FDE03CB966446C73F4E
:1019F000599322942449D23F935555555555E53F67
:101A00009FC678D0099AC33FAF788E1DC571CC3F71
:101A100004FA97999999D93F555555555555D53F3C
:101A200000005043FFFFEF7F0000F03F0000E03F69
:101A3000000050C316A3D3E90023DDE9040102F03E
:101A40000DFA42464B4604460D465046594602F0B2
:101A50004DF8DDE9022302F001FA0FA3D3E90023D8
:101A600006460F46DDE9040102F0F8F902460B468E
:101A70003046394602F03AF852465B4602F036F8F4
:101A800002460B462046294602F030F873E600BFB6
:101A90000000E0FE422EE63F763C7935EF39EA3D24
:101AA0002DE9F04F9946904629F000451E46134611
:101AB00055EA080293B035D06B4A009021F00044FB
:101AC000944283468A460F4625DC34D0954222DC78
:101AD000654A95421DD0002F36DB00220292002B72
:101AE0004CD1614B9D4200F09780604B9D4200F0CD
:101AF000A580B6F1804F00F0AF845D4B9E423DD192
:101B0000002F3BDB5846514613B0BDE8F04F00F0C4
:101B100065BF002BDFD0009B04F1404404F5801426
:101B200023430BD1514C0023CDE90034DDE9000102
:101B300013B0BDE8F08F08B9A542C9DD4D4813B018
:101B4000BDE8F04F01F0B0BE4B4A95427EDCA2F1F9
:101B5000547295420EDD2A15A2F2FF32142A40F388
:101B60008584C2F1340223FA02F101FA02F29A42A8
:101B700000F0D28400220292002BB6D05846514683
:101B800001F00CFE5B46CDE9000133BB24B1374BBD
:101B900027F040429A4220D1002E07DADDE90023E7
:101BA0003249002002F084FACDE90001002FBDDAAD
:101BB000029B04F1404404F58014234340F07B84ED
:101BC000DDE900231046194601F090FF02460B465E
:101BD00002F06EFACDE90001A8E7029AFB0F013B83
:101BE0000A93134335D0254B9D424BDD03F104731B
:101BF0009D42234B40F3C0839C4240F35083002E10
:101C000040F3508316A3D3E900231046194602F08F
:101C100025F9CDE9000189E7009A04F1404303F575
:101C2000801313433FF47EAF154B9C4240F3648313
:101C3000002EC0F23783CDE9008977E7002EC0F28D
:101C4000018458465146CDE900016FE70222029215
:101C500045E75A46584653465146B5E7AFF300802C
:101C60009C7500883CE4377E0000F07F0000F03F68
:101C70000000E03F6C5E4000FFFF3F430000E0419A
:101C8000FFFFEF3FD44B3B40002B40F03D83DDE9AD
:101C90000001D24B002202F0E1F8CDE900010C4630
:101CA0006FF034052315A3F2FF335919CC4B0B9178
:101CB000C4F3130242F07F549A4244F4401407DD07
:101CC000C84B9A4240F3048401310B91A4F580146F
:101CD00000220023CDE90823CDE91023C24B0022C6
:101CE000CDE906230025DDE90001DDE906232146D3
:101CF000824601F0FBFEA346DDE9062306460F46B9
:101D000050462146CDE90CAB01F0F2FE02460B46EF
:101D10000020B54902F0CCF90A460146CDE90E1281
:101D2000134639460246304602F098F80A46834682
:101D30009446CDE900BC4FF0000CCDF800C0641013
:101D4000DDE900AB44F00054014604F50023CDE981
:101D500004120020591904460D4602460B4650460F
:101D6000594602F07BF802460B463046394601F0F0
:101D7000BDFEDDE9062306460F462046294601F052
:101D8000B5FE02460B46DDE90C0101F0AFFE5246FE
:101D90005B4602F063F802460B463046394601F0D6
:101DA000A5FEDDE90E2302F059F8DDE90445CDE991
:101DB000060122462B462046294602F04FF874A31E
:101DC000D3E9002304460D4602F048F872A3D3E994
:101DD000002301F08DFE22462B4602F03FF870A34F
:101DE000D3E9002301F084FE22462B4602F036F8A8
:101DF0006DA3D3E9002301F07BFE22462B4602F0BF
:101E00002DF86BA3D3E9002301F072FE22462B4686
:101E100002F024F868A3D3E9002301F069FE22460A
:101E200006460F462B462046294602F017F8024682
:101E30000B463046394602F011F8524604460D462C
:101E40005B46DDE9040101F053FEDDE9062302F003
:101E500005F822462B4601F04BFE524606460F4639
:101E60005B465046594601F0F9FF02460B46CDE964
:101E70000C235E4B002201F03BFE32463B4601F054
:101E800037FE00240D4622462B465046594601F0A7
:101E9000E5FF564B82468B4600222046294601F03C
:101EA00025FEDDE90C2301F021FE02460B463046FB
:101EB000394601F01BFEDDE9042301F0CFFF224685
:101EC00006460F462B46DDE9060101F0C7FF024634
:101ED0000B463046394601F00BFE06460F460246D9
:101EE0000B465046594601F003FE002434A3D3E9C3
:101EF000002320460D4601F0B1FF52465B46824664
:101F00008B462046294601F0F1FD02460B4630463D
:101F1000394601F0EBFD2CA3D3E9002301F09EFF2D
:101F20002BA3D3E9002306460F462046294601F09D
:101F300095FF02460B463046394601F0D9FDDDE9F2
:101F4000102301F0D5FD04460B980D4601F01CFF4F
:101F5000224606460F462B4650465946CDE90445D3
:101F600001F0C6FDDDE9082301F0C2FD32463B4623
:101F700001F0BEFD002432463B4620460D4601F0EE
:101F8000B5FDDDE9082301F0B1FD52465B462FE0C7
:101F9000EF4E454A287ECA3F65DBC9934A86CD3F4E
:101FA00001411DA96074D13F4D268F515555D53F34
:101FB000FFAB6FDBB66DDB3F033333333333E33FCC
:101FC000000000E009C7EE3FFD033ADC09C7EE3F21
:101FD000F5015B14E02F3EBE0000F07F000040439F
:101FE0008E98030079B60B000000F03F0000084017
:101FF00001F07CFD02460B46DDE9040101F076FDAF
:10200000CDE90401029B0A9A013B13430CBFD44B58
:10201000D44B0022CDE902230023CDE900890093AF
:10202000DDE900AB404652465B46494601F05EFDA5
:1020300022462B4601F012FF424606460F464B460B
:10204000DDE9040101F00AFF02460B46304639463D
:1020500001F04EFD524606460F465B462046294695
:1020600001F0FCFE0B46024604460D46304639465A
:1020700001F03EFDBC4B9942804689468A4640F3BA
:10208000168101F13F4303F5E003034340F003826F
:102090009FA3D3E900233046394601F029FD2246AB
:1020A000CDE900012B464046494601F01FFD02469E
:1020B0000B46DDE9000102F061F9002840F0EB81F8
:1020C000CAF30A534FF48012A3F2FE3342FA03F329
:1020D0005344A649C3F30A52A2F2FF3241FA02FC6A
:1020E000C3F31301C2F1140241F4801141FA02FE5C
:1020F000002023EA0C01BAF1000FCDF810E00246EF
:102100000B4602DA7146494204912046294601F005
:10211000EDFC049B1B05009302460B4604460D464E
:102120003046394601F0E4FC89464FF000087AA3B6
:10213000D3E900234046494601F090FE22468246FC
:102140008B462B464046494601F0D0FC02460B46E2
:102150003046394601F0CAFC71A3D3E9002301F0EF
:102160007DFE71A3D3E9002304460D46404649464F
:1021700001F074FE02460B462046294601F0B8FCE9
:1021800006460F4602460B465046594601F0B0FC43
:1021900052465B4604460D4601F0A8FC02460B463B
:1021A0003046394601F0A2FC224682468B462B4639
:1021B0002046294601F052FE5DA3D3E900230646DE
:1021C0000F4601F04BFE5CA3D3E9002301F08EFC27
:1021D00032463B4601F042FE59A3D3E9002301F009
:1021E00087FC32463B4601F039FE57A3D3E9002372
:1021F00001F07CFC32463B4601F030FE54A3D3E9AB
:10220000002301F075FC32463B4601F027FE0246F2
:102210000B462046294601F069FC06460F46024659
:102220000B462046294601F019FE002280468946C9
:10223000304639464FF0804301F058FC02460B46C9
:102240004046494601F034FF524606460F465B467B
:102250002046294601F002FE52465B4601F048FC4A
:1022600002460B463046394601F040FC22462B46DA
:1022700001F03CFC02460B4600203A4901F036FCD6
:10228000009D0C462C44B4F5801FC0F241812146CC
:10229000DDE9022301F0E2FDCDE9000146E4002E74
:1022A000FFF6B0AC00230024CDE900343EE4DFF8B3
:1022B000C0C021F00043634540F3E5802D4B0B4443
:1022C00003430AD122462B4601F010FC32463B461E
:1022D00002F04AF800283FF4F3AE1FA3D3E900232D
:1022E000DDE9020101F0BAFD1BA3D3E9002301F0EF
:1022F000B5FDCDE9000119E4002ED3DA09F1004360
:10230000CDF80080019311E40025CBE4AFF3008009
:10231000FE822B654715973C00000000432EE63FE8
:10232000EF39FAFE422EE63F396CA80C615C20BE04
:10233000D0A4BE726937663EF16BD2C541BDBB3ECB
:102340002CDE25AF6A56113F93BDBE166CC1663FA9
:102350003E5555555555C53F59F3F8C21F6EA50159
:102360000000F0BF0000F03FFFFF8F40FFFF0F00B5
:10237000FFCB904000346F3F9C4290DB7E4B9C42F1
:102380003FF73DACDDE900017B4B002201F0AEFBE5
:102390006BA3D3E9002304460D4601F05FFD6AA359
:1023A000D3E9002382468B462046294601F056FD9C
:1023B000724BCDE9000100222046294601F04EFD76
:1023C00002460B4662A1D1E9000101F08FFB2246D3
:1023D0002B4601F043FD02460B460020684901F000
:1023E00085FB224606460F462B462046294601F02D
:1023F00035FD02460B463046394601F02FFD56A307
:10240000D3E9002301F02AFD02460B46DDE9000175
:1024100001F06CFB02460B4606460F4650465946F5
:1024200001F066FB002452465B4620460D4601F053
:102430005DFB02460B463046394601F057FBCDE9BD
:102440000401DFE54C495A465346002001F030FEB6
:10245000CDE90001FFF76ABB5A465846534651463C
:1024600001F0FCFCCDE90001FFF760BB002B41D17E
:10247000C2F1140245FA02F101FA02F2AA4255D061
:102480000293FFF732BB3E4A934256DCDDE900235C
:102490000092049249E632A3D3E90023DDE9020168
:1024A00001F0DCFC2EA3D3E9002301F0D7FCCDE939
:1024B0000001FFF73BBB029B012B7FF437ABDDE94B
:1024C0000045224605F10043CDE90023FFF72EBB6E
:1024D00025A3D3E90023CDE9082325A3D3E90023CD
:1024E000CDE91023274B0022CDE906234FF48025A8
:1024F000FFF7F9BB5846514601F050F95B46CDE96C
:102500000001002B7FF4A5ABCDF808B0FFF73EBB70
:10251000049A01F06DFABBE601F00101C1F102027B
:102520000292002B3FF4E1AAFFF728BB01F0010162
:10253000C1F102030293FFF7D8BA1B15C2E500BF31
:10254000000000604715F73F44DF5DF80BAE543ED6
:10255000555555555555D53FFE822B654715F73FC7
:102560009C7500883CE4377E0000004003B8E23FE1
:1025700006D0CF43EBFD4C3E0000F03F0000D03FC3
:102580000000E03F0000F83F2DE9F04F1446B64A46
:1025900021F00045954291B040F38580B34A9542C1
:1025A0000F4626DC0029A6A3D3E9002340F3C4810B
:1025B00001F09CFAAE4B9D428046894600F088802F
:1025C000A1A3D3E9002301F091FA02460B46C4E926
:1025D00000234046494601F089FA9BA3D3E9002332
:1025E00001F084FAC4E902010126304611B0BDE8C9
:1025F000F08FA04A954240F38B809F4A95425DDC64
:102600002E15A6F21646A5EB06518946804601F026
:10261000D5FE01F0B9FB02460B4640464946CDE9DE
:102620000A2301F063FA954B002201F017FC89465A
:10263000804601F0C3FE054601F0A6FB02460B46AC
:1026400040464946CDE90C2301F050FA8B4B00225D
:1026500001F004FC02460B46CDE90E2300220023C4
:1026600001F064FE002800F06581002D0CBF0123FD
:102670000223834A019202220092214632460AA88E
:1026800000F0A2FB002F0646AFDAD4E9000505F101
:102690000041C4E90001E168A26801F10043C4E916
:1026A00002237642A1E70026C4E9000100220023AC
:1026B0003046C4E9022311B0BDE8F08F02460B4654
:1026C00001F014FA0026C4E90201C4E900018CE714
:1026D0005FA3D3E9002301F009FA5FA3D3E9002344
:1026E0008046894601F002FA02460B46C4E90023FF
:1026F0004046494601F0FAF957A3D3E9002301F017
:10270000F5F90126C4E90201304611B0BDE8F08FA9
:1027100001F044F852A3D3E900238046894601F032
:102720009DFB584B002201F0E3F901F047FE0646FD
:1027300001F02AFB42A3D3E9002382468B46CDE970
:1027400004AB01F08BFB02460B464046494601F0C4
:10275000CDF93DA3D3E90023CDE902015046594606
:1027600001F07CFB1F2E8046894612DC464B721E10
:1027700053F82230AB420CD002460B46DDE9020191
:1027800001F0B4F902460B46C4E9002382468B46A9
:10279000B4E02B150793DDE902014B46424601F0F8
:1027A000A5F9C1F30A53C3EB1555102D8B4682468C
:1027B00040F3A08026A3D3E90023DDE9040101F062
:1027C0004DFB8046894602460B46DDE9020101F0D9
:1027D0008DF982468B4652465B46DDE9020101F0E7
:1027E00085F942464B4601F081F91BA3D3E900234A
:1027F00080468946DDE9040101F030FB42464B4644
:1028000001F074F902460B46804689465046594607
:10281000CDE908AB01F06AF9079AC1F30A53D31A5C
:10282000312B8B46824631DC02460B46C4E900233D
:10283000DDE90823CDE9022360E000BFAFF30080AB
:1028400000004054FB21F93F3163621A61B4D03D6E
:102850000000601A61B4D03D7370032E8A19A33B47
:1028600083C8C96D305FE43FFB21E93F7BD902405B
:10287000FB21F93FFB213941FFFFEF7F0000704151
:10288000E05C40000000E03F605C400048A3D3E90A
:102890000023DDE9040101F0E1FA804689460246A1
:1028A0000B46DDE9080101F021F982468B465246CC
:1028B0005B46DDE90801CDE902AB01F017F94246BC
:1028C0004B4601F013F93CA3D3E900238046894627
:1028D000DDE9040101F0C2FA42464B4601F006F977
:1028E00002460B46804689465046594601F0FEF89E
:1028F0008B46824652465B46C4E9002352465B46FD
:10290000DDE9020101F0F2F842464B4601F0EEF833
:10291000002F02460B46C4E90223BFF666AE0BF158
:10292000004301F10041A060C4F800A06360E160D1
:1029300076425AE603239CE601F0DAF8264B9D42E4
:102940008046894616D01EA3D3E9002301F0D0F8B3
:1029500002460B46C4E900234046494601F0C6F84A
:1029600017A3D3E9002301F0C3F84FF0FF36C4E901
:1029700002013AE614A3D3E9002301F0B9F814A345
:10298000D3E900238046894601F0B2F802460B469F
:10299000C4E900234046494601F0A8F80CA3D3E956
:1029A000002301F0A5F84FF0FF36C4E902011CE650
:1029B0000000002E8A19A33BC14920259A837B3948
:1029C0003163621A61B4D03D0000601A61B4D03D39
:1029D0007370032E8A19A33BFB21F93F614A8A4396
:1029E0002DE9F84305460C4600F09E8000290B4671
:1029F000844654DD091562D0C3F31303C807A1F25E
:102A0000FF3743F4801304D45B0003EBDC734FEA1D
:102A10004C0C4FEADC72002602EB43037F104FEAB6
:102A20004C0C4FF0160E34464FF40012A118994288
:102A300002DC5B1A8C1816445B00BEF1010E03EB3E
:102A4000DC734FEA52024FEA4C0CEFD1754620205E
:102A50004FF000420AE043D04FEADC71013801EB4D
:102A600043034FEA4C0C4FEA520242D0A34202EB1E
:102A70000E01F0DD002901EB020E0ADBA0461B1B54
:102A8000614588BF03F1FF33ACEB010C15444446AC
:102A9000E2E7BEF1000FF1DB04F10108EFE721F0FE
:102AA0000042024336D000294CD14FEADC221539CE
:102AB00013464FEA4C5C002AF7D0D6024CD40020D3
:102AC0005B00DD02044600F10100F9D51A466346B9
:102AD0000CFA00FCC0F12000C340091B13438BE734
:102AE0006145B9D8002901EB020ED2DB98460023DC
:102AF000CAE753EA0C0311D16808731003F17F533E
:102B000003F50013F20748BF40F0004003EB0759FC
:102B100005464C4628462146BDE8F883691C16BF89
:102B2000681C01364008E8E702460B4601F096F9BA
:102B30002A46234600F0DCFF05460C46284621467F
:102B4000BDE8F883024600F0D1FF02460B4601F0D3
:102B5000AFFA05460C46DDE7634620204FF0FF3410
:102B6000BAE700BF0000F07F2DE9F04F21F00048E8
:102B700087B0B8F1795F92469B460646019170DABC
:102B800001F01CFC002800F0F480019B324619463D
:102B9000304601F063F97AA3D3E9002304460D46D9
:102BA00001F05CF978A3D3E9002300F0A1FF2246ED
:102BB0002B4601F053F976A3D3E9002300F096FFEA
:102BC00022462B4601F04AF973A3D3E9002300F013
:102BD0008FFF22462B4601F041F971A3D3E9002370
:102BE00000F084FF22462B4601F038F96EA3D3E9AA
:102BF000002300F07DFF22462B4601F02FF9CDE99E
:102C000002016B4B00222046294601F027F9DDE93D
:102C10000223804689462046294601F01FF94D4689
:102C2000DDF804904446B0460F46064652465B46E1
:102C30004046494601F012F902460B4630463946F5
:102C400000F054FF02460B462046294600F04EFF96
:102C500002460B460020574900F048FF07B0BDE888
:102C6000F08F019B024601F0F9F845A3D3E9002358
:102C700004460D4601F0F2F843A3D3E9002300F027
:102C800037FF22462B4601F0E9F841A3D3E90023A0
:102C900000F02CFF22462B4601F0E0F83EA3D3E9DA
:102CA000002300F025FF22462B4601F0D7F83CA375
:102CB000D3E9002300F01AFF22462B4601F0CEF89C
:102CC00039A3D3E9002300F013FF2B46224601F07D
:102CD000C5F8394B9845CDE9020192DD374B98454F
:102CE0004FF000023DDCA8F5001332490020904669
:102CF000994600F0FBFECDE904012D4B0022204651
:102D0000294601F0ABF842464B4600F0EFFEDDE904
:102D10000223804689462046294601F09FF84D4609
:102D2000DDF804904446B0460F46064652465B46E0
:102D30004046494601F092F802460B463046394675
:102D400000F0D4FE02460B462046294600F0CEFE97
:102D500002460B46DDE9040100F0C8FE07B0BDE8FD
:102D6000F08F174BDFF85C90CDE904234FF000089B
:102D7000C3E71049002007B0BDE8F08FAFF3008033
:102D8000D43888BEE9FAA8BDC4B1B4BD9EEE213ED8
:102D9000AD529C804F7E923E9015CB19A001FA3E19
:102DA0007751C1166CC1563F4C5555555555A53FE9
:102DB0000000E03F0000F03F3233D33F0000E93F26
:102DC0000000E73F0000D23F2DE9F04FADF5197D3F
:102DD0001C4608930B91B84BA29953F821300593E8
:102DE00012F1140F04F1FF3306460393C0F240833F
:102DF000B249D31E81FB0301DB17C3EBA103079389
:102E00000133A3EB8303DB00D3180693079A039BDC
:102E1000D41A059AD7181BD40137DDF88CA22744A1
:102E200020AD4FF000084FF0000908E05AF82400E8
:102E300000F0AAFF0134BC42E5E8020108D0002CF2
:102E4000F4DA013440464946BC42E5E80201F6D1D5
:102E5000059B002BC0F2BC83089BDDF80C9020AAD8
:102E600002EBC30ADA000292059AA6F108011A449D
:102E700004910DF5E07B019201EBC308039B002B4D
:102E8000C0F2AF81049E57460024002577E9022353
:102E9000F6E9020100F0E2FF02460B462046294611
:102EA00000F026FE464504460D46EFD1019B09F190
:102EB00001099945EBE802450AF1080ADED1049BB5
:102EC000DDF808B0059A01929B440BAB03EB82033B
:102ED0000A930CAB03EB8203083B0993019A98AB6E
:102EE00003EBC203002A53E9284529DD0DF5E07AFA
:102EF0000AEBC2080DF13009714B00222046294629
:102F000000F0ACFF01F05AFA00F03EFF6D4B0022DA
:102F100006460F4600F0A2FF02460B462046294611
:102F200000F0E4FD01F04AFA78E9022349F8040BC5
:102F30003946304600F0DCFDD04504460D46DBD175
:102F4000DDF81890204629464A4600F051FD00223F
:102F50004FF07F5304460D4600F080FF00F028FC40
:102F6000594B002200F07AFF02460B4620462946C4
:102F700000F0BCFD0D46044601F020FA804600F04A
:102F800003FF0B4602462946204600F0AFFD4B46A4
:102F9000002B06460F4640F39980019A511E0CAA59
:102FA000C9F1180352F8212042FA03F000FA03F3A2
:102FB000D31AC9F117050CAA43FA05F5002D42F8FA
:102FC0002130804400F38C800022002330463946B3
:102FD00001F0ACF9002800F05282019B059A03F140
:102FE000FF3A524510DC03F180430CAA013B0A98DA
:102FF00002EB8303002253F80419834242EA0102E0
:10300000F9D1002A40F0F080059B0CAA013B52F850
:103010002330002B40F0E080099A012352F8041974
:1030200001330029FAD0019AD3180293531C994610
:10303000DDF80480089A9044079A02EB030A0AF12B
:10304000804AA39A0AF1FF3A02EB8A0A20AA02EB0D
:10305000C80870AA02EBC30301935AF8040F00F0EA
:1030600093FE039B002BC8E90001474608F10808BE
:103070001FDB049E083F0024002501E077E80201E1
:10308000F6E9022300F0EAFE02460B4620462946F6
:1030900000F02EFD5E4504460D46EFD1019BE3E8AE
:1030A00002450193029B09F101099945D5DD019380
:1030B00014E700240025F1E7E85D4000ABAAAA2A46
:1030C0000000703E00007041000020406BD1019B69
:1030D0000CAA013B52F82350ED15002D7FF774AF79
:1030E000019B002B08F1010840F3C7810C9C002CC8
:1030F00051D1019B012B20D00CAB012253F8044F7E
:10310000002C4BD0531C0CA9C4F1807441F8224010
:103110000199994210DD0CAA0CA852F8232000EB6B
:10312000830300EB81006FF07F4100E01A688A1A88
:1031300043F8042B8342F9D10124069B002B0EDDBA
:10314000012B00F08A81022B09D1019B5A1E0CAB86
:103150000CA953F82230C3F3150341F82230022D95
:103160007FF432AF32463B467949002000F0BEFC86
:1031700006460F46002C3FF427AF069A74490020FC
:1031800000F036FC02460B463046394600F0AEFCF5
:1031900006460F4618E701230022B4E701990132E1
:1031A0008A42ABD1C9E76B4B002201F0DDF805463E
:1031B00000283FF409AF019B002B08F10108C8BFAC
:1031C000022593DC32463B466149002000F08EFC2C
:1031D000022506460F46F7E6019B01339946029306
:1031E00026E70024002561E6069B0395A3F118025B
:1031F0000CABCDF81C8053F82A30069273B9019BB2
:1032000003F18043023B0CA901EB830353F804193B
:103210000AF1FF3A183A0029F8D00692069A4C496A
:10322000002000F0E5FBBAF1000F04460D46C0F2A5
:10323000D68170AB03EBCA0B0CAA0AF1010306930B
:1032400002EB8306DFF810914FEACA0304930BF1F7
:1032500008074FF0000856F8040D00F095FD2246CF
:103260002B4600F0FBFD4B4667E902014246204633
:10327000294600F0F3FD0CAB9E4204460D46EAD110
:1032800048ABCDE9013ADDF814A0BAF1000F4FF0D8
:1032900000092CDB2CA3D3E90023DFF8C0805F46B4
:1032A00000260024002503E0B14510DBF8E80223E6
:1032B000F7E8020100F0D2FD02460B4620462946FF
:1032C00000F016FC0136B24504460D46ECDA019BCF
:1032D000029A03EBC9039145C3E90045ABF1080B22
:1032E00009F1010306D0BAF1000F9946D2DA0024A1
:1032F0000025ECE7A29BDDF808A0022B30DC002BB8
:1033000000F3F08018D1049CA29A019D08342C444B
:1033100013461046194674E9022300F0E9FBA54262
:1033200002460B46F5D1039909B103F10043194652
:103330000B9B1046C3E90001079B03F007000DF546
:10334000197DBDE8F08F00BF00000040FB21F93F70
:103350000000F03F0000E03F0000703E005E4000D3
:10336000A29B032BE8D1BAF1000F00F04E81019B24
:10337000049A1344D3E900459B465BE90267204663
:10338000294632463B4600F0B3FBA046A946044618
:103390000D4622462B463046394600F0A7FB4B46E9
:1033A000424600F0A5FBCBE900016BE90245019B19
:1033B0005B45E2D1BAF1010F40F32781049B019AEA
:1033C0001344D3E9004502939A460DF5947B5AE9DC
:1033D00002672046294632463B4600F089FBA0465C
:1033E000A94604460D4622462B463046394600F093
:1033F0007DFB42464B4600F07BFBCAE900016AE9CF
:103400000245D345E3D1019A029C002302F1100545
:1034100008341A461846114674E9022300F068FB86
:10342000A54203460A46F5D10399002940F0A4803D
:103430001846019B0B9C1146D3E90223C4E90223E1
:10344000DDE94823C4E90023079BC4E9040103F034
:1034500007000DF5197DBDE8F08F019B5A1E0CABDE
:103460000CA953F82230C3F3160341F8223076E654
:1034700000216FF017030791C6E400245DE6069C67
:103480000395304639466242CDF81C8000F0B0FA10
:103490005F4B002206460F4600F066FF002861D011
:1034A0005C4B019D0022183430463946069400F0EA
:1034B000D5FC00F083FF044600F066FC544B00226C
:1034C00000F0CCFC0B4602463946304600F00EFBBD
:1034D00000F074FF05F1010A0CAB43F8250043F836
:1034E0002A409BE6069B019D002605EBC30433465C
:1034F0003046194674E9022300F0FAFAA54206465E
:103500000B46F5D1039A3046002A4FD119460B9B42
:103510003246C3E900010B46DDE9480100F0E6FA56
:10352000BAF1000F02460B4610DD48AD01241046EB
:103530001946F5E9022300F0DBFA0134A245024600
:103540000B46F4DA039909B103F1004319460B9BCA
:103550001046C3E90201079B03F007000DF5197D32
:10356000BDE8F08F3046394600F028FF019B0CAAD9
:103570009A4642F8230051E60B9E3361019B02F10B
:10358000004298681C6872611A465B6803F1004546
:10359000D36803F10041079BC6E9020103F007006D
:1035A000C6E900450DF5197DBDE8F08F0B9A194667
:1035B00003F10043536016600B463246DDE94801D3
:1035C00000F094FABAF1000F02460B46ADDCBBE7FF
:1035D000A6F108030493089BDB0002936FE4A29B0F
:1035E000022B06DC002B0DDC7FF4A6AEA29A13465C
:1035F00099E6A29B032B7FF49FAE002348A91A46AD
:10360000019111E7002633467CE700231A460BE7B9
:10361000000070410000703E2DE9F04F994687B0E0
:1036200021F00043B3F1795F90460446019104DA3A
:1036300000F0C4FE002800F08F80019B224619464E
:10364000204600F00BFC019B06460F463246194609
:1036500020463B4600F002FC43A3D3E90023824608
:103660008B463046394600F0F9FB41A3D3E90023ED
:1036700000F03CFA32463B4600F0F0FB3EA3D3E9B3
:10368000002300F035FA32463B4600F0E7FB3CA34E
:10369000D3E9002300F02AFA32463B4600F0DEFB75
:1036A00039A3D3E9002300F023FA109BCDE90201EE
:1036B000002B37D0384B00224046494600F0CEFB65
:1036C000DDE90223CDE904015046594600F0C6FB6E
:1036D00002460B46DDE9040100F008FA32463B469B
:1036E00000F0BCFB42464B4600F000FA28A3D3E9A9
:1036F000002306460F465046594600F0AFFB0246EF
:103700000B463046394600F0F3F902460B46204698
:10371000019900F0EBF904460D462046294607B012
:10372000BDE8F08F02460B463046394600F096FB66
:1037300017A3D3E9002300F0D9F952465B4600F005
:103740008DFB2246019B00F0D3F904460D4620462E
:10375000294607B0BDE8F08F019D2046294607B0F5
:10376000BDE8F08FAFF300807CD5CF5A3AD9E53D64
:10377000EB9C2B8AE6E55A3E7DFEB157E31DC73E22
:10378000D561C119A0012A3FA6F810111111813F7E
:10379000495555555555C53F0000E03F21F00041C2
:1037A000704700BF41F0004000F58010C00F704727
:1037B000C1F30A52F8B5A2F2FF35132D0B46844629
:1037C0000C46064630DC002D1EDB354F2F4101EA4A
:1037D0000702024315D030A3D3E9002300F088F993
:1037E0000022002300F0CAFD48B1002C04DA4FF497
:1037F000801343FA05F52C4424EA070400262346E7
:10380000B44660461946F8BD23A3D3E9002300F06F
:103810006FF90022002300F0B1FD0028EFD0002C4A
:1038200024DB00263446EAE7332D08DDB5F5806F4A
:10383000E7D1024600F05CF984460B46E1E7A2F2CC
:1038400013424FF0FF37D7400742DAD012A3D3E933
:10385000002300F04DF90022002300F08FFD002826
:10386000CDD0002C0BDB26EA0706C8E724F0004386
:103870000C4A1E43002E18BF14460026BFE7142D25
:1038800008D00123C5F1340503FA05F5AE1928BFA8
:10389000E418E8E70134E6E79C7500883CE4377EED
:1038A000FFFF0F000000F0BF01490020704700BF7C
:1038B0000000F87FF0B5C1F30A55A5F2FF3CBCF15A
:1038C000130F83B002460B460C4686464FEAD1766C
:1038D00065DCBCF1000F30DB424941FA0CF103EA30
:1038E0000100104361D003EA510352EA030E4FEA8C
:1038F00051010DD024EA01014FF48024BCF1130FD3
:1039000044FA0CF40CBF4FF0004E4FF0000E0C4385
:10391000354901EBC6062346D6E9004572462046E6
:10392000294600F0E5F8CDE90001DDE90001224675
:103930002B4600F0DBF803B0F0BD21F0004101435D
:103940001946F8D0C3F3130343EA000E264ACEF11A
:10395000000343EA0E0302EBC606D6E90067620CD9
:103960001B0B03F40023520443EA02010B460246F8
:103970003946304600F0BCF8CDE9000132463B46FE
:10398000DDE9000100F0B2F804F0004421F000414C
:10399000024641EA04031046194603B0F0BDBCF1EB
:1039A000330F06DDBCF5806F18D01046194603B002
:1039B000F0BDA5F213454FF0FF31E9400842F4D0C5
:1039C00010EA51024FEA5103A2D04FF0804E20EA94
:1039D00003034EFA05F543EA050E99E700F088F86F
:1039E000A9E700BFFFFF0F00385E400000000000A5
:1039F000C1F30A5370B58C4604460D4616467BBB90
:103A000021F0004C03465CEA030328D0304B00222F
:103A100000F024FA2F4B9E4204460D461ADBC1F3F8
:103A20000A538C46363B334440F2FE72934220DC0C
:103A3000002B3CDC13F1350F2CDA4CF250339E4254
:103A400017DC05F0004343F0D27141F4B73122484E
:103A500041F01F011AA3D3E9002300F0FFF970BD64
:103A600040F2FF729342DED102460B4600F040F86E
:103A700070BD05F0004343F0FC4141F45F1141F497
:103A8000105111A3D3E90023144841F03C0100F088
:103A9000E5F970BD2CF0FF4C36332CF4E00C4CEA09
:103AA000035120460E4B002200F0D8F970BD2CF0D7
:103AB000FF4C2CF4E00C20464CEA035170BD00BFD3
:103AC00059F3F8C21F6EA5019C7500883CE4377E4F
:103AD00000005043B03CFFFF59F3F8C29C750088CA
:103AE0000000903C81F0004102E000BF83F0004301
:103AF00030B54FEA41044FEA430594EA050F08BF89
:103B000090EA020F1FBF54EA000C55EA020C7FEA4C
:103B1000645C7FEA655C00F0E2804FEA5454D4EBC9
:103B20005555B8BF6D420CDD2C4480EA020281EA93
:103B3000030382EA000083EA010180EA020281EACB
:103B40000303362D88BF30BD11F0004F4FEA01311D
:103B50004FF4801C4CEA113102D0404261EB41012C
:103B600013F0004F4FEA03334CEA133302D05242B2
:103B700063EB430394EA050F00F0A780A4F101046E
:103B8000D5F1200E0DDB02FA0EFC22FA05F28018A8
:103B900041F1000103FA0EF2801843FA05F359418E
:103BA0000EE0A5F120050EF1200E012A03FA0EFC0D
:103BB00028BF4CF0020C43FA05F3C01851EBE37137
:103BC00001F0004507D54FF0000EDCF1000C7EEB54
:103BD00000006EEB0101B1F5801F1BD3B1F5001F92
:103BE0000CD349085FEA30004FEA3C0C04F10104B1
:103BF0004FEA445212F5800F80F09A80BCF1004FDA
:103C000008BF5FEA500C50F1000041EB045141EA5B
:103C1000050130BD5FEA4C0C404141EB0101013C24
:103C200028BFB1F5801FE9D291F0000F04BF014613
:103C30000020B1FA81F308BF2033A3F10B03B3F1E5
:103C400020020CDA0C3208DD02F1140CC2F10C0275
:103C500001FA0CF021FA02F10CE002F11402D8BFD3
:103C6000C2F1200C01FA02F120FA0CFCDCBF41EA9F
:103C70000C019040E41AA2BF01EB0451294330BD6E
:103C80006FEA04041F3C1CDA0C340EDC04F114044B
:103C9000C4F1200220FA04F001FA02F340EA030022
:103CA00021FA04F345EA030130BDC4F10C04C4F168
:103CB000200220FA02F001FA04F340EA0300294648
:103CC00030BD21FA04F0294630BD94F0000F83F492
:103CD000801306BF81F480110134013D4EE77FEA75
:103CE000645C18BF7FEA655C29D094EA050F08BFC1
:103CF00090EA020F05D054EA000C04BF19461046A2
:103D000030BD91EA030F1EBF0021002030BD5FEAE5
:103D1000545C05D14000494128BF41F0004130BD0D
:103D200014F580043CBF01F5801130BD01F0004561
:103D300045F0FE4141F470014FF0000030BD7FEAD4
:103D4000645C1ABF194610467FEA655C1CBF0B46CF
:103D5000024650EA013406BF52EA033591EA030FE6
:103D600041F4002130BD00BF90F0000F04BF0021DE
:103D7000704730B54FF4806404F132044FF0000511
:103D80004FF0000150E700BF90F0000F04BF00218A
:103D9000704730B54FF4806404F1320410F00045F0
:103DA00048BF40424FF000013EE700BF42004FEAEB
:103DB000E2014FEA31014FEA02701FBF12F07F4368
:103DC00093F07F4F81F06051704732F07F4208BF1F
:103DD000704793F07F4F04BF41F40021704730B526
:103DE0004FF4607401F0004521F000411CE700BF72
:103DF00050EA010208BF704730B54FF000050AE0F5
:103E000050EA010208BF704730B511F0004502D5F5
:103E1000404261EB41014FF4806404F132045FEAF7
:103E2000915C3FF4D8AE4FF003025FEADC0C18BFA0
:103E300003325FEADC0C18BF033202EBDC02C2F192
:103E4000200300FA03FC20FA02F001FA03FE40EA24
:103E50000E0021FA02F11444BDE600BF70B54FF028
:103E6000FF0C4CF4E06C1CEA11541DBF1CEA135506
:103E700094EA0C0F95EA0C0F00F0DEF82C4481EA6E
:103E8000030621EA4C5123EA4C5350EA013518BF8E
:103E900052EA033541F4801143F4801338D0A0FB7B
:103EA00002CE4FF00005E1FB02E506F00042E0FB28
:103EB00003E54FF00006E1FB03569CF0000F18BF2E
:103EC0004EF0010EA4F1FF04B6F5007F64F54074D6
:103ED00004D25FEA4E0E6D4146EB060642EAC62169
:103EE00041EA55514FEAC52040EA5E504FEACE2ED6
:103EF000B4F1FD0C88BFBCF5E06F1ED8BEF1004FD9
:103F000008BF5FEA500E50F1000041EB045170BD54
:103F100006F0004646EA010140EA020081EA030198
:103F2000B4EB5C04C2BFD4EB0C0541EA045170BD94
:103F300041F480114FF0000E013C00F3AB8014F10E
:103F4000360FDEBF002001F0004170BDC4F1000457
:103F5000203C35DA0C341BDC04F11404C4F12005D8
:103F600000FA05F320FA04F001FA05F240EA020033
:103F700001F0004221F0004110EBD37021FA04F669
:103F800042EB06015EEA430E08BF20EAD37070BD23
:103F9000C4F10C04C4F1200500FA04F320FA05F082
:103FA00001FA04F240EA020001F0004110EBD37084
:103FB00041F100015EEA430E08BF20EAD37070BDF4
:103FC000C4F1200500FA05F24EEA020E20FA04F3CD
:103FD00001FA05F243EA020321FA04F001F000417C
:103FE00021FA04F220EA020000EBD3705EEA430EED
:103FF00008BF20EAD37070BD94F0000F0FD101F01C
:104000000046400041EB010111F4801F08BF013C54
:10401000F7D041EA060195F0000F18BF704703F092
:104020000046520043EB030313F4801F08BF013D19
:10403000F7D043EA0603704794EA0C0F0CEA1355D5
:1040400018BF95EA0C0F0CD050EA410618BF52EA8F
:104050004306D1D181EA030101F000414FF0000095
:1040600070BD50EA410606BF1046194652EA4306A3
:1040700019D094EA0C0F02D150EA013613D195EA17
:104080000C0F05D152EA03361CBF104619460AD15F
:1040900081EA030101F0004141F0FE4141F4700169
:1040A0004FF0000070BD41F0FE4141F4780170BD59
:1040B00070B54FF0FF0C4CF4E06C1CEA11541DBFBE
:1040C0001CEA135594EA0C0F95EA0C0F00F0A7F8C0
:1040D000A4EB050481EA030E52EA03354FEA0131ED
:1040E00000F088804FEA03334FF0805545EA131300
:1040F00043EA12634FEA022245EA111545EA1065C8
:104100004FEA00260EF000419D4208BF964244F15E
:10411000FD0404F5407402D25B084FEA3202B61A7D
:1041200065EB03055B084FEA32024FF480104FF451
:10413000002CB6EB020E75EB030E22BFB61A7546C5
:1041400040EA0C005B084FEA3202B6EB020E75EB58
:10415000030E22BFB61A754640EA5C005B084FEAC0
:104160003202B6EB020E75EB030E22BFB61A75468D
:1041700040EA9C005B084FEA3202B6EB020E75EB98
:10418000030E22BFB61A754640EADC0055EA060E59
:1041900018D04FEA051545EA16754FEA06164FEA9C
:1041A000C30343EA52734FEAC2025FEA1C1CC0D148
:1041B00011F4801F0BD141EA00014FF000004FF0D5
:1041C000004CB6E711F4801F04BF01430020B4F196
:1041D000FD0C88BFBCF5E06F3FF6AFAEB5EB030C4E
:1041E00004BFB6EB020C5FEA500C50F1000041EB4B
:1041F000045170BD0EF0004E4EEA113114EB5C0418
:10420000C2BFD4EB0C0541EA045170BD41F48011EA
:104210004FF0000E013C90E645EA060E8DE60CEAF2
:10422000135594EA0C0F08BF95EA0C0F3FF43BAF0F
:1042300094EA0C0F0AD150EA01347FF434AF95EAC6
:104240000C0F7FF425AF104619462CE795EA0C0FAA
:1042500006D152EA03353FF4FDAE1046194622E777
:1042600050EA410618BF52EA43067FF4C5AE50EA51
:1042700041047FF40DAF52EA43057FF4EBAE12E741
:104280004FF0FF3C06E000BF4FF0010C02E000BF22
:104290004FF0010C4DF804CD4FEA410C7FEA6C5C05
:1042A0004FEA430C18BF7FEA6C5C1BD001B050EAA8
:1042B000410C0CBF52EA430C91EA030F02BF90EA93
:1042C000020F0020704710F1000F91EA030F58BF52
:1042D000994208BF90422CBFD8176FEAE37040F0B4
:1042E000010070474FEA410C7FEA6C5C02D150EA52
:1042F000013C07D14FEA430C7FEA6C5CD6D152EA0D
:10430000033CD3D05DF8040B704700BF84461046D1
:1043100062468C461946634600E000BF01B5FFF7D0
:10432000B7FF002848BF10F1000F01BD4DF808EDA0
:10433000FFF7F4FF0CBF012000205DF808FB00BF71
:104340004DF808EDFFF7EAFF34BF012000205DF8CB
:1043500008FB00BF4DF808EDFFF7E0FF94BF012018
:1043600000205DF808FB00BF4DF808EDFFF7CEFF19
:1043700094BF012000205DF808FB00BF4DF808ED58
:10438000FFF7C4FF34BF012000205DF808FB00BF29
:104390004FEA410C7FEA6C5C02D150EA013C0AD141
:1043A0004FEA430C7FEA6C5C02D152EA033C02D133
:1043B0004FF0000070474FF0010070474FEA410294
:1043C00012F5001215D211D56FF47873B3EB625267
:1043D00012D94FEAC12343F0004343EA505311F08E
:1043E000004F23FA02F018BF404270474FF0000020
:1043F000704750EA013005D111F0004008BF6FF05E
:10440000004070474FF00000704700BF4FEA410284
:10441000B2F1E04324BFB3F5001CDCF1FE5C0DD922
:1044200001F0004C4FEAC0024CEA5070B2F1004F6C
:1044300040EB830008BF20F00100704711F0804F6F
:1044400021D113F13872BCBF01F00040704741F434
:1044500080114FEA5252C2F11802C2F1200C10FA38
:104460000CF320FA02F018BF40F001004FEAC1231C
:104470004FEAD32303FA0CFC40EA0C0023FA02F3C0
:104480004FEA4303CCE77FEA625307D150EA013396
:104490001EBF4FF0FE4040F44000704701F0004066
:1044A00040F0FE4040F40000704700BF80F0004044
:1044B00002E000BF81F0004142001FBF5FEA4103FC
:1044C00092EA030F7FEA226C7FEA236C6AD04FEAFC
:1044D0001262D2EB1363C1BFD21841404840414041
:1044E000B8BF5B42192B88BF704710F0004F40F4F3
:1044F000000020F07F4018BF404211F0004F41F40F
:10450000000121F07F4118BF494292EA030F3FD0DA
:10451000A2F1010241FA03FC10EB0C00C3F12003ED
:1045200001FA03F100F0004302D5494260EB40007C
:10453000B0F5000F13D3B0F1807F06D340084FEAE7
:10454000310102F10102FE2A51D2B1F1004F40EBDC
:10455000C25008BF20F0010040EA03007047490044
:1045600040EB0000013A28BFB0F5000FEDD2B0FAE1
:1045700080FCACF1080CB2EB0C0200FA0CF0AABF04
:1045800000EBC25052421843BCBFD04018437047A2
:1045900092F0000F81F4000106BF80F400000132A8
:1045A000013BB5E74FEA41037FEA226C18BF7FEA7F
:1045B000236C21D092EA030F04D092F0000F08BFC1
:1045C0000846704790EA010F1CBF0020704712F0A8
:1045D0007F4F04D1400028BF40F00040704712F1E7
:1045E00000723CBF00F50000704700F0004343F04C
:1045F000FE4040F4000070477FEA226216BF084682
:104600007FEA23630146420206BF5FEA412390EA44
:10461000010F40F4800070474FF0000304E000BF3A
:1046200010F0004348BF40425FEA000C08BF7047EB
:1046300043F0964301464FF000001CE050EA0102AF
:1046400008BF70474FF000030AE000BF50EA0102C4
:1046500008BF704711F0004302D5404261EB4101B1
:104660005FEA010C02BF84460146002043F0B643D6
:1046700008BFA3F18053A3F50003BCFA8CF2083AFB
:10468000A3EBC25310DB01FA02FC634400FA02FC04
:10469000C2F12002BCF1004F20FA02F243EB02000B
:1046A00008BF20F00100704702F1200201FA02FC6D
:1046B000C2F1200250EA4C0021FA02F243EB020060
:1046C00008BF20EADC7070474FF0FF0C1CEAD052A4
:1046D0001EBF1CEAD15392EA0C0F93EA0C0F6FD065
:1046E0001A4480EA010C400218BF5FEA41211ED043
:1046F0004FF0006343EA501043EA5111A0FB01312F
:104700000CF00040B1F5000F3EBF490041EAD37103
:104710005B0040EA010062F17F02FD2A1DD8B3F17F
:10472000004F40EBC25008BF20F00100704790F0EE
:10473000000F0CF0004C08BF49024CEA502040EA40
:1047400051207F3AC2BFD2F1FF0340EAC250704706
:1047500040F400004FF00003013A5DDC12F1190F44
:10476000DCBF00F000407047C2F10002410021FAB6
:1047700002F1C2F1200200FA02FC5FEA310040F1CE
:10478000000053EA4C0308BF20EADC70704792F047
:10479000000F00F0004C02BF400010F4000F013A7F
:1047A000F9D040EA0C0093F0000F01F0004C02BF7A
:1047B000490011F4000F013BF9D041EA0C018FE7E9
:1047C0000CEAD15392EA0C0F18BF93EA0C0F0AD0EF
:1047D00030F0004C18BF31F0004CD8D180EA010015
:1047E00000F00040704790F0000F17BF90F0004FAE
:1047F000084691F0000F91F0004F14D092EA0C0F90
:1048000001D142020FD193EA0C0F03D14B0218BF22
:10481000084608D180EA010000F0004040F0FE4068
:1048200040F40000704740F0FE4040F44000704704
:104830004FF0FF0C1CEAD0521EBF1CEAD15392EA83
:104840000C0F93EA0C0F69D0A2EB030280EA010C73
:1048500049024FEA402037D04FF0805343EA11110C
:1048600043EA10130CF000408B4238BF5B0042F16A
:104870007D024FF4000C8B4224BF5B1A40EA0C000F
:10488000B3EB510F24BFA3EB510340EA5C00B3EB41
:10489000910F24BFA3EB910340EA9C00B3EBD10F2F
:1048A00024BFA3EBD10340EADC001B0118BF5FEA81
:1048B0001C1CE0D1FD2A3FF650AF8B4240EBC250AA
:1048C00008BF20F0010070470CF0004C4CEA50206B
:1048D0007F32C2BFD2F1FF0340EAC250704740F4BA
:1048E00000004FF00003013A37E792F0000F00F0AC
:1048F000004C02BF400010F4000F013AF9D040EA2A
:104900000C0093F0000F01F0004C02BF490011F4BD
:10491000000F013BF9D041EA0C0195E70CEAD153B5
:1049200092EA0C0F08D142027FF47DAF93EA0C0F9C
:104930007FF470AF084676E793EA0C0F04D14B0280
:104940003FF44CAF08466EE730F0004C18BF31F032
:10495000004CCAD130F000427FF45CAF31F000432C
:104960007FF43CAF5FE700BF2DE9F04F8B4687B087
:1049700019460546584616461F46FFF7A5FE1099EC
:1049800080463046FFF7A0FE109981465846FFF753
:104990009BFE314682463846FFF796FE4946029016
:1049A0004046FFF787FD029904465046FFF784FD15
:1049B00021460190204600F0E1F930B9019B2C60BE
:1049C00028466B6007B0BDE8F08F0199084600F0FB
:1049D000D5F90028F2D02BF0004318469E490393E6
:1049E00000F0CCF9039B4FF0010240B918469A49F8
:1049F000049200F0A5F9DDE9033200B9024682F025
:104A00000102D2B2944904921846039300F0B6F919
:104A100038B9039B9049184600F092F9002800F03D
:104A2000898026F000438C490393184600F0A6F9CC
:104A300030B9039B8849184600F082F9002879D0E4
:104A40000023059327F0004383490393184600F0A1
:104A500095F9002840F09D807F49039800F070F997
:104A6000002840F09680109B23F000430493DDF86B
:104A70000C807949404600F081F94FF0010428B9D3
:104A80007549404600F05CF900B9044684F0010025
:104A900000F00100FFF7C4FDDDF810806E4960F3FF
:104AA0001E07404600F06AF94FF0010428B96A4930
:104AB000404600F045F900B9044684F0010000F0DA
:104AC0000100FFF7ADFD109B594660F31E035846E9
:104AD000109300F053F9002840F0CA803146304668
:104AE00000F04CF9002840F0C08039465846FFF7E6
:104AF000EBFD109904463046FFF7E6FD01462046DF
:104B0000FFF7D8FC4FF0FF41FFF7DEFD1099044698
:104B10005846FFF7D9FD394680463046FFF7D4FDA9
:104B200001464046FFF7C8FC4FF0FF41FFF7CCFDC0
:104B3000019043E70498FFF773FD26F000434649D0
:104B4000039360F31E0B184600F018F94FF00102B2
:104B500040B9039B40490492184600F0F1F8049ACA
:104B600000B9024682F0010202F00100FFF758FD91
:104B7000394660F31E06384600F000F900287AD165
:104B80001099084600F0FAF8002867D10123059330
:104B900058E7109B304923F000431846049300F077
:104BA000EDF830B92C49049800F0CAF800283FF419
:104BB0005EAF059B002B98D128F00048264940465F
:104BC00000F0DCF820B92449404600F0B9F840B3C1
:104BD00029F000492049484600F0D0F820B91E4984
:104BE000484600F0ADF8E0B12AF0004A1A495046B4
:104BF00000F0C4F820B91849504600F0A1F880B17F
:104C0000029B154923F00048404600F0B7F8002801
:104C10007FF4D4AE1049404600F092F800287FF4AB
:104C2000CDAE5946584600F0A9F868BB314630462B
:104C300000F0A4F828BB3946384600F09FF8E8B9E0
:104C40001099084600F09AF800283FF44EAF109BE8
:104C50006FF31E03109348E7FFFF7F7F109B6FF3F6
:104C60001E03109301230593ECE66FF31E063CE749
:104C70006FF31E0B32E76FF31E0781E76FF31E071A
:104C8000DEE76FF31E06D6E76FF31E0BCEE700BF1D
:104C90004FF0FF3C06E000BF4FF0010C02E000BF08
:104CA0004FF0010C4DF804CD4FEA40024FEA4103AA
:104CB0007FEA226C18BF7FEA236C11D001B052EA60
:104CC000530C18BF90EA010F58BFB2EB030088BF26
:104CD000C81738BF6FEAE17018BF40F00100704795
:104CE0007FEA226C02D15FEA402C05D17FEA236C77
:104CF000E4D15FEA412CE1D05DF8040B704700BFBE
:104D0000844608466146FFE70FB5FFF7C9FF002854
:104D100048BF10F1000F0FBD4DF808EDFFF7F4FF8D
:104D20000CBF012000205DF808FB00BF4DF808ED26
:104D3000FFF7EAFF34BF012000205DF808FB00BF49
:104D40004DF808EDFFF7E0FF94BF012000205DF86B
:104D500008FB00BF4DF808EDFFF7D2FF94BF01201C
:104D600000205DF808FB00BF4DF808EDFFF7C8FF15
:104D700034BF012000205DF808FB00BF4FEA40026D
:104D80004FEA41037FEA226C02D15FEA402C08D14E
:104D90007FEA236C02D15FEA412C02D14FF0000080
:104DA00070474FF001007047014B1868704700BF13
:104DB0000800002070B50D4E0D4D761BB61006D0C4
:104DC000002455F8043B01349847A642F9D1094E16
:104DD000094D761B01F056F8B61006D0002455F8A0
:104DE000043B01349847A642F9D170BD905E400063
:104DF000905E4000945E4000905E4000024B014691
:104E0000186800F055B900BF08000020024B0146A9
:104E1000186800F0EFB800BF08000020844641EA9F
:104E2000000313F003036DD1403A41D351F8043B22
:104E300040F8043B51F8043B40F8043B51F8043B74
:104E400040F8043B51F8043B40F8043B51F8043B64
:104E500040F8043B51F8043B40F8043B51F8043B54
:104E600040F8043B51F8043B40F8043B51F8043B44
:104E700040F8043B51F8043B40F8043B51F8043B34
:104E800040F8043B51F8043B40F8043B51F8043B24
:104E900040F8043B51F8043B40F8043B51F8043B14
:104EA00040F8043B51F8043B40F8043B403ABDD283
:104EB000303211D351F8043B40F8043B51F8043B25
:104EC00040F8043B51F8043B40F8043B51F8043BE4
:104ED00040F8043B103AEDD20C3205D351F8043BB4
:104EE00040F8043B043AF9D2043208D0D2071CBF80
:104EF00011F8013B00F8013B01D30B8803806046A9
:104F0000704700BF082A13D38B078DD010F003031E
:104F10008AD0C3F10403D21ADB071CBF11F8013B8E
:104F200000F8013B80D331F8023B20F8023B7BE7DD
:104F3000043AD9D3013A11F8013B00F8013BF9D208
:104F40000B7803704B7843708B78837060467047A2
:104F5000830730B548D0541E002A3FD0CAB203465A
:104F600001E0013C3AD303F8012B9D07F9D1032C52
:104F70002DD9CDB245EA05250F2C45EA054536D990
:104F8000A4F1100222F00F0C03F1200EE6444FEAC8
:104F9000121C03F1100242E9045542E90255103295
:104FA0007245F8D10CF1010214F00C0F03EB021260
:104FB00004F00F0C13D0ACF1040323F0030304330B
:104FC000134442F8045B9342FBD10CF003042CB170
:104FD000CAB21C4403F8012B9C42FBD130BD64468D
:104FE0001346002CF4D1F9E703461446BFE71A46EE
:104FF000A446E0E7002951D038B551F8043C0C1F15
:10500000002BB8BFE418054600F0FAF8274A1368E9
:105010002BB1A3420CD92168601883422CD0636065
:1050200028461460BDE8384000F0ECB8A3420FD821
:105030001A465B68002BF9D111685018844217D0CA
:105040002DD3636054602846BDE8384000F0DAB8DC
:1050500011685018A04215D021D8216860188342E9
:10506000EFD118685B680144C4E900135460EAE7B3
:10507000236819441160E6E718685B680144C4E9D5
:105080000013CDE720680144501883421160DAD143
:10509000D3E900030144C2E90013D4E770470C23AD
:1050A0002B602846BDE8384000F0ACB888000020EE
:1050B000F8B5CD1C25F0030508350C2D38BF0C259F
:1050C000002D064623DBA94221D8254F00F098F891
:1050D0003A6822B3144603E063682246FBB11C46DB
:1050E00023685B1BF8D40B2B15D8636894420CBF64
:1050F0003B605360304600F085F804F10B00231D3F
:1051000020F00700C21A01D01B1AA350F8BD0C23CF
:1051100033600020F8BD23601C442560EAE779680D
:10512000C9B12946304600F01DF8431C0CD0C41C00
:1051300024F00304A04205D0211A304600F012F8F2
:10514000013001D02560D5E70C233046336000F0F4
:1051500059F80020F8BD304600F004F87860E0E728
:105160008800002038B5074D0022044608462A6012
:1051700000F034FD431C00D038BD2B68002BFBD061
:10518000236038BD900000200CB410B59CB01EAB5D
:105190006FF00044CDE906140291084953F8042B3E
:1051A000059102A90193049400F00CF9029B0022DE
:1051B0001A701CB0BDE8104002B070470802FFFF33
:1051C0000EB410B59DB06FF000411FABCDE90601E4
:1051D0000491094953F8042B0290084C0868019384
:1051E00002A9059400F0EEF8029B00221A701DB08F
:1051F000BDE8104003B07047080000200802FFFF20
:10520000704700BF704700BF2DE9F0478F689F428D
:105210000C461D46164638D88246888910F4906F91
:105220000ED108683D462A46314600F029FCA268A6
:105230002368D21B2B44A26023600020BDE8F087C6
:105240004B69096903EB4308236808EBD878A3EBA3
:1052500001096B1C4FEA68084B444345424684BF32
:1052600098464246430513D511465046FFF720FFA6
:10527000074608B321694A46FFF7D0FDA38923F406
:10528000906343F08003A38107E008681F46CAE7E4
:10529000504600F071FC074650B107EB0900A8EB3F
:1052A00009032761C4F81480A36020602F46BAE781
:1052B00021695046FFF79EFE0C23CAF80030A389EF
:1052C00043F040034FF0FF30A381B7E72DE9F04FE3
:1052D000936883B09146002B6DD017688D68804627
:1052E0000C460868083743E0A38913F4906F2ED06A
:1052F000D4E90415A0EB010A05EB450505EBD575CE
:105300000AEB06006D100130A8422A4684BF05460C
:105310002A465B0536D511464046FFF7C9FE0028F0
:105320003AD0524621690190FFF778FDA289019B8E
:1053300022F4906242F08002A281A5EB0A0203EB04
:105340000A006561A260236120603546B246594675
:10535000524600F095FBD9F80830A16820684D1B33
:1053600050449E1BA5602060C9F808601EB3083732
:1053700057E902B6002EFAD0B542AA46B4D935464E
:10538000B246E4E7404600F0F7FB03460028D4D1DC
:1053900021694046FFF72EFE0C23C8F80030A38990
:1053A000002243F040034FF0FF30A381C9E90122FE
:1053B00003B0BDE8F08F0020C9F8040003B0BDE8D9
:1053C000F08F00BF2DE9F04F1C468B891D069DB064
:1053D00088468146924603D50B69002B00F0EF808A
:1053E0000023099320238DF8293030238DF82A30AB
:1053F0009AF800307B4D03940126002B72D054465E
:1054000003E014F8013F002B76D0252BF9D1B4EB43
:105410000A0B74D12278002A64D000234FF0FF32A7
:10542000CDE90523049307938DF853301A93013483
:1054300004E0049A06FA03F313430493A2460522F8
:1054400014F8011B284600F0CBFA431B0028F0D1CA
:10545000049BD80644BF20228DF8532019079AF8E0
:10546000001044BF2B228DF853202A2954D1039ACF
:1054700011680432002903927CDB07919AF801102D
:105480000AF1010A2E2959D0574C0322204600F078
:10549000A7FA40B1049B001B402404FA00F0034328
:1054A00004930AF1010A1AF8011B50488DF82810DC
:1054B000062200F095FA002862D04D4B002B52D006
:1054C00003AA00924B4B424604A94846AFF3008022
:1054D00007467A1C06D0099B3B4409939AF8003092
:1054E000002B8CD1B8F80C305B0654BF09984FF0F4
:1054F000FF301DB0BDE8F08FB4EB0A0BF2D05B4675
:10550000524641464846FFF77FFE0130EAD0099BEC
:1055100022785B4409937EE7A1F13002092AB1D8D1
:10552000079B1AF8011F03EB830302EB4303A1F16E
:105530003002092AF5D92E290793A5D19AF801102E
:105540002A2927D1039B9AF802101A68059204337E
:10555000002A0AF102000393B8BF4FF0FF338246DE
:10556000B8BF059390E7039B073323F00703083385
:105570000393B0E7494243F00203079104937DE7A8
:1055800003AA00921B4B424604A9484600F0CAF801
:1055900007469EE7A1F130020023092A05930AF18C
:1055A000010A3FF671AF1AF8011F03EB830302EB08
:1055B0004303A1F13002092AF5D9059364E740219C
:1055C000FFF776FDC8F80000C8F8100018B14023B6
:1055D000C8F8143004E70C23C9F800304FF0FF304E
:1055E00087E700BF485E4000505E4000545E4000C8
:1055F00000000000095240002DE9F04791461E4688
:105600000A698B68DDF820809A42B8BF1A46C9F84B
:10561000002091F843300C46054613B10132C9F819
:105620000020226891065DD5D9F800300233C9F810
:105630000030226812F0060F11461ED1E168CB1A25
:10564000002BD8BF114618DD04F1190A002706E027
:10565000D9F80030E268A2EB030CBC450CDD012355
:10566000524631462846C047013007F10107EFD1C5
:105670004FF0FF30BDE8F087216894F84330003BDD
:1056800018BF01238A060AD5E1185A1C302081F878
:105690004300224494F8451082F84310023304F189
:1056A000430231462846C0470130E1D0236803F069
:1056B0000603042B1DD0A3682269934225DD002731
:1056C0009B1A1F4404F11A09002401E0BC421CDAB1
:1056D00001234A4631462846C047013004F10104FF
:1056E000F4D1C5E712F0060F12D0003B18BF01231A
:1056F000D5E7D9F80030E1682269C91AA368934256
:1057000021EAE177DCDC0029DCDC0020BDE8F08761
:10571000E168D9F80030CB1A002BD8BF114693DCD2
:10572000ABE700BF2DE9F043174685B00A7E0C9D1C
:105730000C460646984601F1430C002A33D0A2F1EC
:105740005803D9B2202967D8202B65D8DFE813F099
:10575000DE006400640064006400640064006400AF
:10576000640064006400A3006E00640064006400D0
:1057700064006E00640064006400640021007F0027
:10578000C00064006400AE0064007F006400640038
:10579000E50023681A0640F104812B686269191D2F
:1057A00029601B681A600023E1462361CDF8008060
:1057B0003B4603AA21463046FFF71EFF013020D0AA
:1057C00023694A4639463046C047013019D023681C
:1057D000E06803999B0719D5431A002B16DD04F1E5
:1057E0001909002504E0E0680399431AAB420DDD76
:1057F00001234A4639463046C047013005F10105CC
:10580000F1D14FF0FF3005B0BDE8F0838842B8BF5A
:10581000084605B0BDE8F083012384F842202361E7
:1058200004F14209002384F84330BFE723681906D6
:1058300002D45A0600F1C18029680A68043129603F
:105840001146002A6BDBDFF884E10A2510E02368AB
:10585000180640F19C802B68191D29601968DFF833
:105860006CE16F2A0CBF08250A25002384F8433019
:105870006268A260002A7FDB236823F004032360B0
:1058800000295BD1002A79D1E146082D65D0ACEB27
:10589000090323618AE72B680122196804332B600E
:1058A00004F1420984F842102261BBE72B68626868
:1058B000191D2960D3F800900021484600F090F8A7
:1058C000002800F08180A0EB090060602061A9E75A
:1058D000236843F0200323607822DFF8F4E084F8A3
:1058E00045202A68111D2960190643D45D0641D55B
:1058F0001188D80744BF43F020032360002944D116
:10590000236823F0200323601025AEE7582384F892
:105910004530DFF8B8E02368E3E72368DCE7626836
:10592000A2602D20002AC1F1000184F8430002DBAF
:1059300023F004032360DFF894E00A25E146B1FB7D
:10594000F5F305FB13100A46AA421EF8001009F8E9
:10595000011D1946F3D2082D99D12368D90796D590
:10596000626823699A4292DC302309F8013C09F10C
:10597000FF398CE71168BCE70029DFD19EF80030C1
:1059800084F8423004F142097FE710256DE713F0F7
:10599000400F2B6803F1040129600CBF19681988B6
:1059A0005DE713F0400F2B68626903F10401296081
:1059B0001B6814BF1A801A60F5E62A68B2F9001055
:1059C00004322A600A463CE760687FE75C5E40007C
:1059D000705E4000000000000000000000000000B9
:1059E00001F0FF01102A2BDB10F0070F08D010F890
:1059F000013B013A8B422DD010F0070F42B3F6D194
:105A0000F0B441EA012141EA014122F007047FF0AC
:105A100000070023F0E80256083C85EA010586EA03
:105A2000010685FA47F5A3FA87F586FA47F6A5FA3F
:105A300087F68EB9EED1F0BC01F0FF0102F007024B
:105A400032B110F8013B013A83EA010313B1F8D1F6
:105A50000020704701387047002D06BF35460338D7
:105A6000073815F0010F07D1013015F4807F02BF10
:105A7000013015F4C03F0130F0BC0138704700BF61
:105A800088420DD98B1883420AD900EB020CBAB1B7
:105A9000624613F801CD02F801CD9942F9D1704761
:105AA0000F2A0ED8034602F1FF3C4AB10CF1010C5B
:105AB000013B8C4411F8012B03F8012F6145F9D10A
:105AC000704740EA01039B0750D1A2F1100370B563
:105AD00001F1200C23F00F0501F1100E00F110046C
