:020000040040BA
:100000009810002055054000510540005105400062
:10001000510540005105400051054000000000001E
:10002000000000000000000000000000510540003A
:1000300051054000000000005105400051054000FE
:100040005105400051054000510540005105400058
:1000500051054000510540005105400000000000DE
:1000600051054000510540000000000051054000CE
:1000700051054000000000005105400051054000BE
:100080000000000000000000510540005105400044
:100090005105400051054000510540005105400008
:1000A0005105400051054000000000000000000024
:1000B000000000005105400051054000510540007E
:1000C0005105400051054000510540000348044BD4
:1000D000834202D0034B03B1184770474C424000A3
:1000E0004C42400000000000054806490B1AD90F99
:1000F00001EBA301491002D0034B03B1184770472D
:100100004C4240004C4240000000000010B5064C3C
:10011000237843B9FFF7DAFF044B13B10448AFF378
:1001200000800123237010BD6C000020000000003F
:100130004C42400008B5044B1BB104490448AFF3DE
:100140000080BDE80840CFE70000000070000020FC
:100150004C42400038B5044D04462078A84714F8B6
:10016000013F002BF9D138BDE50640002DE9F041F3
:10017000DFF8308004460E460025B5420DDA6719D7
:10018000C047C0B260550028FAD00A2803D1002326
:100190003B70BDE8F0810135EFE73444002304F8FB
:1001A000013CF6E7010740002DE9F043DFF8388015
:1001B000DFF8389085B007460E460025B54205DBCE
:1001C0000A4B0A20984705B0BDE8F08357F8252070
:1001D000074B4146684698476C4614F8010B08B92E
:1001E0000135EBE7C847F8E7A8414000E5064000C5
:1001F00079374000002370B502464D1E184601268F
:100200008B4200DB70BD42FA03F4E40742BFEC1AF4
:1002100006FA04F420430133F2E700002DE9F84325
:10022000114F0E46054611460024B44201DBBDE8DD
:10023000F8832046B847844213DA05EBC40205EB85
:10024000C00355F834E0D2F804C055F83090D3F824
:10025000048045F83490C2F8048045F830E0C3F8D3
:1002600004C00134E1E700BFF501400000000000D8
:100270002DE9F04F8DB0664B0691824608469847AF
:10028000644B654C984760A3D3E90023A047634BB8
:100290009847634B98470699624B07900246504631
:1002A0009847614B98474FF0010B079B9B4502DD38
:1002B0000DB0BDE8F08F564B5C4C0BF1FF3098470A
:1002C000CDE9020102460B4600204FF08041A047D5
:1002D00000220023564CA047514B9847002504901C
:1002E000049C524EDDE9022300204FF08041B047CC
:1002F000049B8046E01A464B894698474D4B06467C
:100300000F46002240464946DFF82C81C04702468E
:100310000B4630463946494EB04710B1069B9C42C9
:1003200002DD0BF1010BC0E7BBF1020F01D1444B21
:1003300098470AF10406002356F83580009356F8D2
:1003400034205AF834103F4F5AF835904FF07E530E
:100350000AA8B8470A9A0B9B3B4F0992114608938B
:100360004846B847089B4AF8350019464046B84702
:10037000099A46F835001146344F4846B847089B5D
:100380004AF8340019464046B847214F46F8340031
:100390005846B847DFF89480214E0B4602464FF08E
:1003A00080410020C047B047013494FBF0F303FBC9
:1003B00010400135002894D1DDE9022300204FF0E0
:1003C0008041C04702460B46CDE904232846B84782
:1003D000DFF85C90DDE90423C847B047DDE902237C
:1003E00005464FF080410020C04702460B46CDE94C
:1003F00004232046B847DDE90423C847B0470490EA
:100400006EE700BFAFF30080EF39FAFE422EE63F01
:10041000E1234000810C400009274000ED0B400023
:10042000152A40001D02400065074000F50C400001
:10043000492140000000F03F45214000AD29400027
:1004400045074000212F4000712A40006D2A4000DE
:1004500010B50023934200DB10BDC45C303C41F872
:1004600023400133F6E70000B0B500AFADF5806D75
:1004700004460D4668464FF48061084B984708488B
:10048000084B98472A4621466846074B9847074B32
:10049000294620469847BD46B0BD00BF6D014000CB
:1004A000D74140005501400051044000A9014000DF
:1004B0002DE9F84F1A4B1B4F98471B4B98471B4B86
:1004C00098474FF000082020B84720220021184B01
:1004D000DFF860A0DFF86090054698471748184B92
:1004E0009847184B0821284698474020B8470024D1
:1004F000064600F1040B4BF8348055F82400D04731
:100500000021C84746F834000134082CF3D13046A6
:100510000D4B214698470D4B28469847D3E700BF1F
:10052000E9054000B5334000810640002507400042
:1005300009354000D92B4000712A4000AC414000F1
:10054000550140006904400071024000C53340007D
:10055000FEE7000019491A48814210B520D9194B0D
:10056000DA1C121A22F00302C41EA34238BF002272
:10057000154B984700BF154B1548DA1C121AC11EBF
:1005800022F00302994288BF0022124B00219847B3
:10059000114B124A9A60124B9847124B9847FEE74C
:1005A000E8D2084B0A1F181A1044C1F10401C842CE
:1005B000E0D050F8042943F8042DF8E74C424000FD
:1005C000000000206C000020D5334000980000207F
:1005D0006C0000200935400000ED00E00000400004
:1005E0006D334000B1044000184B4FF4004270B529
:1005F00000205A65164D174C174EA8470120A847F2
:100600000520A847154B002098471548A047154BD3
:1006100000209847144B3E2101209847B0470028FE
:10062000FCD0124B00209847114B98471148A04727
:10063000114A136823F0806313600B20A847BDE8BC
:1006400070400E4B4FF060510F20184700140E40C1
:10065000910B40004D0A4000810B4000D10B40003F
:10066000000E2707B10A4000350B4000F10A400098
:100670008109400010757000000A0E40D508400046
:100680001FB5104B104C4FF46132CDE901324FF4DD
:100690000063039308200D4B984701A90C4B20469B
:1006A000984720460B4B98470B4B204698470B4CDE
:1006B0000B490920A0474FF000610A20A04704B071
:1006C00010BD00BF90AD710000060E40910B4000C0
:1006D00085074000BF074000B9074000D50840002B
:1006E0000100000870B5044E044D04462146304612
:1006F000A8470028FAD170BD00060E40C50740008B
:1007000037B5064D064C0DF107012846A0470028D5
:10071000F9D19DF8070003B030BD00BF00060E40C0
:10072000D307400010B5054B0B209847BDE810409B
:10073000034B4FF040510720184700BF910B40007A
:10074000D508400010B5054B07209847BDE810407C
:10075000034B4FF040510720184700BFBB08400033
:10076000D508400010B5054B07209847BDE810405C
:10077000034B4FF060510720184700BFA10840000D
:10078000D5084000AC2310B50360D1E90032B3FBBB
:10079000F2F31B095C1E4FF6FE7294420AD8036204
:1007A0008B68436040F20223C0F82031502303607D
:1007B000002010BD0120FCE7402303607047102398
:1007C0000360704743699B0746BFC1610020012059
:1007D00070474369DB0743BF83690B70002001202A
:1007E0007047B1F1C05F426426D007D8B1F1006F05
:1007F00012D0B1F1805F1CD061B97047B1F1005FD8
:1008000023D007D3B1F1405F05D021F08051B1F181
:10081000205F00D042607047016F036F0B4023EAF6
:1008200002030367416F436F0B4023EA02034367F0
:10083000F0E7036F1343F4E7016F036F0B4023EA04
:1008400002030367436F1343F1E7036F1343F8E7B2
:10085000D30741644CBF4166016612F00A0F14BF12
:1008600001624162930704D5C0F8801041610160C4
:100870007047130748BFC0F88410F7E710B5029C13
:1008800041643CB141663BB101653AB1016301612C
:10089000016010BD0166F6E74165F6E74163F6E7E2
:1008A000430903F5001303F207735B0200F01F0016
:1008B000012202FA00F018637047430903F50013A0
:1008C00003F207735B0200F01F00012202FA00F03E
:1008D0005863704773B5044640090D4600F5001093
:1008E00001F0F04100F20770B1F1005F4FEA4020E3
:1008F0001ED00CD8B1F1805F1AD0B1F1C05F17D013
:10090000B1F1006F14D00026304602B070BD05F082
:10091000E043B3F1405F19D0B1F1205FF3D104F0AF
:100920001F040126134B2A4606FA04F19847EBE709
:1009300004F01F02012404FA02F20F4B984715EA53
:10094000040612BF426602662646DDE705F06052E5
:10095000012602F1484105EA06034A4204F01F0459
:1009600000934A41C5F3800306FA04F1034CA04703
:10097000CAE700BF51084000E30740007D0840007F
:1009800010B52C4A2C4B116B01F0030101292AD020
:10099000023901291DD8116ACC0148D427491960B0
:1009A000116A01F0700110293ED020293FD0106B50
:1009B000196800F0030002280BBF946AD46A906A99
:1009C000D06AC4F30A4404FB0111C0B2B1FBF0F1D8
:1009D00007E01B49496A08064CBF4FF400414FF439
:1009E000FA4119600DE0116AC90101D51549F8E70E
:1009F00012491960116A01F07001102912D02029E2
:100A0000F4D0106B196800F0700070281BBF126BD7
:100A1000C2F30212032221FA02F208BFB1FBF2F282
:100A20001A6010BD0849DCE707491960BFE70549AE
:100A3000FBE700BF00040E400000002000093D005D
:100A400000140E40001BB70000127A000E4B9842B3
:100A50000E4B03D84FF080621A6070470C4A9042E8
:100A600001D20C4AF8E70C4A904201D20B4AF3E754
:100A70000B4A904201D80B4AEEE70B4A90428CBFDA
:100A80000A4A4FF00422E7E7FF2C3101000A0E402A
:100A9000005A620200010004008793030002000470
:100AA000FFB3C40400030004FFE0F50500050004E3
:100AB0000E4B1A6B22F003021A6340F60102996E84
:100AC00009070BD51A6B22F070021043186340F629
:100AD0000102996E090705D500207047013AEED151
:100AE00001207047013AF4D1FAE700BF00040E403C
:100AF0000F4B1A6B22F0030242F001021A6340F618
:100B00000102996E09070BD51A6B22F0700210438F
:100B1000186340F60102996E090705D50020704759
:100B2000013AEED101207047013AF4D1FAE700BF53
:100B300000040E400F4A30B1136A0F4919400F4BA1
:100B40000B4313627047106A0B0220F45C119BB2D6
:100B500021F003010B4343F45C1343F001031362E0
:100B6000936EDB07FCD5136A43F09B7343F4803329
:100B7000E7E700BF00040E40FCFFC8FE020037019B
:100B8000024B986E00F48030704700BF00040E40A6
:100B9000222818D81F280D4A4FF0010308D8916960
:100BA00003FA00F030EA010300D010610020704722
:100BB000D2F80811203803FA00F030EA0103F5D02A
:100BC000C2F80001F2E70120704700BF00040E40A8
:100BD000034B18B1034AC3F8E4207047024AFAE70E
:100BE00000040E4001434D5000434D5038B5C1F351
:100BF0000A55A5F2FF32132A0B4684468E46044658
:100C00001EDC002A0EDB1D49114103EA01002043CE
:100C100013D04FF4002343FA02F296442EEA010E59
:100C2000002408E001F0004E013204BF4EF07F5E68
:100C30004EF4401E00247346A4466046194638BD53
:100C4000332A08DDB2F5806FF7D1024601F07CFA55
:100C500084460B46F1E7A5F213454FF0FF3121FA28
:100C600005F52842E9D00123C2F1330203FA02F26A
:100C7000841828BF9E4424EA0504DCE7FFFF0F0028
:100C8000F8B504460D4600F0F7F8174B93F900301D
:100C9000013306460F461AD022462B4620462946E7
:100CA00001F0A2FE98B9002200232046294601F057
:100CB00091FE60B9002200232046294601F062FE21
:100CC00040B102F04DFB094F22230360002630465D
:100CD0003946F8BD02F044FB034621221A6004485D
:100CE000BDE8F84001F00CB9040000200000F0FF5E
:100CF000144240002DE9F8431D4606460F461446AF
:100D000000F0BAFA574B93F9003001338046894618
:100D10002AD022462B462046294601F065FE18BB04
:100D200032463B463046394601F05EFE002841D14E
:100D3000002200233046394601F024FEC0B10022D3
:100D400000232046294601F01DFE00283AD1204606
:100D5000294601F0CFF838B1204629460022002369
:100D600001F01AFE002859D140464946BDE8F883F3
:100D70004046494601F0BEF860B3002200234046D9
:100D8000494601F0FFFD0028EED03046394601F01B
:100D9000B1F80028E8D02046294601F0ABF8002839
:100DA000E2D002F0DDFA222303604FF000084FF09A
:100DB0000009D9E7204629460022002301F0E2FD80
:100DC0000028D1D0DFF8A0904FF0000840464946F7
:100DD000BDE8F8833046394601F08CF80028CCD0C5
:100DE0002046294601F086F80028C6D042464B46E8
:100DF0004046494601F0F8FD30BB02F0B1FA034627
:100E000022221A60304639460022002301F0C4FD38
:100E10004FF0000858B9DFF85490A5E702F0A0FAA7
:100E20002123DFF84C9003604FF000089CE7204638
:100E3000294601F06BF822462B4601F0A3FD00285D
:100E4000E9D1DFF82C908FE702F08AFA0022002324
:100E5000212101601046194601F056FC8046894662
:100E600082E700BF040000200000F03F0000F07F98
:100E70000000F0FF000000002DE9F04FB1F5801FE9
:100E800087B002460B460F4658DA21F0004404436F
:100E900000F0F8800029C0F23281D74B002201F027
:100EA00009FB0F460B46D5498F4202466FF03500CD
:100EB00049DC3E15C7F3130707F51521A6F2FF36E7
:100EC00001F66471064401F4801106EB115681F0BD
:100ED0007F5181F4401141EA070310461946002270
:100EE000C74B01F02FF9BB1CC3F31303022B82463F
:100EF0008B462FDC0022002301F044FD002800F087
:100F0000CA80002E00F04B81304601F069FAA6A39A
:100F1000D3E9002306460F4601F0CCFAA4A3D3E997
:100F2000002304460D463046394601F0C3FA024616
:100F30000B462046294601F007F908E0AF498F42E9
:100F40004FF00000B5DD1046194601F0FDF807B07E
:100F5000BDE8F08FA7F5C223A3F27A4301930022E4
:100F60004FF0804301F0F0F802460B4650465946D8
:100F700001F0CAFB044630460D4601F031FA224624
:100F8000CDE904012B4620462946CDE9024501F072
:100F900091FA02460B468046894601F08BFA86A3F9
:100FA000D3E9002304460D4601F084FA84A3D3E973
:100FB000002301F0C9F822462B4601F07BFA82A3F8
:100FC000D3E9002301F0C0F822462B4601F072FA63
:100FD0007FA3D3E9002301F0B7F842464B4601F066
:100FE00069FA7DA3D3E90023804689462046294635
:100FF00001F060FA7AA3D3E9002301F0A5F82246B4
:101000002B4601F057FA78A3D3E9002301F09CF8AE
:1010100022462B4601F04EFA0B4602464946404610
:1010200001F092F8C7F5D727019B51371F43002FD6
:101030008046894655DD734B00225046594601F0E3
:1010400039FA52465B4601F035FA04460D46002E49
:101050005CD122462B464046494601F075F8DDE951
:10106000022301F027FA02460B462046294601F0EA
:1010700069F802460B465046594601F063F807B03E
:10108000BDE8F08F002200235F49002001F03CFB07
:1010900007B0BDE8F08F56A3D3E900235046594668
:1010A00001F008FA02460B460020564901F04AF8C2
:1010B000524604460D465B465046594601F0FAF941
:1010C00002460B462046294601F0F4F904460D4637
:1010D000002E50D102460B465046594601F032F8D8
:1010E00035E7002E40F0928002460B4650465946A6
:1010F00001F028F8DDE9022301F0DCF9B9E701F09D
:1011000021F80022002301F0FFFA20E726A3D3E90B
:101110000023DDE9040101F0CDF922462B46064605
:101120000F464046494601F00FF8DDE9022301F081
:10113000C1F91FA3D3E9002380468946DDE90401F4
:1011400001F0B8F902460B464046494600F0FCFF64
:1011500002460B462046294600F0F4FF52465B4605
:1011600000F0F0FF02460B463046394600F0EAFF39
:1011700007B0BDE8F08F304601F032F90AA3D3E999
:1011800000238046894601F095F909A3D3E900239D
:1011900006460F464046494601F08CF9D8E7002044
:1011A0000021D4E6AFF300800000E0FE422EE63FCF
:1011B000763C7935EF39EA3D44523EDF12F1C23FC9
:1011C000DE03CB966446C73F599322942449D23F0D
:1011D000935555555555E53F9FC678D0099AC33F5D
:1011E000AF788E1DC571CC3F04FA97999999D93F74
:1011F000555555555555D53F00005043FFFFEF7FDE
:101200000000F03F0000E03F000050C316A3D3E908
:101210000023DDE9040101F04DF942464B46044646
:101220000D465046594600F08DFFDDE9022301F0DE
:1012300041F90FA3D3E9002306460F46DDE9040177
:1012400001F038F902460B463046394600F07AFF85
:1012500052465B4600F076FF02460B462046294682
:1012600000F070FF73E600BF0000E0FE422EE63F94
:10127000763C7935EF39EA3D2DE9F04F99469046B5
:1012800029F000451E46134655EA080293B035D0B2
:101290006B4A009021F00044944283468A460F46F0
:1012A00025DC34D0954222DC654A95421DD0002FC2
:1012B00036DB00220292002B4CD1614B9D4200F0A4
:1012C0009780604B9D4200F0A580B6F1804F00F002
:1012D000AF845D4B9E423DD1002F3BDB58465146CB
:1012E00013B0BDE8F04F00F03BBD002BDFD0009BFA
:1012F00004F1404404F5801423430BD1514C0023E6
:10130000CDE90034DDE9000113B0BDE8F08F08B984
:10131000A542C9DD4D4813B0BDE8F04F00F0F0BD67
:101320004B4A95427EDCA2F1547295420EDD2A159D
:10133000A2F2FF32142A40F38584C2F1340223FA68
:1013400002F101FA02F29A4200F0D28400220292E3
:10135000002BB6D05846514600F0C8FD5B46CDE99B
:10136000000133BB24B1374B27F040429A4220D1D1
:10137000002E07DADDE900233249002001F0C4F92C
:10138000CDE90001002FBDDA029B04F1404404F5D1
:101390008014234340F07B84DDE900231046194686
:1013A00000F0D0FE02460B4601F0AEF9CDE9000197
:1013B000A8E7029AFB0F013B0A93134335D0254B54
:1013C0009D424BDD03F104739D42234B40F3C083E8
:1013D0009C4240F35083002E40F3508316A3D3E980
:1013E00000231046194601F065F8CDE9000189E7B0
:1013F000009A04F1404303F5801313433FF47EAF9A
:10140000154B9C4240F36483002EC0F23783CDE934
:10141000008977E7002EC0F2018458465146CDE995
:1014200000016FE70222029245E75A4658465346AA
:101430005146B5E7AFF300809C7500883CE4377EE9
:101440000000F07F0000F03F0000E03F1442400049
:10145000FFFF3F430000E041FFFFEF3FD44B3B4025
:10146000002B40F03D83DDE90001D24B002201F06A
:1014700021F8CDE900010C466FF034052315A3F2E5
:10148000FF335919CC4B0B91C4F3130242F07F5434
:101490009A4244F4401407DDC84B9A4240F3048456
:1014A00001310B91A4F5801400220023CDE908231B
:1014B000CDE91023C24B0022CDE906230025DDE94A
:1014C0000001DDE906232146824600F03BFEA346EB
:1014D000DDE9062306460F4650462146CDE90CAB12
:1014E00000F032FE02460B460020B54901F00CF92F
:1014F0000A460146CDE90E121346394602463046E9
:1015000000F0D8FF0A4683469446CDE900BC4FF070
:10151000000CCDF800C06410DDE900AB44F00054CD
:10152000014604F50023CDE90412002059190446B0
:101530000D4602460B465046594600F0BBFF024698
:101540000B463046394600F0FDFDDDE90623064630
:101550000F462046294600F0F5FD02460B46DDE920
:101560000C0100F0EFFD52465B4600F0A3FF02467F
:101570000B463046394600F0E5FDDDE90E2300F06C
:1015800099FFDDE90445CDE9060122462B462046B8
:10159000294600F08FFF74A3D3E9002304460D46CB
:1015A00000F088FF72A3D3E9002300F0CDFD2246AE
:1015B0002B4600F07FFF70A3D3E9002300F0C4FDA9
:1015C00022462B4600F076FF6DA3D3E9002300F0FE
:1015D000BBFD22462B4600F06DFF6BA3D3E9002331
:1015E00000F0B2FD22462B4600F064FF68A3D3E969
:1015F000002300F0A9FD224606460F462B46204652
:10160000294600F057FF02460B463046394600F0A7
:1016100051FF524604460D465B46DDE9040100F0E9
:1016200093FDDDE9062300F045FF22462B4600F03E
:101630008BFD524606460F465B465046594600F023
:1016400039FF02460B46CDE90C235E4B002200F029
:101650007BFD32463B4600F077FD00240D462246D6
:101660002B465046594600F025FF564B82468B4686
:1016700000222046294600F065FDDDE90C2300F03C
:1016800061FD02460B463046394600F05BFDDDE960
:10169000042300F00FFF224606460F462B46DDE9E5
:1016A000060100F007FF02460B463046394600F0BF
:1016B0004BFD06460F4602460B465046594600F083
:1016C00043FD002434A3D3E9002320460D4600F057
:1016D000F1FE52465B4682468B462046294600F084
:1016E00031FD02460B463046394600F02BFD2CA357
:1016F000D3E9002300F0DEFE2BA3D3E90023064646
:101700000F462046294600F0D5FE02460B463046DD
:10171000394600F019FDDDE9102300F015FD0446FF
:101720000B980D4600F05CFE224606460F462B46FF
:1017300050465946CDE9044500F006FDDDE9082391
:1017400000F002FD32463B4600F0FEFC002432462B
:101750003B4620460D4600F0F5FCDDE9082300F08D
:10176000F1FC52465B462FE0EF4E454A287ECA3FC9
:1017700065DBC9934A86CD3F01411DA96074D13F05
:101780004D268F515555D53FFFAB6FDBB66DDB3F17
:10179000033333333333E33F000000E009C7EE3F48
:1017A000FD033ADC09C7EE3FF5015B14E02F3EBEB6
:1017B0000000F07F000040438E98030079B60B00D4
:1017C0000000F03F0000084000F0BCFC02460B4661
:1017D000DDE9040100F0B6FCCDE90401029B0A9AA0
:1017E000013B13430CBFD44BD44B0022CDE9022361
:1017F0000023CDE900890093DDE900AB4046524665
:101800005B46494600F09EFC22462B4600F052FE05
:10181000424606460F464B46DDE9040100F04AFE0B
:1018200002460B463046394600F08EFC52460646CC
:101830000F465B462046294600F03CFE0B4602461A
:1018400004460D463046394600F07EFCBC4B9942BA
:10185000804689468A4640F3168101F13F4303F5ED
:10186000E003034340F003829FA3D3E90023304603
:10187000394600F069FC2246CDE900012B4640467E
:10188000494600F05FFC02460B46DDE9000101F02D
:10189000A1F8002840F0EB81CAF30A534FF48012FC
:1018A000A3F2FE3342FA03F35344A649C3F30A52A8
:1018B000A2F2FF3241FA02FCC3F31301C2F1140297
:1018C00041F4801141FA02FE002023EA0C01BAF132
:1018D000000FCDF810E002460B4602DA714649428D
:1018E00004912046294600F02DFC049B1B05009323
:1018F00002460B4604460D463046394600F024FCAD
:1019000089464FF000087AA3D3E9002340464946B0
:1019100000F0D0FD224682468B462B464046494683
:1019200000F010FC02460B463046394600F00AFC37
:1019300071A3D3E9002300F0BDFD71A3D3E9002317
:1019400004460D464046494600F0B4FD02460B46AB
:101950002046294600F0F8FB06460F4602460B4695
:101960005046594600F0F0FB52465B4604460D4691
:1019700000F0E8FB02460B463046394600F0E2FB39
:10198000224682468B462B462046294600F092FD91
:101990005DA3D3E9002306460F4600F08BFD5CA350
:1019A000D3E9002300F0CEFB32463B4600F082FD37
:1019B00059A3D3E9002300F0C7FB32463B4600F0B1
:1019C00079FD57A3D3E9002300F0BCFB32463B4628
:1019D00000F070FD54A3D3E9002300F0B5FB3246BC
:1019E0003B4600F067FD02460B462046294600F0C4
:1019F000A9FB06460F4602460B462046294600F044
:101A000059FD002280468946304639464FF08043D2
:101A100000F098FB02460B464046494600F074FE33
:101A2000524606460F465B462046294600F042FDD8
:101A300052465B4600F088FB02460B46304639466C
:101A400000F080FB22462B4600F07CFB02460B4652
:101A500000203A4900F076FB009D0C462C44B4F57A
:101A6000801FC0F241812146DDE9022300F022FD02
:101A7000CDE9000146E4002EFFF6B0AC00230024BF
:101A8000CDE900343EE4DFF8C0C021F000436345F7
:101A900040F3E5802D4B0B4403430AD122462B46ED
:101AA00000F050FB32463B4600F08AFF00283FF42E
:101AB000F3AE1FA3D3E90023DDE9020100F0FAFC35
:101AC0001BA3D3E9002300F0F5FCCDE9000119E4E4
:101AD000002ED3DA09F10043CDF80080019311E420
:101AE0000025CBE4AFF30080FE822B654715973CC1
:101AF00000000000432EE63FEF39FAFE422EE63F9B
:101B0000396CA80C615C20BED0A4BE726937663EF9
:101B1000F16BD2C541BDBB3E2CDE25AF6A56113FED
:101B200093BDBE166CC1663F3E5555555555C53FD4
:101B300059F3F8C21F6EA5010000F0BF0000F03F8E
:101B4000FFFF8F40FFFF0F00FFCB904000346F3F3F
:101B50009C4290DB7E4B9C423FF73DACDDE90001AF
:101B60007B4B002200F0EEFA6BA3D3E9002304467E
:101B70000D4600F09FFC6AA3D3E9002382468B4602
:101B80002046294600F096FC724BCDE90001002268
:101B90002046294600F08EFC02460B4662A1D1E9A0
:101BA000000100F0CFFA22462B4600F083FC0246EB
:101BB0000B460020684900F0C5FA224606460F464B
:101BC0002B462046294600F075FC02460B4630465F
:101BD000394600F06FFC56A3D3E9002300F06AFCFD
:101BE00002460B46DDE9000100F0ACFA02460B4666
:101BF00006460F465046594600F0A6FA00245246C3
:101C00005B4620460D4600F09DFA02460B463046E4
:101C1000394600F097FACDE90401DFE54C495A4610
:101C20005346002000F070FDCDE90001FFF76ABBCC
:101C30005A4658465346514600F03CFCCDE9000157
:101C4000FFF760BB002B41D1C2F1140245FA02F14B
:101C500001FA02F2AA4255D00293FFF732BB3E4A84
:101C6000934256DCDDE900230092049249E632A358
:101C7000D3E90023DDE9020100F01CFC2EA3D3E927
:101C8000002300F017FCCDE90001FFF73BBB029BEE
:101C9000012B7FF437ABDDE90045224605F1004317
:101CA000CDE90023FFF72EBB25A3D3E90023CDE91F
:101CB000082325A3D3E90023CDE91023274B0022D5
:101CC000CDE906234FF48025FFF7F9BB584651466E
:101CD00000F00CF95B46CDE90001002B7FF4A5ABC9
:101CE000CDF808B0FFF73EBB049A00F0ADF9BBE6B3
:101CF00001F00101C1F102020292002B3FF4E1AABE
:101D0000FFF728BB01F00101C1F102030293FFF7C5
:101D1000D8BA1B15C2E500BF000000604715F73FA9
:101D200044DF5DF80BAE543E555555555555D53FDE
:101D3000FE822B654715F73F9C7500883CE4377E93
:101D40000000004003B8E23F06D0CF43EBFD4C3E1D
:101D50000000F03F0000D03F0000E03F0000F83FEF
:101D6000614A8A432DE9F84305460C4600F09E80FF
:101D700000290B46844654DD091562D0C3F31303D2
:101D8000C807A1F2FF3743F4801304D45B0003EBD0
:101D9000DC734FEA4C0C4FEADC72002602EB430383
:101DA0007F104FEA4C0C4FF0160E34464FF40012E1
:101DB000A118994202DC5B1A8C1816445B00BEF134
:101DC000010E03EBDC734FEA52024FEA4C0CEFD1E9
:101DD000754620204FF000420AE043D04FEADC7104
:101DE000013801EB43034FEA4C0C4FEA520242D058
:101DF000A34202EB0E01F0DD002901EB020E0ADB2B
:101E0000A0461B1B614588BF03F1FF33ACEB010CFF
:101E100015444446E2E7BEF1000FF1DB04F101088E
:101E2000EFE721F00042024336D000294CD14FEABF
:101E3000DC22153913464FEA4C5C002AF7D0D60253
:101E40004CD400205B00DD02044600F10100F9D50E
:101E50001A4663460CFA00FCC0F12000C340091B7F
:101E600013438BE76145B9D8002901EB020ED2DBA1
:101E700098460023CAE753EA0C0311D1680873108F
:101E800003F17F5303F50013F20748BF40F0004011
:101E900003EB075905464C4628462146BDE8F88322
:101EA000691C16BF681C01364008E8E702460B466D
:101EB00000F000FB2A46234600F046F905460C4692
:101EC00028462146BDE8F883024600F03BF9024669
:101ED0000B4600F019FC05460C46DDE76346202062
:101EE0004FF0FF34BAE700BF0000F07F21F000415F
:101EF000704700BF41F0004000F58010C00F7047F0
:101F000001490020704700BF0000F87FF0B5C1F321
:101F10000A55A5F2FF3CBCF1130F83B002460B46F5
:101F20000C4686464FEAD17665DCBCF1000F30DB0B
:101F3000424941FA0CF103EA0100104361D003EA7F
:101F4000510352EA030E4FEA51010DD024EA010178
:101F50004FF48024BCF1130F44FA0CF40CBF4FF083
:101F6000004E4FF0000E0C43354901EBC6062346E8
:101F7000D6E9004572462046294600F0E5F8CDE94D
:101F80000001DDE9000122462B4600F0DBF803B03A
:101F9000F0BD21F0004101431946F8D0C3F313030B
:101FA00043EA000E264ACEF1000343EA0E0302EB99
:101FB000C606D6E90067620C1B0B03F4002352042B
:101FC00043EA02010B4602463946304600F0BCF8AF
:101FD000CDE9000132463B46DDE9000100F0B2F8F0
:101FE00004F0004421F00041024641EA0403104697
:101FF000194603B0F0BDBCF1330F06DDBCF5806FB0
:1020000018D01046194603B0F0BDA5F213454FF0A5
:10201000FF31E9400842F4D010EA51024FEA51037F
:10202000A2D04FF0804E20EA03034EFA05F543EAB2
:10203000050E99E700F088F8A9E700BFFFFF0F0041
:10204000E041400000000000C1F30A5370B58C4627
:1020500004460D4616467BBB21F0004C03465CEA65
:10206000030328D0304B002200F024FA2F4B9E426D
:1020700004460D461ADBC1F30A538C46363B334403
:1020800040F2FE72934220DC002B3CDC13F1350F52
:102090002CDA4CF250339E4217DC05F0004343F03B
:1020A000D27141F4B731224841F01F011AA3D3E99C
:1020B000002300F0FFF970BD40F2FF729342DED1C1
:1020C00002460B4600F040F870BD05F0004343F0B7
:1020D000FC4141F45F1141F4105111A3D3E90023F5
:1020E000144841F03C0100F0E5F970BD2CF0FF4CC4
:1020F00036332CF4E00C4CEA035120460E4B002200
:1021000000F0D8F970BD2CF0FF4C2CF4E00C204608
:102110004CEA035170BD00BF59F3F8C21F6EA50110
:102120009C7500883CE4377E00005043B03CFFFFC4
:1021300059F3F8C29C7500880000903C81F0004182
:1021400002E000BF83F0004330B54FEA41044FEA9C
:10215000430594EA050F08BF90EA020F1FBF54EA37
:10216000000C55EA020C7FEA645C7FEA655C00F0D3
:10217000E2804FEA5454D4EB5555B8BF6D420CDDA4
:102180002C4480EA020281EA030382EA000083EA27
:10219000010180EA020281EA0303362D88BF30BDC7
:1021A00011F0004F4FEA01314FF4801C4CEA11311D
:1021B00002D0404261EB410113F0004F4FEA03337C
:1021C0004CEA133302D0524263EB430394EA050F07
:1021D00000F0A780A4F10104D5F1200E0DDB02FA76
:1021E0000EFC22FA05F2801841F1000103FA0EF20A
:1021F000801843FA05F359410EE0A5F120050EF1D0
:10220000200E012A03FA0EFC28BF4CF0020C43FA00
:1022100005F3C01851EBE37101F0004507D54FF00D
:10222000000EDCF1000C7EEB00006EEB0101B1F55D
:10223000801F1BD3B1F5001F0CD349085FEA3000A3
:102240004FEA3C0C04F101044FEA445212F5800FAE
:1022500080F09A80BCF1004F08BF5FEA500C50F14B
:10226000000041EB045141EA050130BD5FEA4C0C2E
:10227000404141EB0101013C28BFB1F5801FE9D28B
:1022800091F0000F04BF01460020B1FA81F308BFAE
:102290002033A3F10B03B3F120020CDA0C3208DD7A
:1022A00002F1140CC2F10C0201FA0CF021FA02F155
:1022B0000CE002F11402D8BFC2F1200C01FA02F1C5
:1022C00020FA0CFCDCBF41EA0C019040E41AA2BFEA
:1022D00001EB0451294330BD6FEA04041F3C1CDAB2
:1022E0000C340EDC04F11404C4F1200220FA04F0D2
:1022F00001FA02F340EA030021FA04F345EA03017C
:1023000030BDC4F10C04C4F1200220FA02F001FA3D
:1023100004F340EA0300294630BD21FA04F02946BF
:1023200030BD94F0000F83F4801306BF81F4801158
:102330000134013D4EE77FEA645C18BF7FEA655CCB
:1023400029D094EA050F08BF90EA020F05D054EA9D
:10235000000C04BF1946104630BD91EA030F1EBFA2
:102360000021002030BD5FEA545C05D140004941A6
:1023700028BF41F0004130BD14F580043CBF01F599
:10238000801130BD01F0004545F0FE4141F470017F
:102390004FF0000030BD7FEA645C1ABF194610465A
:1023A0007FEA655C1CBF0B46024650EA013406BF5B
:1023B00052EA033591EA030F41F4002130BD00BF1A
:1023C00090F0000F04BF0021704730B54FF48064D7
:1023D00004F132044FF000054FF0000150E700BF58
:1023E00090F0000F04BF0021704730B54FF48064B7
:1023F00004F1320410F0004548BF40424FF00001A4
:102400003EE700BF42004FEAE2014FEA31014FEAE6
:1024100002701FBF12F07F4393F07F4F81F0605135
:10242000704732F07F4208BF704793F07F4F04BF80
:1024300041F40021704730B54FF4607401F000455D
:1024400021F000411CE700BF50EA010208BF7047BD
:1024500030B54FF000050AE050EA010208BF7047AE
:1024600030B511F0004502D5404261EB41014FF417
:10247000806404F132045FEA915C3FF4D8AE4FF01F
:1024800003025FEADC0C18BF03325FEADC0C18BF02
:10249000033202EBDC02C2F1200300FA03FC20FA53
:1024A00002F001FA03FE40EA0E0021FA02F11444A0
:1024B000BDE600BF70B54FF0FF0C4CF4E06C1CEAB9
:1024C00011541DBF1CEA135594EA0C0F95EA0C0F2A
:1024D00000F0DEF82C4481EA030621EA4C5123EA9D
:1024E0004C5350EA013518BF52EA033541F48011CC
:1024F00043F4801338D0A0FB02CE4FF00005E1FB7F
:1025000002E506F00042E0FB03E54FF00006E1FBC8
:1025100003569CF0000F18BF4EF0010EA4F1FF040B
:10252000B6F5007F64F5407404D25FEA4E0E6D414B
:1025300046EB060642EAC62141EA55514FEAC5205C
:1025400040EA5E504FEACE2EB4F1FD0C88BFBCF5D8
:10255000E06F1ED8BEF1004F08BF5FEA500E50F189
:10256000000041EB045170BD06F0004646EA01014F
:1025700040EA020081EA0301B4EB5C04C2BFD4EB81
:102580000C0541EA045170BD41F480114FF0000E7A
:10259000013C00F3AB8014F1360FDEBF002001F0E8
:1025A000004170BDC4F10004203C35DA0C341BDC62
:1025B00004F11404C4F1200500FA05F320FA04F034
:1025C00001FA05F240EA020001F0004221F0004168
:1025D00010EBD37021FA04F642EB06015EEA430EDB
:1025E00008BF20EAD37070BDC4F10C04C4F120050B
:1025F00000FA04F320FA05F001FA04F240EA0200BE
:1026000001F0004110EBD37041F100015EEA430E8E
:1026100008BF20EAD37070BDC4F1200500FA05F2AE
:102620004EEA020E20FA04F301FA05F243EA02032D
:1026300021FA04F001F0004121FA04F220EA02003C
:1026400000EBD3705EEA430E08BF20EAD37070BD82
:1026500094F0000F0FD101F00046400041EB010162
:1026600011F4801F08BF013CF7D041EA060195F044
:10267000000F18BF704703F00046520043EB0303FE
:1026800013F4801F08BF013DF7D043EA06037047EB
:1026900094EA0C0F0CEA135518BF95EA0C0F0CD0F6
:1026A00050EA410618BF52EA4306D1D181EA03013C
:1026B00001F000414FF0000070BD50EA410606BF36
:1026C0001046194652EA430619D094EA0C0F02D17B
:1026D00050EA013613D195EA0C0F05D152EA0336C0
:1026E0001CBF104619460AD181EA030101F00041DE
:1026F00041F0FE4141F470014FF0000070BD41F027
:10270000FE4141F4780170BD70B54FF0FF0C4CF400
:10271000E06C1CEA11541DBF1CEA135594EA0C0F1F
:1027200095EA0C0F00F0A7F8A4EB050481EA030E6C
:1027300052EA03354FEA013100F088804FEA033353
:102740004FF0805545EA131343EA12634FEA022221
:1027500045EA111545EA10654FEA00260EF00041E2
:102760009D4208BF964244F1FD0404F5407402D234
:102770005B084FEA3202B61A65EB03055B084FEAC5
:1027800032024FF480104FF4002CB6EB020E75EBC2
:10279000030E22BFB61A754640EA0C005B084FEAEA
:1027A0003202B6EB020E75EB030E22BFB61A754667
:1027B00040EA5C005B084FEA3202B6EB020E75EBB2
:1027C000030E22BFB61A754640EA9C005B084FEA2A
:1027D0003202B6EB020E75EB030E22BFB61A754637
:1027E00040EADC0055EA060E18D04FEA051545EA26
:1027F00016754FEA06164FEAC30343EA52734FEACF
:10280000C2025FEA1C1CC0D111F4801F0BD141EA47
:1028100000014FF000004FF0004CB6E711F4801FAC
:1028200004BF01430020B4F1FD0C88BFBCF5E06F8C
:102830003FF6AFAEB5EB030C04BFB6EB020C5FEA9C
:10284000500C50F1000041EB045170BD0EF0004EF1
:102850004EEA113114EB5C04C2BFD4EB0C0541EA23
:10286000045170BD41F480114FF0000E013C90E620
:1028700045EA060E8DE60CEA135594EA0C0F08BFE4
:1028800095EA0C0F3FF43BAF94EA0C0F0AD150EAE3
:1028900001347FF434AF95EA0C0F7FF425AF104676
:1028A00019462CE795EA0C0F06D152EA03353FF49E
:1028B000FDAE1046194622E750EA410618BF52EA1B
:1028C00043067FF4C5AE50EA41047FF40DAF52EAEF
:1028D00043057FF4EBAE12E74FF0FF3C06E000BF8C
:1028E0004FF0010C02E000BF4FF0010C4DF804CD99
:1028F0004FEA410C7FEA6C5C4FEA430C18BF7FEA59
:102900006C5C1BD001B050EA410C0CBF52EA430C86
:1029100091EA030F02BF90EA020F0020704710F106
:10292000000F91EA030F58BF994208BF90422CBF95
:10293000D8176FEAE37040F0010070474FEA410C8E
:102940007FEA6C5C02D150EA013C07D14FEA430CAC
:102950007FEA6C5CD6D152EA033CD3D05DF8040B1D
:10296000704700BF8446104662468C46194663464F
:1029700000E000BF01B5FFF7B7FF002848BF10F126
:10298000000F01BD4DF808EDFFF7F4FF0CBF01206B
:1029900000205DF808FB00BF4DF808EDFFF7EAFFE7
:1029A00034BF012000205DF808FB00BF4DF808EDA2
:1029B000FFF7E0FF94BF012000205DF808FB00BF97
:1029C0004DF808EDFFF7CEFF94BF012000205DF821
:1029D00008FB00BF4DF808EDFFF7C4FF34BF01202E
:1029E00000205DF808FB00BF4FEA410C7FEA6C5CF9
:1029F00002D150EA013C0AD14FEA430C7FEA6C5CF9
:102A000002D152EA033C02D14FF0000070474FF070
:102A1000010070474FEA410212F5001215D211D59C
:102A20006FF47873B3EB625212D94FEAC12343F0CB
:102A3000004343EA505311F0004F23FA02F018BF4D
:102A4000404270474FF00000704750EA013005D116
:102A500011F0004008BF6FF0004070474FF00000D9
:102A6000704700BF80F0004002E000BF81F00041ED
:102A700042001FBF5FEA410392EA030F7FEA226C24
:102A80007FEA236C6AD04FEA1262D2EB1363C1BFB4
:102A9000D218414048404140B8BF5B42192B88BF23
:102AA000704710F0004F40F4000020F07F4018BF46
:102AB000404211F0004F41F4000121F07F4118BF66
:102AC000494292EA030F3FD0A2F1010241FA03FC0E
:102AD00010EB0C00C3F1200301FA03F100F00043F6
:102AE00002D5494260EB4000B0F5000F13D3B0F1BE
:102AF000807F06D340084FEA310102F10102FE2A2D
:102B000051D2B1F1004F40EBC25008BF20F001009C
:102B100040EA03007047490040EB0000013A28BF3B
:102B2000B0F5000FEDD2B0FA80FCACF1080CB2EBBE
:102B30000C0200FA0CF0AABF00EBC250524218433C
:102B4000BCBFD0401843704792F0000F81F40001E1
:102B500006BF80F400000132013BB5E74FEA4103B4
:102B60007FEA226C18BF7FEA236C21D092EA030F20
:102B700004D092F0000F08BF0846704790EA010F9A
:102B80001CBF0020704712F07F4F04D1400028BFC7
:102B900040F00040704712F100723CBF00F50000A9
:102BA000704700F0004343F0FE4040F400007047DF
:102BB0007FEA226216BF08467FEA2363014642028B
:102BC00006BF5FEA412390EA010F40F4800070479E
:102BD0004FF0000304E000BF10F0004348BF404244
:102BE0005FEA000C08BF704743F0964301464FF080
:102BF00000001CE050EA010208BF70474FF00003DC
:102C00000AE000BF50EA010208BF704711F000431C
:102C100002D5404261EB41015FEA010C02BF8446EC
:102C20000146002043F0B64308BFA3F18053A3F54B
:102C30000003BCFA8CF2083AA3EBC25310DB01FA92
:102C400002FC634400FA02FCC2F12002BCF1004F16
:102C500020FA02F243EB020008BF20F001007047A7
:102C600002F1200201FA02FCC2F1200250EA4C00FB
:102C700021FA02F243EB020008BF20EADC70704741
:102C80004FF0FF0C1CEAD0521EBF1CEAD15392EA4F
:102C90000C0F93EA0C0F6FD01A4480EA010C40022B
:102CA00018BF5FEA41211ED04FF0006343EA501085
:102CB00043EA5111A0FB01310CF00040B1F5000FC7
:102CC0003EBF490041EAD3715B0040EA010062F176
:102CD0007F02FD2A1DD8B3F1004F40EBC25008BF60
:102CE00020F00100704790F0000F0CF0004C08BF7E
:102CF00049024CEA502040EA51207F3AC2BFD2F14B
:102D0000FF0340EAC250704740F400004FF0000358
:102D1000013A5DDC12F1190FDCBF00F00040704792
:102D2000C2F10002410021FA02F1C2F1200200FAD0
:102D300002FC5FEA310040F1000053EA4C0308BF97
:102D400020EADC70704792F0000F00F0004C02BFE8
:102D5000400010F4000F013AF9D040EA0C0093F063
:102D6000000F01F0004C02BF490011F4000F013BBD
:102D7000F9D041EA0C018FE70CEAD15392EA0C0F2B
:102D800018BF93EA0C0F0AD030F0004C18BF31F096
:102D9000004CD8D180EA010000F00040704790F06C
:102DA000000F17BF90F0004F084691F0000F91F010
:102DB000004F14D092EA0C0F01D142020FD193EAD6
:102DC0000C0F03D14B0218BF084608D180EA01005E
:102DD00000F0004040F0FE4040F40000704740F03A
:102DE000FE4040F4400070474FF0FF0C1CEAD05208
:102DF0001EBF1CEAD15392EA0C0F93EA0C0F69D064
:102E0000A2EB030280EA010C49024FEA402037D0CE
:102E10004FF0805343EA111143EA10130CF00040C5
:102E20008B4238BF5B0042F17D024FF4000C8B42B5
:102E300024BF5B1A40EA0C00B3EB510F24BFA3EB95
:102E4000510340EA5C00B3EB910F24BFA3EB910365
:102E500040EA9C00B3EBD10F24BFA3EBD10340EABF
:102E6000DC001B0118BF5FEA1C1CE0D1FD2A3FF605
:102E700050AF8B4240EBC25008BF20F001007047BA
:102E80000CF0004C4CEA50207F32C2BFD2F1FF035D
:102E900040EAC250704740F400004FF00003013A8E
:102EA00037E792F0000F00F0004C02BF400010F432
:102EB000000F013AF9D040EA0C0093F0000F01F046
:102EC000004C02BF490011F4000F013BF9D041EA68
:102ED0000C0195E70CEAD15392EA0C0F08D142029B
:102EE0007FF47DAF93EA0C0F7FF470AF084676E76E
:102EF00093EA0C0F04D14B023FF44CAF08466EE747
:102F000030F0004C18BF31F0004CCAD130F0004214
:102F10007FF45CAF31F000437FF43CAF5FE700BF6C
:102F20002DE9F04F8B4687B01946054658461646A0
:102F30001F46FFF7A5FE109980463046FFF7A0FE1A
:102F4000109981465846FFF79BFE31468246384627
:102F5000FFF796FE494602904046FFF787FD02992B
:102F600004465046FFF784FD21460190204600F0BC
:102F7000E1F930B9019B2C6028466B6007B0BDE8D1
:102F8000F08F0199084600F0D5F90028F2D02BF017
:102F9000004318469E49039300F0CCF9039B4FF081
:102FA000010240B918469A49049200F0A5F9DDE9FA
:102FB000033200B9024682F00102D2B2944904926F
:102FC0001846039300F0B6F938B9039B90491846A8
:102FD00000F092F9002800F0898026F000438C4927
:102FE0000393184600F0A6F930B9039B88491846A8
:102FF00000F082F9002879D00023059327F00043E0
:1030000083490393184600F095F9002840F09D800D
:103010007F49039800F070F9002840F09680109BDB
:1030200023F000430493DDF80C807949404600F01A
:1030300081F94FF0010428B97549404600F05CF968
:1030400000B9044684F0010000F00100FFF7C4FD60
:10305000DDF810806E4960F31E07404600F06AF903
:103060004FF0010428B96A49404600F045F900B91B
:10307000044684F0010000F00100FFF7ADFD109B55
:10308000594660F31E035846109300F053F9002888
:1030900040F0CA803146304600F04CF9002840F03C
:1030A000C08039465846FFF7EBFD1099044630467C
:1030B000FFF7E6FD01462046FFF7D8FC4FF0FF4141
:1030C000FFF7DEFD109904465846FFF7D9FD394653
:1030D00080463046FFF7D4FD01464046FFF7C8FC66
:1030E0004FF0FF41FFF7CCFD019043E70498FFF755
:1030F00073FD26F000434649039360F31E0B184608
:1031000000F018F94FF0010240B9039B40490492C6
:10311000184600F0F1F8049A00B9024682F0010264
:1031200002F00100FFF758FD394660F31E063846ED
:1031300000F000F900287AD11099084600F0FAF85A
:10314000002867D10123059358E7109B304923F0ED
:1031500000431846049300F0EDF830B92C49049868
:1031600000F0CAF800283FF45EAF059B002B98D111
:1031700028F000482649404600F0DCF820B92449F0
:10318000404600F0B9F840B329F0004920494846CC
:1031900000F0D0F820B91E49484600F0ADF8E0B183
:1031A0002AF0004A1A49504600F0C4F820B91849DC
:1031B000504600F0A1F880B1029B154923F0004869
:1031C000404600F0B7F800287FF4D4AE10494046DE
:1031D00000F092F800287FF4CDAE5946584600F032
:1031E000A9F868BB3146304600F0A4F828BB394640
:1031F000384600F09FF8E8B91099084600F09AF8B0
:1032000000283FF44EAF109B6FF31E03109348E766
:10321000FFFF7F7F109B6FF31E0310930123059325
:10322000ECE66FF31E063CE76FF31E0B32E76FF31D
:103230001E0781E76FF31E07DEE76FF31E06D6E772
:103240006FF31E0BCEE700BF4FF0FF3C06E000BF60
:103250004FF0010C02E000BF4FF0010C4DF804CD1F
:103260004FEA40024FEA41037FEA226C18BF7FEA2F
:10327000236C11D001B052EA530C18BF90EA010F31
:1032800058BFB2EB030088BFC81738BF6FEAE170C0
:1032900018BF40F0010070477FEA226C02D15FEA5C
:1032A000402C05D17FEA236CE4D15FEA412CE1D0C8
:1032B0005DF8040B704700BF844608466146FFE78F
:1032C0000FB5FFF7C9FF002848BF10F1000F0FBD71
:1032D0004DF808EDFFF7F4FF0CBF012000205DF86A
:1032E00008FB00BF4DF808EDFFF7EAFF34BF0120EF
:1032F00000205DF808FB00BF4DF808EDFFF7E0FF88
:1033000094BF012000205DF808FB00BF4DF808EDD8
:10331000FFF7D2FF94BF012000205DF808FB00BF3B
:103320004DF808EDFFF7C8FF34BF012000205DF81D
:1033300008FB00BF4FEA40024FEA41037FEA226CDC
:1033400002D15FEA402C08D17FEA236C02D15FEA08
:10335000412C02D14FF0000070474FF00100704740
:10336000014B1868704700BF0800002070B50D4E73
:103370000D4D761BB61006D0002455F8043B0134E1
:103380009847A642F9D1094E094D761B00F04EFF31
:10339000B61006D0002455F8043B01349847A642E5
:1033A000F9D170BD38424000384240003C424000F4
:1033B00038424000024B0146186800F055B900BF82
:1033C00008000020024B0146186800F0EFB800BF6B
:1033D00008000020844641EA000313F003036DD186
:1033E000403A41D351F8043B40F8043B51F8043BC8
:1033F00040F8043B51F8043B40F8043B51F8043BCF
:1034000040F8043B51F8043B40F8043B51F8043BBE
:1034100040F8043B51F8043B40F8043B51F8043BAE
:1034200040F8043B51F8043B40F8043B51F8043B9E
:1034300040F8043B51F8043B40F8043B51F8043B8E
:1034400040F8043B51F8043B40F8043B51F8043B7E
:1034500040F8043B51F8043B40F8043B51F8043B6E
:1034600040F8043B403ABDD2303211D351F8043B0E
:1034700040F8043B51F8043B40F8043B51F8043B4E
:1034800040F8043B51F8043B40F8043B103AEDD2BD
:103490000C3205D351F8043B40F8043B043AF9D20E
:1034A000043208D0D2071CBF11F8013B00F8013BE1
:1034B00001D30B8803806046704700BF082A13D3EE
:1034C0008B078DD010F003038AD0C3F10403D21A06
:1034D000DB071CBF11F8013B00F8013B80D331F83A
:1034E000023B20F8023B7BE7043AD9D3013A11F8BA
:1034F000013B00F8013BF9D20B7803704B78437025
:103500008B78837060467047830730B548D0541E6F
:10351000002A3FD0CAB2034601E0013C3AD303F887
:10352000012B9D07F9D1032C2DD9CDB245EA0525F4
:103530000F2C45EA054536D9A4F1100222F00F0CF4
:1035400003F1200EE6444FEA121C03F1100242E997
:10355000045542E9025510327245F8D10CF10102CE
:1035600014F00C0F03EB021204F00F0C13D0ACF1AB
:10357000040323F003030433134442F8045B93422F
:10358000FBD10CF003042CB1CAB21C4403F8012B8C
:103590009C42FBD130BD64461346002CF4D1F9E7C0
:1035A00003461446BFE71A46A446E0E7002951D077
:1035B00038B551F8043C0C1F002BB8BFE418054681
:1035C00000F0FAF8274A13682BB1A3420CD92168FE
:1035D000601883422CD0636028461460BDE83840F0
:1035E00000F0ECB8A3420FD81A465B68002BF9D163
:1035F00011685018844217D02DD363605460284658
:10360000BDE8384000F0DAB811685018A04215D073
:1036100021D8216860188342EFD118685B680144A3
:10362000C4E900135460EAE7236819441160E6E72F
:1036300018685B680144C4E90013CDE720680144C1
:10364000501883421160DAD1D3E900030144C2E982
:103650000013D4E770470C232B602846BDE83840A0
:1036600000F0ACB888000020F8B5CD1C25F00305AB
:1036700008350C2D38BF0C25002D064623DBA9424A
:1036800021D8254F00F098F83A6822B3144603E099
:1036900063682246FBB11C4623685B1BF8D40B2BE6
:1036A00015D8636894420CBF3B605360304600F00D
:1036B00085F804F10B00231D20F00700C21A01D089
:1036C0001B1AA350F8BD0C2333600020F8BD236003
:1036D0001C442560EAE77968C9B12946304600F004
:1036E0001DF8431C0CD0C41C24F00304A04205D0D8
:1036F000211A304600F012F8013001D02560D5E7DC
:103700000C233046336000F059F80020F8BD3046F5
:1037100000F004F87860E0E78800002038B5074D35
:103720000022044608462A6000F030FD431C00D009
:1037300038BD2B68002BFBD0236038BD90000020E3
:103740000CB410B59CB01EAB6FF00044CDE906146C
:103750000291084953F8042B059102A9019304949E
:1037600000F00CF9029B00221A701CB0BDE810405A
:1037700002B070470802FFFF0EB410B59DB06FF0A5
:1037800000411FABCDE906010491094953F8042B10
:103790000290084C0868019302A9059400F0EEF825
:1037A000029B00221A701DB0BDE8104003B07047A4
:1037B000080000200802FFFF704700BF704700BFED
:1037C0002DE9F0478F689F420C461D46164638D8B3
:1037D0008246888910F4906F0ED108683D462A46CB
:1037E000314600F025FCA2682368D21B2B44A2605E
:1037F00023600020BDE8F0874B69096903EB4308AB
:10380000236808EBD878A3EB01096B1C4FEA680822
:103810004B444345424684BF98464246430513D530
:1038200011465046FFF720FF074608B321694A4674
:10383000FFF7D0FDA38923F4906343F08003A381B5
:1038400007E008681F46CAE7504600F06DFC0746CF
:1038500050B107EB0900A8EB09032761C4F81480F5
:10386000A36020602F46BAE721695046FFF79EFE0D
:103870000C23CAF80030A38943F040034FF0FF3017
:10388000A381B7E72DE9F04F936883B09146002BF1
:103890006DD017688D6880460C460868083743E08D
:1038A000A38913F4906F2ED0D4E90415A0EB010A7C
:1038B00005EB450505EBD5750AEB06006D100130EB
:1038C000A8422A4684BF05462A465B0536D51146DE
:1038D0004046FFF7C9FE00283AD0524621690190C0
:1038E000FFF778FDA289019B22F4906242F08002EA
:1038F000A281A5EB0A0203EB0A006561A2602361C5
:1039000020603546B2465946524600F091FBD9F840
:103910000830A16820684D1B50449E1BA5602060A4
:10392000C9F808601EB3083757E902B6002EFAD06E
:10393000B542AA46B4D93546B246E4E7404600F05F
:10394000F3FB03460028D4D121694046FFF72EFE41
:103950000C23C8F80030A389002243F040034FF045
:10396000FF30A381C9E9012203B0BDE8F08F002038
:10397000C9F8040003B0BDE8F08F00BF2DE9F04F97
:103980001C468B891D069DB088468146924603D50C
:103990000B69002B00F0EF800023099320238DF8A2
:1039A000293030238DF82A309AF800307B4D03946B
:1039B0000126002B72D0544603E014F8013F002B7F
:1039C00076D0252BF9D1B4EB0A0B74D12278002ADA
:1039D00064D000234FF0FF32CDE905230493079311
:1039E0008DF853301A93013404E0049A06FA03F375
:1039F00013430493A246052214F8011B284600F045
:103A0000C7FA431B0028F0D1049BD80644BF2022EC
:103A10008DF8532019079AF8001044BF2B228DF817
:103A200053202A2954D1039A1168043200290392A1
:103A30007CDB07919AF801100AF1010A2E2959D06E
:103A4000574C0322204600F0A3FA40B1049B001B10
:103A5000402404FA00F0034304930AF1010A1AF81F
:103A6000011B50488DF82810062200F091FA00281A
:103A700062D04D4B002B52D003AA00924B4B4246D2
:103A800004A94846AFF3008007467A1C06D0099B7C
:103A90003B4409939AF80030002B8CD1B8F80C30D5
:103AA0005B0654BF09984FF0FF301DB0BDE8F08FA2
:103AB000B4EB0A0BF2D05B46524641464846FFF74C
:103AC0007FFE0130EAD0099B22785B4409937EE7B0
:103AD000A1F13002092AB1D8079B1AF8011F03EBA4
:103AE000830302EB4303A1F13002092AF5D92E2901
:103AF0000793A5D19AF801102A2927D1039B9AF898
:103B000002101A6805920433002A0AF10200039396
:103B1000B8BF4FF0FF338246B8BF059390E7039BD1
:103B2000073323F0070308330393B0E7494243F018
:103B30000203079104937DE703AA00921B4B4246C0
:103B400004A9484600F0CAF807469EE7A1F13002F2
:103B50000023092A05930AF1010A3FF671AF1AF80A
:103B6000011F03EB830302EB4303A1F13002092A97
:103B7000F5D9059364E74021FFF776FDC8F800000A
:103B8000C8F8100018B14023C8F8143004E70C231B
:103B9000C9F800304FF0FF3087E700BFF041400028
:103BA000F8414000FC41400000000000C1374000E7
:103BB0002DE9F04791461E460A698B68DDF82080A2
:103BC0009A42B8BF1A46C9F8002091F843300C4613
:103BD000054613B10132C9F80020226891065DD56F
:103BE000D9F800300233C9F80030226812F0060F0D
:103BF00011461ED1E168CB1A002BD8BF114618DD43
:103C000004F1190A002706E0D9F80030E268A2EBB7
:103C1000030CBC450CDD0123524631462846C04703
:103C2000013007F10107EFD14FF0FF30BDE8F08719
:103C3000216894F84330003B18BF01238A060AD557
:103C4000E1185A1C302081F84300224494F84510B2
:103C500082F84310023304F1430231462846C0473C
:103C60000130E1D0236803F00603042B1DD0A368C4
:103C70002269934225DD00279B1A1F4404F11A098B
:103C8000002401E0BC421CDA01234A4631462846A2
:103C9000C047013004F10104F4D1C5E712F0060F6A
:103CA00012D0003B18BF0123D5E7D9F80030E168F6
:103CB0002269C91AA368934221EAE177DCDC002972
:103CC000DCDC0020BDE8F087E168D9F80030CB1AD1
:103CD000002BD8BF114693DCABE700BF2DE9F043C2
:103CE000174685B00A7E0C9D0C460646984601F1A3
:103CF000430C002A33D0A2F15803D9B2202967D847
:103D0000202B65D8DFE813F0DE0064006400640057
:103D10006400640064006400640064006400A30044
:103D20006E0064006400640064006E00640064005F
:103D30006400640021007F00C00064006400AE00E5
:103D400064007F0064006400E50023681A0640F107
:103D500004812B686269191D29601B681A600023A1
:103D6000E1462361CDF800803B4603AA2146304658
:103D7000FFF71EFF013020D023694A4639463046FE
:103D8000C047013019D02368E06803999B0719D513
:103D9000431A002B16DD04F11909002504E0E06840
:103DA0000399431AAB420DDD01234A46394630469A
:103DB000C047013005F10105F1D14FF0FF3005B0EA
:103DC000BDE8F0838842B8BF084605B0BDE8F0837F
:103DD000012384F84220236104F14209002384F87E
:103DE0004330BFE72368190602D45A0600F1C180A8
:103DF00029680A68043129601146002A6BDBDFF864
:103E000084E10A2510E02368180640F19C802B68A5
:103E1000191D29601968DFF86CE16F2A0CBF0825AD
:103E20000A25002384F843306268A260002A7FDB01
:103E3000236823F00403236000295BD1002A79D191
:103E4000E146082D65D0ACEB090323618AE72B68B6
:103E50000122196804332B6004F1420984F84210EE
:103E60002261BBE72B686268191D2960D3F80090B6
:103E70000021484600F08CF8002800F08180A0EB7B
:103E8000090060602061A9E7236843F020032360F4
:103E90007822DFF8F4E084F845202A68111D2960B3
:103EA000190643D45D0641D51188D80744BF43F0B5
:103EB00020032360002944D1236823F020032360DA
:103EC0001025AEE7582384F84530DFF8B8E02368C2
:103ED000E3E72368DCE76268A2602D20002AC1F1D5
:103EE000000184F8430002DB23F004032360DFF8C1
:103EF00094E00A25E146B1FBF5F305FB13100A46F1
:103F0000AA421EF8001009F8011D1946F3D2082D27
:103F100099D12368D90796D5626823699A4292DCC1
:103F2000302309F8013C09F1FF398CE71168BCE73F
:103F30000029DFD19EF8003084F8423004F14209B4
:103F40007FE710256DE713F0400F2B6803F10401A4
:103F500029600CBF196819885DE713F0400F2B68C2
:103F6000626903F1040129601B6814BF1A801A609A
:103F7000F5E62A68B2F9001004322A600A463CE7E6
:103F800060687FE7044240001842400000000000E3
:103F900001F0FF01102A2BDB10F0070F08D010F8FA
:103FA000013B013A8B422DD010F0070F42B3F6D1FE
:103FB000F0B441EA012141EA014122F007047FF017
:103FC00000070023F0E80256083C85EA010586EA6E
:103FD000010685FA47F5A3FA87F586FA47F6A5FAAA
:103FE00087F68EB9EED1F0BC01F0FF0102F00702B6
:103FF00032B110F8013B013A83EA010313B1F8D161
:104000000020704701387047002D06BF3546033841
:10401000073815F0010F07D1013015F4807F02BF7A
:10402000013015F4C03F0130F0BC0138704700BFCB
:1040300088420DD98B1883420AD900EB020CBAB121
:10404000624613F801CD02F801CD9942F9D17047CB
:104050000F2A0ED8034602F1FF3C4AB10CF1010CC5
:10406000013B8C4411F8012B03F8012F6145F9D174
:10407000704740EA01039B0750D1A2F1100370B5CD
:1040800001F1200C23F00F0501F1100E00F11004D6
:10409000AC441B095EF8105C44F8105C5EF80C5CE4
:1040A00044F80C5C5EF8085C44F8085C5EF8045C5C
:1040B00044F8045C0EF1100EE64504F11004E9D159
:1040C000013312F00C0F01EB031102F00F0400EBAF
:1040D000031327D0043C24F003064FEA940C1E443B
:1040E0001C1F8E465EF8045B44F8045FB442F9D1AD
:1040F0000CF1010402F0030203EB840301EB8401E1
:1041000002F1FF3C4AB10CF1010C013B8C4411F867
:10411000012B03F8012F6145F9D170BD02F1FF3C7D
:1041200003469BE72246EBE7F8B51446F9B1CAB15E
:1041300006460D4600F020F8A04202D32F4638462E
:10414000F8BD21463046FFF78FFA07460028F6D023
:1041500022462946FFF73EF930462946FFF726FA60
:104160003846F8BD2746FFF721FA3846F8BDBDE8C6
:10417000F8401146FFF778BA51F8040C0028A0F176
:104180000400BCBF0B58C018704700BF044A054963
:104190001368002B08BF0B46184410601846704780
:1041A0009400002098100020256420000A506C65BF
:1041B00061736520656E74657220696E7075742018
:1041C0006B657920284D617820333220486578204E
:1041D00042697473293A200A0000000000000000C0
:1041E000000000000000304300000000000030C369
:1041F000232D302B20000000686C4C00656667455D
:104200004647000030313233343536373839414291
:1042100043444546000000003031323334353637F0
:10422000383961626364656600000000F8B500BF5C
:10423000F8BC08BC9E46704735014000F8B500BF89
:0C424000F8BC08BC9E4670470D01400011
:10424C0000093D00FF0000000C00002000000000F1
:10425C000000000000000000000000000000000052
:10426C000000000000000000000000000000000042
:10427C000000000000000000000000000000000032
:10428C000000000000000000000000000000000022
:10429C000000000000000000000000000000000012
:0C42AC0000000000000000000000000006
:04000005004005555D
:00000001FF
