:020000040800F2
:1000000000A00020553F00089D3F00089D3F0008CC
:100010009D3F00089D3F00089D3F00080000000034
:100020000000000000000000000000009D3F0008EC
:100030009D3F0008000000009D3F00089D3F000814
:1000400000000000000000000000000000000000B0
:1000500000000000000000000000000000000000A0
:100060000000000000000000000000000000000090
:100070000000000000000000000000000000000080
:100080000000000000000000000000000000000070
:100090000000000000000000000000000000000060
:1000A0000000000000000000000000000000000050
:1000B0000000000000000000000000000000000040
:1000C0000000000000000000000000000000000030
:1000D0000000000000000000000000000000000020
:1000E0000000000000000000000000000000000010
:1000F0000000000000000000000000000000000000
:1001000000000000000000000000000000000000EF
:1001100000000000000000000000000000000000DF
:1001200000000000000000000000000000000000CF
:1001300000000000000000000000000000000000BF
:1001400000000000000000000000000000000000AF
:10015000000000000000000000000000000000009F
:10016000000000000000000000000000000000008F
:10017000000000000000000000000000000000007F
:08018000000000000000000077
:1001C0000348044B834202D0034B03B118477047E6
:1001D000640000206400002000000000054806497B
:1001E0000B1AD90F01EBA301491002D0034B03B145
:1001F00018477047640000206400002000000000E1
:1002000010B5064C237843B9FFF7DAFF044B13B15E
:100210000448AFF300800123237010BD6400002068
:1002200000000000A03F000808B5044B1BB10449C2
:100230000448AFF30080BDE80840CFE700000000AD
:1002400068000020A03F00084FF0FF0C1CEAD052CD
:100250001EBF1CEAD15392EA0C0F93EA0C0F6FD029
:100260001A4480EA010C400218BF5FEA41211ED007
:100270004FF0006343EA501043EA5111A0FB0131F3
:100280000CF00040B1F5000F3EBF490041EAD371C8
:100290005B0040EA010062F17F02FD2A1DD8B3F144
:1002A000004F40EBC25008BF20F00100704790F0B3
:1002B000000F0CF0004C08BF49024CEA502040EA05
:1002C00051207F3AC2BFD2F1FF0340EAC2507047CB
:1002D00040F400004FF00003013A5DDC12F1190F09
:1002E000DCBF00F000407047C2F10002410021FA7B
:1002F00002F1C2F1200200FA02FC5FEA310040F193
:10030000000053EA4C0308BF20EADC70704792F00B
:10031000000F00F0004C02BF400010F4000F013A43
:10032000F9D040EA0C0093F0000F01F0004C02BF3E
:10033000490011F4000F013BF9D041EA0C018FE7AD
:100340000CEAD15392EA0C0F18BF93EA0C0F0AD0B3
:1003500030F0004C18BF31F0004CD8D180EA0100D9
:1003600000F00040704790F0000F17BF90F0004F72
:10037000084691F0000F91F0004F14D092EA0C0F54
:1003800001D142020FD193EA0C0F03D14B0218BFE7
:10039000084608D180EA010000F0004040F0FE402D
:1003A00040F40000704740F0FE4040F440007047C9
:1003B00081F0004102E000BF83F0004330B54FEA16
:1003C00041044FEA430594EA050F08BF90EA020F83
:1003D0001FBF54EA000C55EA020C7FEA645C7FEA16
:1003E000655C00F0E2804FEA5454D4EB5555B8BF39
:1003F0006D420CDD2C4480EA020281EA030382EAAA
:10040000000083EA010180EA020281EA0303362D3B
:1004100088BF30BD11F0004F4FEA01314FF4801C0E
:100420004CEA113102D0404261EB410113F0004F20
:100430004FEA03334CEA133302D0524263EB4303D7
:1004400094EA050F00F0A780A4F10104D5F1200E75
:100450000DDB02FA0EFC22FA05F2801841F10001D0
:1004600003FA0EF2801843FA05F359410EE0A5F1A4
:1004700020050EF1200E012A03FA0EFC28BF4CF0D5
:10048000020C43FA05F3C01851EBE37101F000458B
:1004900007D54FF0000EDCF1000C7EEB00006EEB98
:1004A0000101B1F5801F1BD3B1F5001F0CD3490822
:1004B0005FEA30004FEA3C0C04F101044FEA445279
:1004C00012F5800F80F09A80BCF1004F08BF5FEA00
:1004D000500C50F1000041EB045141EA050130BDE0
:1004E0005FEA4C0C404141EB0101013C28BFB1F5F2
:1004F000801FE9D291F0000F04BF01460020B1FA3D
:1005000081F308BF2033A3F10B03B3F120020CDA0F
:100510000C3208DD02F1140CC2F10C0201FA0CF0ED
:1005200021FA02F10CE002F11402D8BFC2F1200C52
:1005300001FA02F120FA0CFCDCBF41EA0C01904008
:10054000E41AA2BF01EB0451294330BD6FEA040451
:100550001F3C1CDA0C340EDC04F11404C4F120023C
:1005600020FA04F001FA02F340EA030021FA04F34E
:1005700045EA030130BDC4F10C04C4F1200220FAA5
:1005800002F001FA04F340EA0300294630BD21FAE3
:1005900004F0294630BD94F0000F83F4801306BFA9
:1005A00081F480110134013D4EE77FEA645C18BF9D
:1005B0007FEA655C29D094EA050F08BF90EA020F34
:1005C00005D054EA000C04BF1946104630BD91EA2C
:1005D000030F1EBF0021002030BD5FEA545C05D12F
:1005E0004000494128BF41F0004130BD14F580046E
:1005F0003CBF01F5801130BD01F0004545F0FE41E2
:1006000041F470014FF0000030BD7FEA645C1ABF16
:10061000194610467FEA655C1CBF0B46024650EA4D
:10062000013406BF52EA033591EA030F41F4002179
:1006300030BD00BF90F0000F04BF0021704730B5FF
:100640004FF4806404F132044FF000054FF00001D4
:1006500050E700BF90F0000F04BF0021704730B595
:100660004FF4806404F1320410F0004548BF40426A
:100670004FF000013EE700BF42004FEAE2014FEABF
:1006800031014FEA02701FBF12F07F4393F07F4F9A
:1006900081F06051704732F07F4208BF704793F09D
:1006A0007F4F04BF41F40021704730B54FF46074B0
:1006B00001F0004521F000411CE700BF50EA0102B3
:1006C00008BF704730B54FF000050AE050EA01025C
:1006D00008BF704730B511F0004502D5404261EBCC
:1006E00041014FF4806404F132045FEA915C3FF40D
:1006F000D8AE4FF003025FEADC0C18BF03325FEAAA
:10070000DC0C18BF033202EBDC02C2F1200300FA5A
:1007100003FC20FA02F001FA03FE40EA0E0021FA7F
:1007200002F11444BDE600BF014B1868704700BFDA
:1007300000000020F8B58B890C46190707463AD40B
:100740006268002A53DDE66A002E4ED000223D6822
:100750003A6013F480524ED1216A01233846B047E3
:10076000421C5AD0A389E66A5B0705D56368C01AA4
:10077000636B0BB1236CC01A216A02460023384612
:10078000B047411C39D13B68002B36D01D2B01D01E
:10079000162B49D123690022C4E90032616B3D6008
:1007A00019B304F14403994202D0384600F0B0FA7C
:1007B00000206063F8BD2669BEB1256826609A07EF
:1007C0000CBF63690023AD1BA3600CE0D4F828C004
:1007D000216A2B4632463846E047B0F1000CA5EBC3
:1007E0000C05664412DD002DF0DC0020F8BD226C03
:1007F000002AA8DCF9E7606DB6E70023636023698F
:100800002360A389DB04C9D56065C7E7A38943F0EA
:1008100040034FF0FF30A381F8BD3B68002BA1D00F
:100820001D2B06D0162B04D0A38943F04003A381CF
:10083000F8BD3D60D9E700BF38B50B69BBB10C46C8
:10084000054608B18369B3B10D4B9C4211D00D4BE5
:100850009C4213D00C4B9C4208BFEC68B4F90C309E
:100860002BB121462846BDE83840FFF763BF002082
:1008700038BD6C68F2E700F045F9E5E7AC68EDE7F4
:10088000FC3F0008DC3F0008BC3F000838B540B31F
:1008900003690446E3B1174B1D680DB1AB69CBB1D9
:1008A000154B9C420FD0154B9C4221D0144B9C42BF
:1008B00008BFEC68B4F90C3053B121462846BDE8B6
:1008C0003840FFF737BF6C68B4F90C30002BF4D117
:1008D000002038BD284600F015F9074B9C42E2D1B4
:1008E000F1E7084B08491868BDE8384000F04AB9FC
:1008F000AC68DFE700000020FC3F0008DC3F000898
:10090000BC3F00081C400008390800080020704760
:10091000014900F037B900BF3908000800207047CE
:1009200070B568224D1E02FB05F50E4605F17401F7
:1009300000F04CFA044640B100210C30C4E9001626
:10094000A06005F1680200F091F9204670BD00BF7B
:10095000274B2DE9F0411E68B369074653B348366B
:100960004FF00408D6E90134013B04D51EE05A1CBF
:1009700004F168041AD0B4F90C50013B002DF6D1F3
:100980001C4B6566C4E90055C4E90253C4E904552B
:10099000A5610822294604F15C0000F067F9C4E96A
:1009A0000D55C4E912552046BDE8F08135682DB1DA
:1009B0002E46D7E7304600F01FF8D0E74FF4D67147
:1009C000384600F003FA044668B10560C0F80480B8
:1009D0000C302946A06025464FF4D07200F046F94D
:1009E00034602E46BEE70C2330603B60DBE700BF7F
:1009F0001C4000080100FFFF2DE9F84F344B35493A
:100A00001A68816290424FF00003C0E91233036517
:100A100004BF012383610546FFF79AFF68602846FB
:100A2000FFF796FFA8602846FFF792FF6F68E8601F
:100A300000240423C7E9024308222146C7E90044F1
:100A4000C7E904447C66BC6107F15C0000F00EF964
:100A5000DFF884B0AE68DFF884A0DFF88490DFF8B8
:100A60008480214BC7F828A0C7E9087BC7F82C90E1
:100A7000C7F830800822F360C6E90044C6E90444A0
:100A80007466B460B461214606F15C0000F0EEF8D3
:100A9000C6E9086BC6E90AA9C6F83080EE68134BB0
:100AA000F360C6E90044C6E904447466B460B46106
:100AB0002146082206F15C0000F0D8F80123C6E9BF
:100AC000086BC6E90B98C6F828A0AB61BDE8F88FA3
:100AD0001C4000081109000891100008B910000816
:100AE000F9100008191100080900010012000200A5
:100AF000024B0349186800F045B800BF1C400008CD
:100B000039080008836903B976E77047704700BF6A
:100B1000704700BF704700BF704700BF024B0349DA
:100B2000186800F00FB800BF000000200D09000891
:100B3000024B0349186800F005B800BF0000002010
:100B40001D0900082DE9F041884600F148070026FC
:100B5000D7E90154013D0FD4A389012B05F1FF35DD
:100B600006D9B4F90E300133204601D0C047064300
:100B70006B1C04F16804EFD13F68002FE8D13046C8
:100B8000BDE8F0812DE9F8430746884600F14806A4
:100B90004FF00009D6E90154013D11D4A389012B7E
:100BA00005F1FF3508D9B4F90E300133214603D0E1
:100BB0003846C04749EA00096B1C04F16804EDD1CE
:100BC0003668002EE6D14846BDE8F88310B50446E5
:100BD00008B183692BB161682046BDE8104000F080
:100BE0002BBCFFF78FFF61682046BDE8104000F086
:100BF00023BC00BF0A4B10B51C680CB1A3692BB114
:100C000061682046BDE8104000F016BC2046FFF7A2
:100C100079FF61682046BDE8104000F00DBC00BFC0
:100C20000000002070B50D4E0D4D761BB61006D09D
:100C3000002455F8043B01349847A642F9D1094EE7
:100C4000094D761B03F0ACF9B61006D0002455F818
:100C5000043B01349847A642F9D170BDB441000865
:100C6000B4410008B8410008B4410008830730B51A
:100C700048D0541E002A3FD0CAB2034601E0013CCE
:100C80003AD303F8012B9D07F9D1032C2DD9CDB20E
:100C900045EA05250F2C45EA054536D9A4F1100291
:100CA00022F00F0C03F1200EE6444FEA121C03F170
:100CB000100242E9045542E9025510327245F8D15A
:100CC0000CF1010214F00C0F03EB021204F00F0CF4
:100CD00013D0ACF1040323F003030433134442F8AC
:100CE000045B9342FBD10CF003042CB1CAB21C4448
:100CF00003F8012B9C42FBD130BD64461346002C07
:100D0000F4D1F9E703461446BFE71A46A446E0E7E4
:100D1000002951D038B551F8043C0C1F002BB8BF46
:100D2000E418054600F098FC274A13682BB1A3424B
:100D30000CD92168601883422CD063602846146067
:100D4000BDE8384000F08ABCA3420FD81A465B6861
:100D5000002BF9D111685018844217D02DD363604D
:100D600054602846BDE8384000F078BC116850183F
:100D7000A04215D021D8216860188342EFD11868AD
:100D80005B680144C4E900135460EAE7236819442E
:100D90001160E6E718685B680144C4E90013CDE719
:100DA00020680144501883421160DAD1D3E900036E
:100DB0000144C2E90013D4E770470C232B60284696
:100DC000BDE8384000F04ABC00010020F8B5CD1C59
:100DD00025F0030508350C2D38BF0C25002D0646DF
:100DE00023DBA94221D8254F00F036FC3A6822B314
:100DF000144603E063682246FBB11C4623685B1B74
:100E0000F8D40B2B15D8636894420CBF3B60536039
:100E1000304600F023FC04F10B00231D20F00700F6
:100E2000C21A01D01B1AA350F8BD0C233360002056
:100E3000F8BD23601C442560EAE77968C9B12946FA
:100E4000304600F0BFF8431C0CD0C41C24F003044F
:100E5000A04205D0211A304600F0B4F8013001D08C
:100E60002560D5E70C233046336000F0F7FB002007
:100E7000F8BD304600F0A6F87860E0E700010020F9
:100E80000EB410B5044683B008B183695BB106ABFC
:100E9000A168059A0193204600F03AFE03B0BDE830
:100EA000104003B07047FFF72DFEF0E70FB410B508
:100EB0000A4B1C6882B00CB1A3695BB105ABA16899
:100EC000049A0193204600F023FE02B0BDE81040D2
:100ED00004B070472046FFF715FEEFE70000002042
:100EE000F8B50E460746002832D0836973B384688C
:100EF0002D4B9C4236D02D4B9C423ED02C4B9C42DD
:100F000008BFFC68A3891B0730D5236973B3357804
:100F10003DB934E023685A1C22601D7016F8015F49
:100F20006DB3A368013B002BA360F3DAD4F818C0BB
:100F3000634529462246384601DB0A2DEAD100F0F6
:100F40006DF90130EAD14FF0FF30F8BDFFF7DAFD5F
:100F5000BB69BC68002BCBD13846FFF7D3FD124BE1
:100F60009C42C8D17C68A3891B07CED42146384651
:100F700000F0CEF90028CAD0E5E7BC68C2E7A36854
:100F8000013B002BA36008DA22460A21384600F014
:100F900045F90130D7D00A20F8BD23680A22591C30
:100FA00021601A701046F8BDFC3F0008DC3F0008C5
:100FB000BC3F0008024B01461868FFF791BF00BF15
:100FC0000000002038B5074D0022044608462A607C
:100FD00002F0A6FF431C00D038BD2B68002BFBD0CD
:100FE000236038BD080100200EB430B59CB01FACA2
:100FF0004FF4017254F8045BADF81420029006908F
:1010000000F09EF8039007900A480B490B910023CB
:101010004FF6FF7C0F9314932A46234602A90068DB
:10102000ADF816C0019400F079FB1CB0BDE830406B
:1010300003B0704700000020B51000080CB470B574
:101040009CB020AC4FF401730546084654F8046B7D
:10105000ADF814300291069100F072F80B490B9133
:101060000346039307934FF6FF7100230F931493E6
:10107000ADF8161032462846234602A9019400F026
:101080004DFB1CB0BDE8704002B07047B5100008C1
:1010900010B50C46B1F90E1001F0CEF9002803DBB3
:1010A000636D0344636510BDA38923F48053A3815A
:1010B00010BD00BF002070472DE9F0410C46B1F98A
:1010C0000C101F46CB05054616460BD421F4805163
:1010D000A1813B46B4F90E1032462846BDE8F041E6
:1010E00000F000B9B4F90E100223002200F010FA4B
:1010F000B4F90C10EAE700BF10B50C46B1F90E10B8
:1011000000F006FAA389421C0EBF23F4805343F477
:1011100080536065A38110BDB1F90E1000F07AB95B
:1011200000000000000000000000000000000000BF
:1011300000000000000000000000000000000000AF
:1011400090F800F06DE9024520F007016FF0000C07
:1011500010F0070491F820F040F049804FF00004AF
:101160006FF00700D1E9002391F840F000F108008A
:1011700082FA4CF2A4FA8CF283FA4CF3A2FA8CF3C2
:101180004BBBD1E9022382FA4CF200F10800A4FA29
:101190008CF283FA4CF3A2FA8CF3E3B9D1E904237D
:1011A00082FA4CF200F10800A4FA8CF283FA4CF3B4
:1011B000A2FA8CF37BB9D1E9062301F1200182FA6E
:1011C0004CF200F10800A4FA8CF283FA4CF3A2FA74
:1011D0008CF3002BC6D0002A04BF04301A4612BA82
:1011E000B2FA82F2FDE8024500EBD2007047D1E985
:1011F000002304F00305C4F100004FEAC50514F014
:10120000040F91F840F00CFA05F562EA05021CBFE4
:1012100063EA050362464FF00004A9E7F8B50D46FE
:101220001446064608B1836943B3254B9C422AD035
:10123000244B9C4229D0244B9C4208BFF468A389CC
:10124000A269A2601A0722D5236903B322686169E3
:10125000D31AEDB299422F4629DD0133A168013935
:10126000A160511C2160157062699A4216D0A38951
:10127000DB0701D50A2D11D03846F8BDFFF742FC37
:101280000F4B9C42D4D17468D9E7B468D7E72146A4
:10129000304600F03DF838B92369D7E7214630469B
:1012A000FFF7CAFA0028E7D04FF0FF37E4E72146FE
:1012B0003046FFF7C1FA0028F6D122680123CDE7B6
:1012C000FC3F0008DC3F0008BC3F000810B4044CA1
:1012D00003460A46206810BC1946FFF79FBF00BFAF
:1012E0000000002038B50C46084D844611462046C3
:1012F0001A4600232B60644601F09AFF431C00D07D
:1013000038BD2B68002BFBD0236038BD08010020BE
:101310003C4B70B51D6806460C460DB1AB69E3B198
:10132000394B9C421FD0394B9C424DD0384B9C428C
:1013300008BFEC68B4F90C3018079AB219D52169C6
:1013400011B312F001002FD00020A060606940426C
:10135000A06100292ED0002070BD2846FFF7D2FBE7
:10136000294B9C42DFD16C68B4F90C3018079AB253
:10137000E5D4D1063ED5520728D4216943F00803AD
:10138000A3819AB20029DCD102F42070B0F5007F6D
:10139000D7D02146304600F0D1F8B4F90C3021699D
:1013A0009AB212F00100CFD1950758BF6069A060D2
:1013B0000029D0D1120658BF0846CDD543F04003CE
:1013C000A3814FF0FF3070BDAC68B3E7616B51B1E2
:1013D00004F14402914204D03046FFF799FCB4F97D
:1013E0000C300022626321690022C4E9001223F05C
:1013F0002403C3E7092243F0400332604FF0FF307B
:10140000A38170BD00000020FC3F0008DC3F000805
:10141000BC3F000838B5074D0022044608462A6044
:1014200001F0DEFE431C00D038BD2B68002BFBD042
:10143000236038BD0801002038B50C46054608B1C8
:1014400083699BB1134B9C4215D0134B9C421ED019
:10145000124B9C4208BFEC686368013B002B636041
:101460000FDB23685A1C2260187838BDFFF74AFB4F
:10147000084B9C42E9D16C686368013B002B6360B8
:10148000EFDA21462846BDE8384000F0EBBFAC68F3
:10149000E2E700BFFC3F0008DC3F0008BC3F00085B
:1014A00038B5174B1D6804460DB1AB699BB1154BA0
:1014B0009C4216D0144B9C421FD0144B9C4208BF38
:1014C000EC686368013B002B636010DB23685A1CE7
:1014D0002260187838BD2846FFF714FB094B9C4260
:1014E000E8D16C686368013B002B6360EEDA21464B
:1014F0002846BDE8384000F0B5BFAC68E1E700BF62
:1015000000000020FC3F0008DC3F0008BC3F000852
:1015100038B50C46084D8446114620461A4600232D
:101520002B60644601F074FE431C00D038BD2B686C
:10153000002BFBD0236038BD08010020F0B58B895B
:101540000C46990797B007D504F147030122C4E977
:101550000432236017B0F0BDB4F90E10002905461F
:101560002DDB6A4601F064FA002827DB019E06F4B1
:1015700070464FF48067A6F50056B6FA86F63946EF
:1015800028467609FFF722FC30B3A3891A4AAA62DB
:1015900043F08003C4E90407A3812060002ED9D062
:1015A000B4F90E10284601F0CDFB0028D2D0A38953
:1015B00023F0030343F00103A381CBE7A38913F0D6
:1015C000800F14BF40274FF4806739462846002615
:1015D000FFF7FCFB0028D8D1B4F90C309A05B9D438
:1015E00023F0030304F1470243F002030121C4E99D
:1015F0000421A3812260ADE71109000870B50C46F3
:10160000B1F90E10002996B016461D4613DB6A4646
:1016100001F00EFA00280EDB019901F47041A1F5EA
:101620000051B1FA81F14FF480634909002029602B
:10163000336016B070BDB4F90C3000221B062A606E
:1016400004D540230020336016B070BD4FF4806392
:101650000020336016B070BD704700BF704700BFF8
:1016600038B54B1C1AD093891446526B23F02003D3
:10167000A381CDB2AAB16268A36B9A4209DA23684A
:101680005A1E226003F8015C6368013363602846D8
:1016900038BD214601F00CF90028F0D04FF0FF359D
:1016A000F5E7236922682BB1934203D212F8013C7B
:1016B000AB420FD0616821642346E26304F1440128
:1016C0000322A263616303F8465F0122C4E900328A
:1016D000284638BD6368013A0133C4E90023D6E7E0
:1016E00010B50C46496B69B104F14403994201D02D
:1016F000FFF70EFB236C63600020606313B1E36BA4
:10170000236010BDA3892169002243F02003C4E9AE
:101710000012A3814FF0FF3010BD00BF2DE9F04F44
:10172000ADF5237D154600930023CDE944331278AF
:10173000824BA0930DF10408814BA193CDF8188141
:10174000B2B1804FDFF80092BB5C13F0080306468D
:101750000C464FF0030B2BD1252A05F1010A41D08D
:1017600015466168002908DD21680878A8420FD075
:1017700044980DF5237DBDE8F08FA19B21463046AE
:101780009847002840F0038121680878A842EFD1EB
:101790006368013B6360459B01310133216055461D
:1017A00045932A78002AE3D0BB5C13F00803D3D01A
:1017B00063680DE021680A78BB5C1B0701F1010139
:1017C0000ED56368459A013BC4E900130132459286
:1017D000002B21463046EDDCA19B98470028E9D03C
:1017E0000135DEE74393419369782A2904D1102318
:1017F0004193A97805F1020AA1F13002092A0CD817
:10180000002202EB820201EB4202303A43921AF8C4
:10181000011FA1F130000928F3D94B48032201F040
:10182000A7FA48B1419AA0EB0900012101FA00F0A2
:1018300010430AF1010A4190554615F8013B782BF7
:1018400000F28480DFE813F013018200820082003E
:101850008200820082008200820082008200820078
:101860008200820082008200820082008200820068
:101870008200820082008200820082008200820058
:101880008200820082008200820082008200820048
:1018900082001601820082008200820082008200A3
:1018A0008200820082008200820082008200820028
:1018B0008200820082008200820082008200820018
:1018C0008200820082008200820082008200820008
:1018D0008200C800C800C800820082008200820026
:1018E00082008200820082008200820082008200E8
:1018F0008200820082008200DC0082008200E6001A
:101900008200820082008200820082008200F10058
:10191000CB00C800C800C8008200F8008200820026
:1019200082008200FC000B010F0182008200E300B4
:101930008200CB0082008200DC0000BF611600083C
:10194000E11600082D400008584100080A23CDF890
:101950001CB142936368002B4BDD419B5A0625D591
:10196000479B022B40F38980042B40F38D804A4B28
:10197000002B3FF416AF6B46224641A93046AFF329
:10198000008001283FF4F4AE02287FF40AAF4498A7
:1019900000286CD0A38913F0400F18BF4FF0FF3020
:1019A000E7E6A19B304698470028F0D122681378DB
:1019B000FB5C1B07D4D563684599013B481C002B91
:1019C00021464590636002F10102EADD226013784E
:1019D000FB5C1B07C4D5EEE705234793BAE70A2251
:1019E00042926F2B34BF0323042347936368002B79
:1019F000B3DCA19B2146304698470028ADD0C6E70E
:101A0000419A42F40072419210224292E9E7022385
:101A100047939FE72946404600F088FD419B43F0ED
:101A20004003419305460123DFE7419B43F0400318
:101A30004193002347938DE7002342930323D4E788
:101A4000419BD8063FF5ADAED907009B459A03F1FF
:101A5000040100911B684CBF1A801A60A1E608239C
:101A600042930423C1E7419A42F02002C9E74FF0B4
:101A7000FF307EE6AA46252573E66B46224641A93D
:101A8000304600F081FB7CE76B46224641A9304698
:101A900000F0DCFB75E700BF000000009368013B2D
:101AA000002B936005DAD2F818C0634507DB0A29DA
:101AB00005D01368581C1060197008467047FFF76E
:101AC000ADBB00BF9BB1F8B5134406460F46541E8C
:101AD0005D1E01E0AC4208D014F8011F3A463046C2
:101AE000FFF7DCFF431CF5D1F8BD0020F8BD002056
:101AF000704700BF936810B5144613B95360184679
:101B000010BD00F0ABFF0023C4E9013310BD00BFDE
:101B10002DE9F04F88469FB015461C46814618B106
:101B20008369002B00F0A280924B984500F0A480BE
:101B3000914B984500F0B180904B984508BFD9F87B
:101B40000C80B8F80C30180740F19D80D8F81030A0
:101B5000002B00F0988000230B932978884E059481
:101B600020238DF8313030238DF8323001270029C1
:101B700074D02C460B4604E014F8013F002B00F013
:101B80008F80252BF8D1B4EB050B40F08C802378A7
:101B9000002B63D000234FF0FF32CDE907230693DB
:101BA00009938DF85B301C93013404E0069A07FA20
:101BB00003F3134306932546052214F8011B304610
:101BC00001F0D6F8831B0028F0D1069BD90644BF4C
:101BD00020228DF85B2029781A0744BF2B228DF82C
:101BE0005B202A2970D1059A1168043200290592D8
:101BF000C0F29B800991697801352E2976D0614C1D
:101C00000322204601F0B4F838B1069B001B4024A3
:101C100004FA00F003430693013515F8011B5A48F6
:101C20008DF83010062201F0A3F8002800F0838020
:101C3000564B002B6DD005AA0092554B424606A983
:101C40004846AFF300800390039B013306D00B9B03
:101C5000039A297813440B9300298AD1B8F80C30E1
:101C60005B0617D40B981FB0BDE8F08FFEF74AFF54
:101C7000404B98457FF45CAFD9F80480B8F80C303D
:101C800018073FF563AF41464846FFF741FB002880
:101C90003FF461AF4FF0FF30E5E7D9F8088050E737
:101CA000B4EB050BDAD0AA46C5F1010503E0934574
:101CB00036D91AF8011F42464846FFF7EFFE0130B9
:101CC00005EB0A02F3D1C9E7A1F13002092A94D841
:101CD000099B15F8011F03EB830302EB4303A1F1FA
:101CE0003002092AF5D92E29099388D169782A2941
:101CF0002BD1059BA9781A6807920433002A05F1B5
:101D000002000593B8BF4FF0FF330546B8BF0793F5
:101D100075E7059B073323F007030833059396E720
:101D20000B9A23785A440B9232E7494243F002035C
:101D3000099106935FE705AA0092154B424606A952
:101D4000484600F0C9F803907EE7A1F13002002375
:101D5000092A079305F101053FF651AF15F8011F58
:101D600003EB830302EB4303A1F13002092AF5D907
:101D7000079344E7FC3F0008DC3F0008BC3F000835
:101D80005C41000858410008644100080000000060
:101D9000C51A000810B4044C84461346206810BCD1
:101DA0000A466146FFF7B4BE000000202DE9F04767
:101DB00091461E460A698B68DDF820809A42B8BFBA
:101DC0001A46C9F8002091F843300C46054613B175
:101DD0000132C9F80020226891065DD5D9F800309B
:101DE0000233C9F80030226812F0060F11461ED1E6
:101DF000E168CB1A002BD8BF114618DD04F1190A8F
:101E0000002706E0D9F80030E268A2EB030CBC45DD
:101E10000CDD0123524631462846C047013007F108
:101E20000107EFD14FF0FF30BDE8F087216894F84B
:101E30004330003B18BF01238A060AD5E1185A1C1B
:101E4000302081F84300224494F8451082F8431072
:101E5000023304F1430231462846C0470130E1D045
:101E6000236803F00603042B1DD0A3682269934264
:101E700025DD00279B1A1F4404F11A09002401E004
:101E8000BC421CDA01234A4631462846C04701308D
:101E900004F10104F4D1C5E712F0060F12D0003BA3
:101EA00018BF0123D5E7D9F80030E1682269C91AC3
:101EB000A368934221EAE177DCDC0029DCDC002026
:101EC000BDE8F087E168D9F80030CB1A002BD8BF05
:101ED000114693DCABE700BF2DE9F043174685B010
:101EE0000A7E0C9D0C460646984601F1430C002ADA
:101EF00033D0A2F15803D9B2202967D8202B65D856
:101F0000DFE813F0DE006400640064006400640035
:101F100064006400640064006400A3006E00640058
:101F20006400640064006E00640064006400640087
:101F300021007F00C00064006400AE0064007F00E8
:101F400064006400E50023681A0640F104812B68F0
:101F50006269191D29601B681A600023E14623612C
:101F6000CDF800803B4603AA21463046FFF71EFF0E
:101F7000013020D023694A4639463046C0470130F7
:101F800019D02368E06803999B0719D5431A002BE1
:101F900016DD04F11909002504E0E0680399431AED
:101FA000AB420DDD01234A4639463046C047013079
:101FB00005F10105F1D14FF0FF3005B0BDE8F08328
:101FC0008842B8BF084605B0BDE8F083012384F815
:101FD0004220236104F14209002384F84330BFE723
:101FE0002368190602D45A0600F1C18029680A68DC
:101FF000043129601146002A6BDBDFF884E10A25F1
:1020000010E02368180640F19C802B68191D296098
:102010001968DFF86CE16F2A0CBF08250A25002338
:1020200084F843306268A260002A7FDB236823F0D3
:102030000403236000295BD1002A79D1E146082DF1
:1020400065D0ACEB090323618AE72B68012219688C
:1020500004332B6004F1420984F842102261BBE78B
:102060002B686268191D2960D3F80090002148464A
:1020700000F07EFE002800F08180A0EB0900606087
:102080002061A9E7236843F0200323607822DFF86A
:10209000F4E084F845202A68111D2960190643D40C
:1020A0005D0641D51188D80744BF43F02003236063
:1020B000002944D1236823F0200323601025AEE7D4
:1020C000582384F84530DFF8B8E02368E3E7236855
:1020D000DCE76268A2602D20002AC1F1000184F8CB
:1020E000430002DB23F004032360DFF894E00A25B9
:1020F000E146B1FBF5F305FB13100A46AA421EF8B0
:10210000001009F8011D1946F3D2082D99D1236852
:10211000D90796D5626823699A4292DC302309F880
:10212000013C09F1FF398CE71168BCE70029DFD1D8
:102130009EF8003084F8423004F142097FE7102510
:102140006DE713F0400F2B6803F1040129600CBF09
:10215000196819885DE713F0400F2B68626903F175
:10216000040129601B6814BF1A801A60F5E62A680A
:10217000B2F9001004322A600A463CE760687FE743
:102180006C410008804100082DE9F8430D4689683C
:1021900007461446A86929B9002814BF4FF0FF323A
:1021A0000122AA602A68D20603D41A68111D196098
:1021B0001668DFF894804FF0000900B3012837D08B
:1021C000022825D123681A7812F8082012071FD494
:1021D0002A68D10609F1010903D41B7806F8013BEE
:1021E00023686168AA6801390133013AC4E9003102
:1021F000AA606AB1002904DDA8690028DED123683D
:10220000E6E7D5F880312146384698470028F3D0D4
:102210002B6813F0100305D1EA680132EA60AA695D
:1022200002B133702B694B4400202B61BDE8F88369
:1022300023686A691978525C002AC9D1B9F1000F84
:10224000E6D1BDE8F88300BF2D4000082DE9F04F2E
:1022500087B08F6801930C46734B744D16468A699C
:102260007349032A18BF19468046009195E8070074
:1022700007F1FF3C03ABBCF5AE7F83E8070040F2FB
:1022800099806FF4AE7040F25D1207EB000AA26015
:10229000A1469B4659F81C2B42F45062002722604D
:1022A0004D4633685BF8040B1978022200F060FD9C
:1022B000A0B1012F77D0022F00F09E80A3685A1E94
:1022C000A2605BB133685A1C32601B7805F8013B91
:1022D0007368013B002B736040F384800137032F48
:1022E000DFD16168002968D0C1F11001514B6069EC
:1022F000194400F01BF9A368002B00F0928000271E
:1023000006E0336801333360A368013BA360CBB1BF
:10231000306862690178525CA2B13029226856D0D7
:1023200022F410622260037805F8013B7368013BD8
:10233000002B7360E5DCD4F8803131464046984785
:102340000028E1D02268D1050CD54D4507D915F8F4
:10235000011CD4F87C3132464046013D98474D453A
:102360005DD0226812F0100213D12A706368009EBB
:1023700049464046B047236801999A0601D4DB07D5
:1023800047D40B681A1D0A601B681860E3680133A4
:10239000E3602369A5EB09052F441F442761002052
:1023A00007B0BDE8F08F63685BB1236823F4A063D6
:1023B000236083E74FF0000A6AE70A23636006217F
:1023C00094E708236360236843F40073EEE7110584
:1023D000A6D50137BAF1000FA8D00133A3600AF1E6
:1023E000FF3AA3E7D4F880313146404698470028A9
:1023F0003FF474AF0027A5E7236803F4C062B2F589
:10240000007F7FF46EAF43F480732360102363601A
:1024100054E70B681A1D0A601B681880B6E7012094
:10242000BEE71F468EE700BF7D2800082040000859
:10243000D9260008A041000838B50C46084D84464E
:10244000114620461A4600232B60644600F0E8FE41
:10245000431C00D038BD2B68002BFBD0236038BD57
:102460000801002038B50C46054608B18369B3B1B0
:10247000114B9C4218D0114B9C4217D0104B9C42E0
:1024800008BFEC682146284600F00AFE80B9D4E96E
:102490000023511C013BC4E90013107838BDFEF73E
:1024A00031FB054B9C42E6D16C68EBE7AC68E9E791
:1024B0004FF0FF3038BD00BFFC3F0008DC3F000894
:1024C000BC3F000838B5154B1D6804460DB1AB691B
:1024D000B3B1134B9C4219D0124B9C4218D0124BF3
:1024E0009C4208BFEC682146284600F0D9FD88B917
:1024F000D4E90023511C013BC4E90013107838BD16
:102500002846FEF7FFFA064B9C42E5D16C68EAE7E5
:10251000AC68E8E74FF0FF3038BD00BF0000002096
:10252000FC3F0008DC3F0008BC3F0008F0B50D7818
:102530005E2D044621D0002201F1010C9646631E57
:1025400004F1FF0103F8012F8B42FBD195B18EF00E
:102550000102E64362550CF1010E1EF8013C2D2BE1
:10256000704610D05D2B04D013B11D46F446F1E740
:102570006046F0BD0CF1FF30F0BD01224D7801F155
:10258000020C9646DBE79CF801005D28EDD0854201
:10259000EBDC6F1C0CF1020CE31903F8012BF118B2
:1025A0008842FADC431B013B8542A8BF00230EF1A1
:1025B000020EDD19D1E700BF2DE9F04F81464548F5
:1025C0008E4675461EF801CB10F80C4014F0080436
:1025D000F7D1BCF12D0FE34654D0BCF12B0F08BF4F
:1025E0009EF800B06FF0004808BF05F1020E1BB165
:1025F000102B4FD01F4604E0BBF1300F55D00A23FB
:102600001F460025B8FBF7F6284607FB168A07E0A9
:10261000864215D329D007FB00C001251EF801BB57
:10262000ABF1300CBCF1090F06D9ABF1410CBCF198
:10263000190F08D8ABF1370C63450DDD002DE7DA33
:102640004FF0FF35EAE7ABF1610CBCF1190F03D88D
:10265000ABF1570C6345F1DC002D0BDB04B14042BC
:102660000AB195BB1160BDE8F08FE245D3DA4FF0B7
:10267000FF35D3E72223C9F800301AB30EF1FF313A
:102680004046EFE79EF800B04FF0004805F1020E1B
:102690000124ACE7BBF1300FACD19EF8000000F094
:1026A000DF00582807D01F46ABE79EF8003003F044
:1026B000DF03582B0BD110279EF801B03B460EF1DB
:1026C000020E9EE74046BDE8F08F8046D6E708231D
:1026D0001F4696E72D400008012B02D0242B00D87E
:1026E0006AE710B5FEF720F816230360002010BD3E
:1026F000012A08D0242A134605D8064A84461068C1
:102700000A46614658E710B5FEF70EF81623036037
:10271000002010BD00000020012A08D0242A134602
:1027200005D8064A844610680A46614644E710B553
:10273000FDF7FAFF16230360002010BD0000002003
:102740002DE9F04707464B480E46354616F801CBB3
:1027500010F80C4014F00804F7D1BCF12D0FE64638
:1027600058D0BCF12B0F04BF96F800E0AE1C5BB153
:10277000102B54D04FF0FF38B8FBF3F803FB08FAE6
:102780006FEA0A0A994608E0BEF1300F5AD00A23D0
:10279000DFF8E4804FF0050A99460025284607E057
:1027A000404515D829D009FB00C0012516F801EBDA
:1027B000AEF1300CBCF1090F06D9AEF1410CBCF101
:1027C000190F08D8AEF1370C63450DDD002DE7DA9F
:1027D0004FF0FF35EAE7AEF1610CBCF1190F03D8F9
:1027E000AEF1570C6345F1DC002D0BDB04B1404228
:1027F0000AB16DB91160BDE8F087D445D3DD4FF063
:10280000FF35D3E722233B604FF0FF30002AF2D0A0
:10281000711EEFE796F800E00124AE1CA7E7BEF1B9
:10282000300F21D1307800F0DF00582816D14FF05A
:10283000100996F801E04FF00F0A02366FF0704869
:102840004B46AAE7337803F0DF03582BEFD0082379
:102850004FF0070A6FF0604899469EE799466FF07F
:1028600070484FF00F0A98E74FF00F0A6FF070486A
:10287000994692E72D4000089999991960E700BFA1
:1028800010B4044C84461346206810BC0A466146C6
:1028900056E700BF0000002010B4044C84461346E5
:1028A000206810BC0A4661464AE700BF00000020CD
:1028B00001F144032DE9F0410C46496B994214D0D3
:1028C000A66B77003A4600F0B9FB054640B300EB33
:1028D000060801463246404600F09AFAC4E90D5710
:1028E000C4F800800020BDE8F0814FF48061FEF75D
:1028F0006DFAA8B194F846304FF48062C4E90D0235
:1029000080F8FF3394F8453080F8FE3394F8442083
:1029100080F8FD2300F2FD3323600020BDE8F08144
:102920004FF0FF30DFE700BF70B54C1C6AD00E4699
:102930000546144610B18369002B2FD0334B9C42BF
:1029400031D0334B9C4230D0324B9C4208BFEC68B4
:10295000B4F90C3023F020035807A3819AB206D4AF
:10296000D1064FD512073BD443F00403A381636B18
:10297000F6B2E3B16268A36B9A4205DB21462846B2
:10298000FFF796FF00283DD123685A1E226003F806
:10299000016C636801336360304670BDFEF7B2F8C6
:1029A0001A4B9C42CDD16C68D2E7AC68D0E7236962
:1029B00022682BB1934203D212F8013CB3421BD0E0
:1029C000616821642346E26304F144010322A263A7
:1029D000616303F8466F0122C4E90032304670BDDE
:1029E00021462846FDF728FF60B9B4F90C30A060F5
:1029F00023F00803A061B7E76368013A0133C4E933
:102A00000023C9E74FF0FF36C6E700BFFC3F0008D0
:102A1000DC3F0008BC3F000810B4044C03460A46E3
:102A2000206810BC1946FFF77FBF00BF00000020E0
:102A300070B50C46084D03460026204611461C463C
:102A40002E6000F0D5FB431C00D070BD2B68002B1E
:102A5000FBD0236070BD00BF080100209368002BED
:102A600000F081802DE9F04FB1F90C300C461907C8
:102A7000804683B0174698B223D523690BB310F074
:102A800002033D682BD04FF0000ADFF8B4B256467F
:102A90005E453346524628BF5B464046002E4FD027
:102AA000216AD4F828C0E047002852DDBB681B1A11
:102AB0008244361ABB60002BEAD1002003B0BDE887
:102AC000F08F21464046FEF723FC002840F0348179
:102AD000B4F90C303D6898B210F00203D3D110F075
:102AE000010942D14E463EB38205D4F808B040F108
:102AF0008180B3455A4600F2B18010F4906F40F0E7
:102B0000BE8020680192494600F01CFAA368216843
:102B1000019AA3EB0B030A44B246A360226000268D
:102B2000B868A0EB0A00D144B8600028C5D0B4F959
:102B30000C0080B2002ED7D1D5E900960835D2E737
:102B4000D5E900A60835A3E721464046FDF774FE07
:102B500080B3B4F90C3043F040034FF0FF30A38151
:102B600003B0BDE8F08F002070471E46AA46994684
:102B700018461D4656B388B34A46D4E90413206864
:102B8000B24228BF3246884205D9A16803EB010B47
:102B90005A4500F3A780934264DC216AD4F828C028
:102BA0002A464046E047B0F1000BD2DDB9EB0B09F5
:102BB000CAD00120BB68A3EB0B035D44A6EB0B0658
:102BC000BB60002B3FF479AF002ED4D10AF108038B
:102BD00053E902569A460833002EF9D032460A21AC
:102BE000284600F0C5F8002800F09D800130A0EBD9
:102BF0000509C1E720682369984217D86369B34281
:102C000014D86FF00042B24228BF3246216A92FBCC
:102C1000F3F2D4F828C002FB03F340464A46E047EB
:102C2000B0F1000A95DDA6EB0A0679E7B345DA466E
:102C300028BFB2465246494600F084F9A36822688C
:102C4000A3EB0A035244A3602260002BEBD1214680
:102C50004046FDF7F1FD0028E5D07AE72068B3464D
:102C600032464FE72946019200F06CF9019AA368B9
:102C70009B1AA360236813442360934696E7236856
:102C80002169A3EB010B636903EB430A0AEBDA7AD0
:102C90000BF101034FEA6A0A33445345524684BF9D
:102CA0009A46524643052CD511464046FEF78EF80B
:102CB00000283BD05A462169019000F0A9F8A2896A
:102CC000019B22F4906242F08002A28103EB0B0090
:102CD0002361AAEB0B03C4F814A0A3602060B346E1
:102CE00032460FE729465A4600F02CF923685B4428
:102CF000236021464046FDF79FFD00283FF456AF74
:102D000027E7404600F09AF903460028DED1216902
:102D10004046FDF7FDFFB4F90C300C2223F0800390
:102D2000C8F8002017E7721C914626E70C22B4F978
:102D30000C30C8F800200EE74FF0FF30BEE600BFB1
:102D400000FCFF7F38B5074D0022044608462A6084
:102D500000F056FA431C00D038BD2B68002BFBD086
:102D6000236038BD080100200000000000000000C2
:102D700001F0FF01102A2BDB10F0070F08D010F82C
:102D8000013B013A8B422DD010F0070F42B3F6D130
:102D9000F0B441EA012141EA014122F007047FF049
:102DA00000070023F0E80256083C85EA010586EAA0
:102DB000010685FA47F5A3FA87F586FA47F6A5FADC
:102DC00087F68EB9EED1F0BC01F0FF0102F00702E8
:102DD00032B110F8013B013A83EA010313B1F8D193
:102DE0000020704701387047002D06BF3546033874
:102DF000073815F0010F07D1013015F4807F02BFAD
:102E0000013015F4C03F0130F0BC0138704700BFFD
:102E1000844641EA000313F003036DD1403A41D3E5
:102E200051F8043B40F8043B51F8043B40F8043BA4
:102E300051F8043B40F8043B51F8043B40F8043B94
:102E400051F8043B40F8043B51F8043B40F8043B84
:102E500051F8043B40F8043B51F8043B40F8043B74
:102E600051F8043B40F8043B51F8043B40F8043B64
:102E700051F8043B40F8043B51F8043B40F8043B54
:102E800051F8043B40F8043B51F8043B40F8043B44
:102E900051F8043B40F8043B51F8043B40F8043B34
:102EA000403ABDD2303211D351F8043B40F8043BD4
:102EB00051F8043B40F8043B51F8043B40F8043B14
:102EC00051F8043B40F8043B103AEDD20C3205D3E4
:102ED00051F8043B40F8043B043AF9D2043208D0DC
:102EE000D2071CBF11F8013B00F8013B01D30B884E
:102EF00003806046704700BF082A13D38B078DD02C
:102F000010F003038AD0C3F10403D21ADB071CBFFD
:102F100011F8013B00F8013B80D331F8023B20F867
:102F2000023B7BE7043AD9D3013A11F8013B00F8A0
:102F3000013BF9D20B7803704B7843708B78837028
:102F40006046704788420DD98B1883420AD900EB3E
:102F5000020CBAB1624613F801CD02F801CD9942D4
:102F6000F9D170470F2A0ED8034602F1FF3C4AB14F
:102F70000CF1010C013B8C4411F8012B03F8012FDB
:102F80006145F9D1704740EA01039B0750D1A2F196
:102F9000100370B501F1200C23F00F0501F1100EA4
:102FA00000F11004AC441B095EF8105C44F8105C9E
:102FB0005EF80C5C44F80C5C5EF8085C44F8085C55
:102FC0005EF8045C44F8045C0EF1100EE64504F172
:102FD0001004E9D1013312F00C0F01EB031102F0E0
:102FE0000F0400EB031327D0043C24F003064FEA40
:102FF000940C1E441C1F8E465EF8045B44F8045F6C
:10300000B442F9D10CF1010402F0030203EB840392
:1030100001EB840102F1FF3C4AB10CF1010C013BD0
:103020008C4411F8012B03F8012F6145F9D170BDD3
:1030300002F1FF3C03469BE72246EBE7F8B5144656
:10304000F9B1CAB106460D4600F0C0F8A04202D35D
:103050002F463846F8BD21463046FDF7B7FE0746F5
:103060000028F6D022462946FFF7D2FE30462946F0
:10307000FDF74EFE3846F8BD2746FDF749FE3846B7
:10308000F8BDBDE8F8401146FDF7A0BE838903F006
:103090000903092B01D000207047FDF7F7BB00BFE3
:1030A000F8B50C46054610B18369002B2ED0424B73
:1030B0009C4230D0414B9C422FD0414B9C4208BF98
:1030C000EC68B4F90C3000229E0662609AB268D4B3
:1030D000500724D4D10667D5120744D443F0040323
:1030E000A3812369002B4AD0B4F90C60B307B7B2AF
:1030F00028D12269666A6369216A22602846B0473E
:1031000000286060C8BF00203EDDF8BDFDF7FAFC76
:10311000294B9C42CED16C68D3E7AC68D1E7616B98
:103120000029DED004F14403994202D02846FDF77D
:10313000EFFD236C636000206063002BD1D0E36B54
:103140002360F8BD0123A3811E4B1F49186807F0B7
:103150000907FDF7F7FC092FA681CAD121462846A9
:10316000FDF7E8FAC5E721462846FDF765FBC0B93B
:10317000B4F90C30A06023F00803A061AEE721464B
:103180002846FEF7DBF9AFE7A38905D143F020031A
:103190004FF0FF30A381F8BD002243F0400362608E
:1031A000A3814FF0FF30F8BD092243F040032A60AD
:1031B0004FF0FF30A381F8BDFC3F0008DC3F000862
:1031C000BC3F00081C4000088D30000851F8040C7A
:1031D0000028A0F10400BCBF0B58C018704700BF06
:1031E000024B58221A604FF0FF3070470801002050
:1031F000024B58221A604FF0FF3070470801002040
:10320000024B58221A600020704700BF08010020BE
:10321000024B58221A604FF0FF307047080100201F
:10322000024B58221A604FF0FF307047080100200F
:10323000024B58221A604FF0FF30704708010020FF
:103240002DE9F047284DDFF8A480294FA4B000F005
:1032500057F800F095F800F0D1F82648FDF7AAFEDF
:103260002B689868FDF712FB00260DF1100A002468
:10327000D146FDF7BFFC431CF7D00A280AF8010B22
:1032800004F1010401D07F2CF3D104F190030DEB84
:103290000304002304F8803C01AA02AB41464846DF
:1032A00001960296FDF7A0FE012807DC1248FDF703
:1032B00081FE2B689868FDF7E9FAD6E700F0C2F8BE
:1032C00002990198FCF7C0FF0390039B3B6000F05C
:1032D000C0F80398FDF7D0F902460B4607480921CC
:1032E000FDF7E4FDE5E700BF000000203A410008DB
:1032F000800000202D410008404100084A4100089C
:1033000070B596B0002403264FF4A0230CA8012525
:10331000CDE90C631094149400F0AAF80F23214611
:1033200002A8CDE90235CDE90444069400F00EFB75
:10333000114B5A6942F400225A615B69CDE9094692
:1033400003F400230D4C0193019B07A94FF4C043E4
:103350002046CDE9073500F09FFB2A4620464FF472
:10336000005100F05DFC2A464FF48041204600F0F9
:1033700057FC16B070BD00BF0010024000080048A6
:1033800010B54FF4C06288B00223CDE903230121B8
:103390000323CDE90513164C07230793636943F410
:1033A00000336361636903F40033019303A94FF0B1
:1033B0009040019B00F070FB0E48DFF83CC04FF4DA
:1033C0001643C0E900C30023C0E9023303618361EF
:1033D0000C234361A36943F48043A361A36903F40D
:1033E00080430293029B00F06FFD08B010BD00BF48
:1033F000001002408400002000380140104B30B51E
:103400005A6942F400325A615B6987B003F40033B1
:103410000093009B4FF480540123CDE90143002524
:10342000032301A94FF09040CDE9035300F034FB92
:103430002A4621464FF0904000F0F2FB07B030BD25
:103440000010024001224FF480514FF0904000F0F4
:10345000E7BB00224FF480514FF0904000F0E0BBFA
:10346000024B1868421C1A60704700BFF40000202D
:1034700003682DE9F341D907044611D423689A075C
:1034800000F1868023681E0700F1F48023685D0741
:1034900000F14081E269002A40F0CB81002021E068
:1034A0009A494B6803F00C03042B07D04B6803F0D8
:1034B0000C03082B19D14B68DB0316D54FF40033EE
:1034C00093FAA3F2096893FAA3F3B3FA83F303F030
:1034D0001F03012202FA03F30B42CFD06368002BD3
:1034E000CCD1012002B0BDE8F0816268B2F5803F26
:1034F00024D10B6843F480330B60CB6AA06823F0BF
:103500000F030343CB624AB3FFF7AAFF4FF4003621
:103510000546012796FAA6F30A6896FAA6F3B3FAC7
:1035200083F303F01F0307FA03F31342A6D1FFF757
:1035300097FF401B6428EDD90320D3E70B6832B90D
:1035400023F480330B600B6823F48023D4E7B2F5B7
:10355000A02FF5D143F480230B60CAE7FFF780FF6B
:103560004FF400360546012796FAA6F30A6896FA44
:10357000A6F3B3FA83F303F01F0307FA03F313422E
:103580003FF47CAFFFF76CFF401B6428ECD9D3E716
:103590005E494B6813F00C0F07D04B6803F00C0327
:1035A000082B21D14B68DF031ED4022393FAA3F228
:1035B000086893FAA3F3B3FA83F303F01F0301221D
:1035C00002FA03F3034202D02369934289D10868C7
:1035D000F82393FAA3F3B3FA83F26369934020F0DC
:1035E000F80213430B604DE72269012502B395FAF7
:1035F000A5F3B3FA83F303F1845303F584139B001B
:1036000002271D60FFF72CFF064697FAA7F30A680A
:1036100097FAA7F3B3FA83F303F01F0305FA03F352
:103620001342D4D1FFF71CFF801B0228EDD983E79A
:1036300095FAA5F3B3FA83F303F1845303F58413E6
:103640009B0002271A60FFF70BFF064697FAA7F3C5
:103650000A6897FAA7F3B3FA83F303F01F0305FA96
:1036600003F313423FF40EAFFFF7FAFE801B02286C
:10367000ECD961E7A269254D2548012112B391FAE1
:10368000A1F3B3FA83F303449B0002261960FFF70A
:10369000E7FE074696FAA6F396FAA6F396FAA6F37D
:1036A0006A6A96FAA6F3B3FA83F303F01F0301FAEA
:1036B00003F313427FF4EAAEFFF7D2FEC01B0228E9
:1036C000E8D939E791FAA1F3B3FA83F303449B00F5
:1036D00002261A60FFF7C4FE074696FAA6F396FA8A
:1036E000A6F396FAA6F36A6A96FAA6F3B3FA83F3F8
:1036F00003F01F0301FA03F313423FF4C7AEFFF7D1
:10370000AFFEC01B0228E8D916E700BF0010024038
:10371000208190108A49CB69D80033D4CB6943F01B
:103720008053CB61CB6903F080530193019B01254A
:10373000844E3368DA0527D5E368012B34D10B6A50
:1037400043F001030B62FFF78BFE022607464FF0A2
:10375000010896FAA6F396FAA6F3002B61D00A6A3E
:1037600096FAA6F3B3FA83F303F01F0308FA03F300
:1037700013424ED0002D3FF48DAECB6923F0805321
:10378000CB6187E60025D3E7336843F48073336069
:10379000FFF766FE07463368DB05CDD4FFF760FE12
:1037A000C01B6428F7D9C7E62BBB0B6A23F00103C3
:1037B0000B620B6A23F004030B62FFF751FE022633
:1037C00007464FF0010896FAA6F396FAA6F363B3FC
:1037D0000A6A96FAA6F3B3FA83F303F01F0308FA12
:1037E00003F31342C6D0FFF73BFE41F28833C01B00
:1037F0009842E8D9A0E6052B0B6A03D143F00403F5
:103800000B629CE723F001030B620B6A23F00403B5
:1038100098E7FFF725FE41F28833C01B984298D9FC
:103820008AE696FAA6F34A6A9AE796FAA6F34A6AED
:10383000CFE743494B6803F00C03082B3FF451AE2C
:10384000022A4FF0807354D193FAA3F3B3FA83F3AF
:1038500003F1845303F584139B0000221A60FFF7E1
:10386000FFFDDFF8E48006464FF00077012597FA68
:10387000A7F30A6897FAA7F3B3FA83F303F01F03D9
:1038800005FA03F313422ED1D4E908034A6803432F
:1038900022F4741213434B604FF0807393FAA3F336
:1038A000B3FA83F303F1845303F584139B00264F8B
:1038B0001D60FFF7D5FD4FF000750446012695FA0F
:1038C000A5F30A6895FAA5F3B3FA83F303F01F038F
:1038D00006FA03F313427FF4E1ADFFF7C1FD001BCD
:1038E000B842ECD928E6FFF7BBFD801B4045BED9A6
:1038F00022E693FAA3F3B3FA83F303F1845303F5B7
:1039000084139B0000221A60FFF7AAFD0E4F0446A5
:103910004FF00075012695FAA5F30A6895FAA5F30C
:10392000B3FA83F303F01F0306FA03F313423FF4E1
:10393000B5ADFFF795FD001BB842ECD9FCE500BF23
:103940000010024000700040400D0300504AF8B5DE
:10395000136803F007038B4204461BD322689007C9
:1039600024D4D2072AD44A4A136803F007038B42AF
:103970007AD82068430700F1828010F0080014D044
:10398000444A2169536823F4605343EAC1035360F6
:1039900000200AE0136823F007030B431360136849
:1039A00003F007038B42D9D00120F8BD3948A56840
:1039B000436823F0F0032B434360D2E76268354D40
:1039C000012A27D14FF4003393FAA3F0286893FA21
:1039D000A3F3B3FA83F303F01F0302FA03F30342E2
:1039E000E2D06B6823F003031A436A60FFF738FDE7
:1039F0006368012B064641F288371ED16B6803F0DD
:103A00000C03042BAFD0FFF72BFD801BB842F5D978
:103A10000320CAE7022A0CBF4FF00073022393FA77
:103A2000A3F02E6893FAA3F3B3FA83F303F01F0312
:103A3000012000FA03F33342D2E7022B0FD16B6867
:103A400003F00C03082B8ED0FFF70AFD801BB84251
:103A5000F5D9DDE7FFF704FD801BB842D8D86B68C5
:103A600013F00C0FF6D17EE7136823F007030B4326
:103A70001360136803F007038B4295D179E705497A
:103A8000E3684A6822F4E0621A434A6075E700BFBF
:103A900000200240001002402DE9F74FDFF874814A
:103AA0005D4C00234FF001090A6832FA03F502D198
:103AB00003B0BDE8F08F09FA03FA1AEA020200F037
:103AC0009E804D6825F0100EBEF1020F14D14FEA12
:103AD000D30C00EB8C0C03F0070BDCF820604FEAF2
:103AE0008B0B0F2707FA0BF726EA07070E6906FA72
:103AF0000BF63E43CCF82060D0F800B04FEA430C00
:103B0000032606FA0CF72BEA070BFE4305F0030722
:103B100007FA0CF70EF1FF3E47EA0B07BEF1010F63
:103B2000076011D8876806EA070ECF6807FA0CF716
:103B300047EA0E078760476827EA0A0AC5F30017B5
:103B40009F4047EA0A074760C76837408E6806FA11
:103B50000CF63E43C660EE0051D5D8F8186046F02A
:103B60000106C8F81860D8F8186023F0030707F1B9
:103B7000804706F0010607F58037019603F0030E33
:103B8000019EBE684FEA8E0E4FF00F0C0CFA0EFC31
:103B9000B0F1904F26EA0C0C33D0204EB04232D018
:103BA00006F58066B04230D006F58066B0422ED071
:103BB00006F58066B0420CBF0426052606FA0EF60E
:103BC00046EA0C06BE602668D74315F4803F0CBF5A
:103BD0003E4016432660666815F4003F0CBF3E4029
:103BE00016436660A66815F4801F0CBF3E4016435E
:103BF000A660E668AD0254BF3E401643E66001335E
:103C000052E70026DAE70126D8E70226D6E70326A0
:103C1000D4E700BF00100240000401400004004847
:103C20000AB1816170478162704700000268816853
:103C3000C36930B5056914682943456924F41644FD
:103C4000294324F00C041943214311605168C468CE
:103C5000056A21F44051214351609468816924F43C
:103C6000306429432143916062498A4216D101F5AB
:103C70005841096B01F003010139022900F2B280B9
:103C80005D4CB3F5004F615C77D1082972D8DFE84D
:103C900001F0ACAC2471AC717171A40057498A4237
:103CA0002CD101F5E631096B01F44031B1F5003F4B
:103CB00000F090800BD8002900F09480B1F5803F8F
:103CC00000F09080B3F5004F54D0012015E0B1F51D
:103CD000403FF7D1B3F5004F66D141684B0803F17F
:103CE000F47303F59043B3FBF1F300209BB223F090
:103CF0000F01C3F342030B43D36030BD40498A42F6
:103D000010D101F5E431096B01F44021B1F5002F28
:103D100060D004D8002965D0B1F5802FD0E7B1F587
:103D2000402FD6E737498A4210D101F5E231096BBD
:103D300001F44011B1F5001F4CD004D8002951D036
:103D4000B1F5801FBCE7B1F5401FC2E72E498A429A
:103D5000B8D101F5E031096B01F44001B1F5000F74
:103D600038D004D800293DD0B1F5800FA8E7B1F5CF
:103D7000400FAEE701200023B9E70829A5D801A329
:103D800053F821F0C13D0008C13D0008A93D0008DD
:103D9000CB3C0008C13D0008CB3C0008CB3C0008F0
:103DA000CB3C0008CB3D000841684B0803F5740389
:103DB00003F51053B3FBF1F39BB2D36000209CE7F3
:103DC00041684B0803F5E103F4E741684B0803F54C
:103DD0000043EFE7B3F5004FF7D141684B0803F517
:103DE000803380E7B3F5004FEAD141684B0803F513
:103DF000610378E700380140B83F00080044004004
:103E000000480040004C004000500040F8B5069FBC
:103E1000044615461E462268D36931EA03030CBFE7
:103E200001230023AB4201D0002014E07B1CF3D01F
:103E300097B923681A6822F4D0721A609A6822F03F
:103E400001029A60202384F8693084F86A300023E4
:103E500084F868300320F8BDFFF702FB801BB842EE
:103E6000D9D9E6E737B504460021C166FFF7F8FA6D
:103E700023681B681A07054617D423681B685B076D
:103E80000AD56FF07E43009300222B464FF4800149
:103E90002046FFF7BBFFA0B92023002084F869303B
:103EA00084F8680084F86A300CE06FF07E43009379
:103EB0000A4603464FF400112046FFF7A7FF0028EB
:103EC000DBD0032003B030BD10B5044628B390F812
:103ED000693003F0FF020BB980F8682022682423C0
:103EE00084F86930136823F0010313602046FFF75C
:103EF0009DFE012811D023685A6822F490425A602E
:103F00009A6822F02A029A601A6842F0010220465A
:103F10001A60BDE81040FFF7A5BF012010BD0000EA
:103F20000A4A116808B5034609B9094911601068C1
:103F3000694603448B4206D9FCF7F6FB0C23036069
:103F40004FF0FF3008BD1360FCE700BFFC0000200D
:103F500010010020002103E00B4B5B58435004315B
:103F60000A480B4B42189A42F6D30A4A02E0002351
:103F700013600432084B9A42F9D3AFF30080FCF788
:103F800051FEFFF75DF9FEE7BC410008000000208C
:103F900064000020640000200C010020FEE7000007
:103FA000F8B500BFF8BC08BC9E467047F8B500BF26
:083FB000F8BC08BC9E467047F6
:103FB80004080200000000000000000000000000EB
:103FC80000000000000000000000000000000000E9
:103FD80000000000000000000000000000000000D9
:103FE80000000000000000000000000000000000C9
:103FF80000000000000000000000000000000000B9
:1040080000000000000000000000000000000000A8
:1040180000000000040000209441000898410008B6
:104028009C41000800202020202020202020282833
:104038002828282020202020202020202020202060
:1040480020202020208810101010101010101010A0
:1040580010101010100404040404040404040410D0
:10406800101010101010414141414141010101015E
:104078000101010101010101010101010101010128
:104088001010101010104242424242420202020234
:1040980002020202020202020202020202020202F8
:1040A80010101010200000000000000000000000A8
:1040B80000000000000000000000000000000000F8
:1040C80000000000000000000000000000000000E8
:1040D80000000000000000000000000000000000D8
:1040E80000000000000000000000000000000000C8
:1040F80000000000000000000000000000000000B8
:1041080000000000000000000000000000000000A7
:104118000000000000000000000000000000000097
:10412800000000000046505F4D554C5F5245414429
:1041380059002566202566004241445F494E505586
:104148005400524553554C5420252E2A670A000026
:10415800686C4C00232D302B2000000065666745F5
:10416800464700003031323334353637383941422A
:104178004344454600000000303132333435363789
:104188003839616263646566000000002B2D000009
:104198003030000078580000412D46612D663839CE
:0C41A80030313233343536375D00000012
:0441B40029020008D4
:0441B80001020008F8
:1041BC000400002000000000FC3F0008DC3F000869
:1041CC00BC3F0008000000000000000000000000E0
:1041DC0000000000000000000000000000000000D3
:1041EC0000000000000000000000000000000000C3
:1041FC0000000000000000000000000000000000B3
:10420C0000000000000000000000000000000000A2
:04421C00000000009E
:0400000508003F555B
:00000001FF
