:020000040040BA
:1000000008120020E9024000E5024000E50240003D
:10001000E5024000E5024000E5024000000000006B
:10002000000000000000000000000000E5024000A9
:10003000E502400000000000E5024000E50240004B
:10004000E5024000E5024000E5024000E502400014
:10005000E5024000E5024000E5024000000000002B
:10006000E5024000E502400000000000E50240001B
:10007000E502400000000000E5024000E50240000B
:100080000000000000000000E5024000E502400022
:10009000E5024000E5024000E5024000E5024000C4
:1000A000E5024000E5024000000000000000000002
:1000B00000000000E5024000E5024000E5024000CB
:1000C000E5024000E5024000E50240000348044B21
:1000D000834202D0034B03B118477047B865400014
:1000E000B865400000000000054806490B1AD90F0A
:1000F00001EBA301491002D0034B03B1184770472D
:10010000B8654000B86540000000000010B5064C1E
:10011000237843B9FFF7DAFF044B13B10448AFF378
:1001200000800123237010BDD801002000000000D2
:10013000B865400008B5044B1BB104490448AFF34F
:100140000080BDE80840CFE700000000DC0100208F
:10015000B865400038B5044D04462078A84714F827
:10016000013F002BF9D138BD790440002DE9F04161
:10017000DFF8308004460E460025B5420DDA6719D7
:10018000C047C0B260550028FAD00A2803D1002326
:100190003B70BDE8F0810135EFE73444002304F8FB
:1001A000013CF6E79504400000B589B06846054B70
:1001B00020219847044B68469847044B984709B05C
:1001C0005DF804FB6D014000A50D4000E90A400008
:1001D0001FB502460449054B68469847044B6846DC
:1001E000984705B05DF804FBF45F4000F51040004F
:1001F0005501400008B5044B9847044B9847044B01
:100200004FF04051984708BD31104000FD0C4000B0
:10021000810940002DE9F04F224B234CDFF88CA0E0
:10022000DFF88CB085B09847224B9847224B98470F
:100230002248A047224ADFF88C90234E1046A04760
:10024000D0478046D04707465846A0474046C84753
:100250001E48A0473846C847B0470546B0471C4B24
:10026000064698471B4B88EA050187EA060098472F
:10027000184B019031462846984702900199029BFD
:100280004B400393144B019919600299196003992B
:100290001960124B98471248A0470398C847084A6C
:1002A000C9E700BF7D03400055014000A90140009F
:1002B0001E60400015044000B9044000FC5F40008F
:1002C0000A604000D1014000F50140002860400074
:1002D000F904400081094000F4010020D9044000E5
:1002E00033604000FEE7000019491A48814210B50A
:1002F00020D9194BDA1C121A22F00302C41EA342A1
:1003000038BF0022154B984700BF154B1548DA1C23
:10031000121AC11E22F00302994288BF0022124B1A
:1003200000219847114B124A9A60124B9847124B82
:100330009847FEE7E8D2084B0A1F181A1044C1F18B
:100340000401C842E0D050F8042943F8042DF8E72E
:10035000B865400000000020D8010020F50D4000E5
:1003600008020020D8010020290F400000ED00E025
:1003700000004000AD0D400015024000184B4FF446
:10038000004270B500205A65164D174C174EA8470D
:100390000120A8470520A847154B0020984715487D
:1003A000A047154B00209847144B3E210120984749
:1003B000B0470028FCD0124B00209847114B9847BB
:1003C0001148A047114A136823F0806313600B2083
:1003D000A847BDE870400E4B4FF060510F20184702
:1003E00000140E4025094000E107400015094000B7
:1003F00065094000000E270745084000C908400075
:10040000850840001507400010757000000A0E4076
:10041000690640001FB5104B104C4FF41642CDE951
:1004200001324FF40063039308200D4B984701A954
:100430000C4B2046984720460B4B98470B4B2046C9
:1004400098470B4C0B490920A0474FF000610A2048
:10045000A04704B010BD00BF90AD710000060E4073
:100460002509400019054000530540004D05400096
:10047000690640000100000870B5044E044D0446B2
:1004800021463046A8470028FAD170BD00060E402C
:100490005905400037B5064D064C0DF107012846B9
:1004A000A0470028F9D19DF8070003B030BD00BF78
:1004B00000060E406705400010B5054B0B2098471D
:1004C000BDE81040034B4FF040510720184700BFD4
:1004D000250940006906400010B5054B07209847E4
:1004E000BDE81040034B4FF040510720184700BFB4
:1004F0004F0640006906400010B5054B072098479D
:10050000BDE81040034B4FF060510720184700BF73
:100510003506400069064000AC2310B50360D1E900
:100520000032B3FBF2F31B095C1E4FF6FE729442DD
:100530000AD803628B68436040F20223C0F820317E
:1005400050230360002010BD0120FCE7402303601E
:10055000704710230360704743699B0746BFC16122
:100560000020012070474369DB0743BF83690B709C
:10057000002001207047B1F1C05F426426D007D847
:10058000B1F1006F12D0B1F1805F1CD061B970473A
:10059000B1F1005F23D007D3B1F1405F05D021F066
:1005A0008051B1F1205F00D042607047016F036F4E
:1005B0000B4023EA02030367416F436F0B4023EABA
:1005C00002034367F0E7036F1343F4E7016F036F20
:1005D0000B4023EA02030367436F1343F1E7036F02
:1005E0001343F8E7D30741644CBF4166016612F03C
:1005F0000A0F14BF01624162930704D5C0F880104E
:10060000416101607047130748BFC0F88410F7E7E5
:1006100010B5029C41643CB141663BB101653AB101
:1006200001630161016010BD0166F6E74165F6E70F
:100630004163F6E7430903F5001303F207735B0216
:1006400000F01F00012202FA00F01863704743090E
:1006500003F5001303F207735B0200F01F00012291
:1006600002FA00F05863704773B5044640090D461E
:1006700000F5001001F0F04100F20770B1F1005FE9
:100680004FEA40201ED00CD8B1F1805F1AD0B1F1F2
:10069000C05F17D0B1F1006F14D00026304602B011
:1006A00070BD05F0E043B3F1405F19D0B1F1205FB8
:1006B000F3D104F01F040126134B2A4606FA04F175
:1006C0009847EBE704F01F02012404FA02F20F4BF3
:1006D000984715EA040612BF426602662646DDE721
:1006E00005F06052012602F1484105EA06034A423C
:1006F00004F01F0400934A41C5F3800306FA04F195
:10070000034CA047CAE700BFE5054000770540005D
:100710001106400010B52C4A2C4B116B01F003015F
:1007200001292AD0023901291DD8116ACC0148D4E7
:1007300027491960116A01F0700110293ED0202963
:100740003FD0106B196800F0030002280BBF946AB9
:10075000D46A906AD06AC4F30A4404FB0111C0B29F
:10076000B1FBF0F107E01B49496A08064CBF4FF4A2
:1007700000414FF4FA4119600DE0116AC90101D539
:100780001549F8E712491960116A01F07001102942
:1007900012D02029F4D0106B196800F07000702876
:1007A0001BBF126BC2F30212032221FA02F208BF2E
:1007B000B1FBF2F21A6010BD0849DCE70749196085
:1007C000BFE70549FBE700BF00040E400000002022
:1007D00000093D0000140E40001BB70000127A0013
:1007E0000E4B98420E4B03D84FF080621A60704750
:1007F0000C4A904201D20C4AF8E70C4A904201D2CE
:100800000B4AF3E70B4A904201D80B4AEEE70B4A3A
:1008100090428CBF0A4A4FF00422E7E7FF2C3101D7
:10082000000A0E40005A6202000100040087930390
:1008300000020004FFB3C40400030004FFE0F50558
:10084000000500040E4B1A6B22F003021A6340F6F7
:100850000102996E09070BD51A6B22F07002104342
:10086000186340F60102996E090705D5002070470C
:10087000013AEED101207047013AF4D1FAE700BF06
:1008800000040E400F4B1A6B22F0030242F00102EB
:100890001A6340F60102996E09070BD51A6B22F014
:1008A00070021043186340F60102996E090705D5DE
:1008B00000207047013AEED101207047013AF4D18F
:1008C000FAE700BF00040E400F4A30B1136A0F4927
:1008D00019400F4B0B4313627047106A0B0220F450
:1008E0005C119BB221F003010B4343F45C1343F012
:1008F00001031362936EDB07FCD5136A43F09B730D
:1009000043F48033E7E700BF00040E40FCFFC8FE5D
:1009100002003701024B986E00F48030704700BF30
:1009200000040E40222818D81F280D4A4FF001035A
:1009300008D8916903FA00F030EA010300D0106191
:1009400000207047D2F80811203803FA00F030EA8E
:100950000103F5D0C2F80001F2E70120704700BFA3
:1009600000040E40034B18B1034AC3F8E42070475B
:10097000024AFAE700040E4001434D5000434D5037
:100980004FF0FF0C1CEAD0521EBF1CEAD15392EA72
:100990000C0F93EA0C0F6FD01A4480EA010C40024E
:1009A00018BF5FEA41211ED04FF0006343EA5010A8
:1009B00043EA5111A0FB01310CF00040B1F5000FEA
:1009C0003EBF490041EAD3715B0040EA010062F199
:1009D0007F02FD2A1DD8B3F1004F40EBC25008BF83
:1009E00020F00100704790F0000F0CF0004C08BFA1
:1009F00049024CEA502040EA51207F3AC2BFD2F16E
:100A0000FF0340EAC250704740F400004FF000037B
:100A1000013A5DDC12F1190FDCBF00F000407047B5
:100A2000C2F10002410021FA02F1C2F1200200FAF3
:100A300002FC5FEA310040F1000053EA4C0308BFBA
:100A400020EADC70704792F0000F00F0004C02BF0B
:100A5000400010F4000F013AF9D040EA0C0093F086
:100A6000000F01F0004C02BF490011F4000F013BE0
:100A7000F9D041EA0C018FE70CEAD15392EA0C0F4E
:100A800018BF93EA0C0F0AD030F0004C18BF31F0B9
:100A9000004CD8D180EA010000F00040704790F08F
:100AA000000F17BF90F0004F084691F0000F91F033
:100AB000004F14D092EA0C0F01D142020FD193EAF9
:100AC0000C0F03D14B0218BF084608D180EA010081
:100AD00000F0004040F0FE4040F40000704740F05D
:100AE000FE4040F4400070474FEA4102B2F1E0435B
:100AF00024BFB3F5001CDCF1FE5C0DD901F0004C05
:100B00004FEAC0024CEA5070B2F1004F40EB830054
:100B100008BF20F00100704711F0804F21D113F180
:100B20003872BCBF01F00040704741F480114FEAB9
:100B30005252C2F11802C2F1200C10FA0CF320FA42
:100B400002F018BF40F001004FEAC1234FEAD3235F
:100B500003FA0CFC40EA0C0023FA02F34FEA4303C9
:100B6000CCE77FEA625307D150EA01331EBF4FF052
:100B7000FE4040F44000704701F0004040F0FE406D
:100B800040F40000704700BF80F0004002E000BF6A
:100B900081F0004142001FBF5FEA410392EA030F68
:100BA0007FEA226C7FEA236C6AD04FEA1262D2EBB2
:100BB0001363C1BFD218414048404140B8BF5B42B7
:100BC000192B88BF704710F0004F40F4000020F050
:100BD0007F4018BF404211F0004F41F4000121F066
:100BE0007F4118BF494292EA030F3FD0A2F10102B0
:100BF00041FA03FC10EB0C00C3F1200301FA03F1EE
:100C000000F0004302D5494260EB4000B0F5000F10
:100C100013D3B0F1807F06D340084FEA310102F1CF
:100C20000102FE2A51D2B1F1004F40EBC25008BF81
:100C300020F0010040EA03007047490040EB00004B
:100C4000013A28BFB0F5000FEDD2B0FA80FCACF14C
:100C5000080CB2EB0C0200FA0CF0AABF00EBC25079
:100C600052421843BCBFD0401843704792F0000F67
:100C700081F4000106BF80F400000132013BB5E7BA
:100C80004FEA41037FEA226C18BF7FEA236C21D030
:100C900092EA030F04D092F0000F08BF0846704795
:100CA00090EA010F1CBF0020704712F07F4F04D163
:100CB000400028BF40F00040704712F100723CBF76
:100CC00000F50000704700F0004343F0FE4040F4A0
:100CD000000070477FEA226216BF08467FEA23635E
:100CE0000146420206BF5FEA412390EA010F40F449
:100CF000800070474FF0000304E000BF10F0004395
:100D000048BF40425FEA000C08BF704743F096437B
:100D100001464FF000001CE050EA010208BF704796
:100D20004FF000030AE000BF50EA010208BF70471D
:100D300011F0004302D5404261EB41015FEA010C32
:100D400002BF84460146002043F0B64308BFA3F12A
:100D50008053A3F50003BCFA8CF2083AA3EBC2530C
:100D600010DB01FA02FC634400FA02FCC2F120022B
:100D7000BCF1004F20FA02F243EB020008BF20F062
:100D80000100704702F1200201FA02FCC2F12002C8
:100D900050EA4C0021FA02F243EB020008BF20EABD
:100DA000DC707047002101F071B900BF70B50D4EC5
:100DB0000D4D761BB61006D0002455F8043B0134C7
:100DC0009847A642F9D1094E094D761B05F0E4FB80
:100DD000B61006D0002455F8043B01349847A642CB
:100DE000F9D170BDA4654000A4654000A86540002D
:100DF000A4654000844641EA000313F003036DD16B
:100E0000403A41D351F8043B40F8043B51F8043BCD
:100E100040F8043B51F8043B40F8043B51F8043BD4
:100E200040F8043B51F8043B40F8043B51F8043BC4
:100E300040F8043B51F8043B40F8043B51F8043BB4
:100E400040F8043B51F8043B40F8043B51F8043BA4
:100E500040F8043B51F8043B40F8043B51F8043B94
:100E600040F8043B51F8043B40F8043B51F8043B84
:100E700040F8043B51F8043B40F8043B51F8043B74
:100E800040F8043B403ABDD2303211D351F8043B14
:100E900040F8043B51F8043B40F8043B51F8043B54
:100EA00040F8043B51F8043B40F8043B103AEDD2C3
:100EB0000C3205D351F8043B40F8043B043AF9D214
:100EC000043208D0D2071CBF11F8013B00F8013BE7
:100ED00001D30B8803806046704700BF082A13D3F4
:100EE0008B078DD010F003038AD0C3F10403D21A0C
:100EF000DB071CBF11F8013B00F8013B80D331F840
:100F0000023B20F8023B7BE7043AD9D3013A11F8BF
:100F1000013B00F8013BF9D20B7803704B7843702A
:100F20008B78837060467047830730B548D0541E75
:100F3000002A3FD0CAB2034601E0013C3AD303F88D
:100F4000012B9D07F9D1032C2DD9CDB245EA0525FA
:100F50000F2C45EA054536D9A4F1100222F00F0CFA
:100F600003F1200EE6444FEA121C03F1100242E99D
:100F7000045542E9025510327245F8D10CF10102D4
:100F800014F00C0F03EB021204F00F0C13D0ACF1B1
:100F9000040323F003030433134442F8045B934235
:100FA000FBD10CF003042CB1CAB21C4403F8012B92
:100FB0009C42FBD130BD64461346002CF4D1F9E7C6
:100FC00003461446BFE71A46A446E0E738B5124B7D
:100FD0001D68AA6B04461AB10023C2E9044338BD58
:100FE000182001F067FD0246A86378B101200021B6
:100FF000C2E90401094B0A480A499160C2E90003A9
:101000000B2393810023C2E9044338BD064B0748F4
:10101000422101F0E7F800BF0400002034126DE621
:101020000E33CDABECDE0500446040005C60400058
:1010300038B5194B1C68A26B8AB1136917495469FA
:10104000174803FB01F100FB0411A3FB003001333F
:1010500041EB0001C2E9043121F0004038BD182005
:1010600001F028FD0246A06388B101240025C2E9F1
:1010700004450C4B0C4C09480C499160C2E90043F3
:101080000B2393810A4B0146C2E9043138BD094B59
:1010900009484E2101F0A6F8040000202DF4515813
:1010A0002D7F954C34126DE60E33CDABECDE050092
:1010B0002E7F954C446040005C6040000CB410B53D
:1010C0009CB01EAB6FF00044CDE9061402910849B4
:1010D00053F8042B059102A90193049402F01AFC21
:1010E000029B00221A701CB0BDE8104002B070478D
:1010F0000802FFFF0EB410B59DB06FF000411FABAA
:10110000CDE906010491094953F8042B0290084CDB
:101110000868019302A9059402F0FCFB029B0022DF
:101120001A701DB0BDE8104003B0704704000020E5
:101130000802FFFF000000002DE9F04F1C46984B0D
:101140001B68A1B0002581461846884608921C9568
:10115000049303F095F8002183460020CDE90601B1
:10116000CDF86C804246174612F8013B2D2B2FD844
:10117000DFE813F0A1002E002E002E002E002E001E
:101180002E002E002E00AF00AF00AF00AF00AF006A
:101190002E002E002E002E002E002E002E002E00DF
:1011A0002E002E002E002E002E002E002E002E00CF
:1011B0002E002E00AF002E002E002E002E002E003E
:1011C0002E002E002E002E002E0006042E00FC0302
:1011D00000220A92302B7ED0002209922F2B1C462F
:1011E00040F233854FF0000A38465646554612E025
:1011F0000130082D1B90C8BF0AEB8A0A0478C6BFCD
:1012000003EB4A03A3F1300AA2F130062F2C05F1BB
:101210000105234670DD06EB8602392C03EB420202
:10122000E6DD04995A4603F099F80346002835D1C3
:101230001B9A11465A441B9211F80B40002D40F0A6
:10124000AC85302C40F06485C2F1010153180132A5
:101250001B921478302CF9D0A4F13102082A00F244
:101260003883A4F1300E1B9C03F1010B00230125F0
:101270002746049306EB86060EEB46060023621C07
:101280001B926478A4F13001092900F2ED82013348
:101290008E46002940F0B8841B9CF0E70023652CA3
:1012A00004959B469E4601D0452C32D1002D7CD121
:1012B000099A1A4378D1089B13B1089BC3F80080A0
:1012C0004FF0000BCDF810B00499584621B0BDE89E
:1012D000F08F1B9247E77B7803F0DF03582B00F079
:1012E000748401371B973B78302BFAD0002B00F029
:1012F000CC800122099271E704995A4603F02EF836
:101300000346002800F0D68004954FF0000B5B46A2
:10131000DE4600220B92002D00F09380049A1346C3
:10132000002A08BF2B463046049304F005FA0B460A
:101330000246CDE906230B9B102DA3EB0B032C4695
:10134000A8BF1024092D0E9313DD164B03EBC40325
:1013500053E9122304F06AFACDE90601504604F07D
:10136000EBF902460B46DDE9060104F0A9F8CDE9E8
:1013700006010F2D00F3A7800E9B002B00F01884B0
:101380000E9B40F39283162B40F3F9840E9AC5F11D
:101390002503934280F20C850E9B2C1B1C4498E085
:1013A00084624000E06240000025DDF86C8008F1B6
:1013B00001021B9298F801402B2C00F087822D2C03
:1013C00000F0218200220E92A4F13002092A00F2DC
:1013D0001582302C05D11B9A01321B921478302CC7
:1013E000FAD0A4F13102082A93D81B990B914A1C18
:1013F0001B92A4F130004C782F2C09DC00F034BC97
:1014000001321B929CF801402F2CA1F1300006DD27
:1014100000EB8001392C944604EB4101F0DD0B997F
:10142000521A082A40F3208444F61F620B920E9A47
:10143000002A3FF470AF0B9A52420B92002D7FF4BA
:101440006DAF099A134320D1BEF1000F7FF433AF83
:10145000692C00F03B8400F34183492C00F0368472
:101460004E2C7FF428AFAC491BA801F033FA0028BA
:101470003FF421AF1B9B1B78282B00F06D85A748FC
:1014800002F0D8FE8346049103E04FF0000BCDF844
:1014900010B0089A0AB11B9B13600A9B002B3FF403
:1014A00013AF049901F1004304930499584621B005
:1014B000BDE8F08F1B9A049502EB0B011B9112F80B
:1014C0000B409B46DEE60E9B2C1B1C44002C40F37D
:1014D0000A8314F00F000AD0914901EBC001DDE945
:1014E0000623D1E9000104F0A1F9CDE9060134F0A9
:1014F0000F0340F08B8200230993049A00962B4639
:101500003946484601F0B8FB1390002800F0558397
:101510000B9BABEB03000E9B002BB4BF02460022DB
:101520000F9223EAE3730022934612939046139C92
:101530004846616801F0EEFA0746002800F0418154
:1015400022690232920004F10C010C30FFF752FCC8
:10155000DDE9060104910B461EA901911DA90B901E
:1015600002460091484601F027FF1C90002800F039
:1015700018810121484601F027FC8046002800F030
:1015800020811D9B002BC0F20F810F9A129D9E1887
:10159000099A1E9C9B1A2344624A013B9342C4F160
:1015A000360480F2AE80D21A1F2AA4EB020400F3A4
:1015B0001D814FF0010A00230AFA02FA0C93099BDD
:1015C00025443444A6421D443346A8BF2346AB42BB
:1015D000A8BF2B46002B02DDE41AED1AF61A0F9B6A
:1015E000002B00F3BE80002C00F3D2800E9B002B5A
:1015F00000F3DE80002D00F3EF80002E08DD414671
:101600003246484601F014FD8046002800F0D9809B
:101610001C993A46484601F09FFD8346002800F099
:10162000D0800026C368C6604146109301F074FD67
:10163000B042C0F2638400F0D2834146584601F0C4
:101640001DFF00224FF0804304460D4604F06AFB64
:1016500000286FD0109B002B00F0E180079B1193B6
:10166000314B314C0022CDE90C2335462F4E119AD7
:101670002F4B02EA060A9A4500F0FC80099B93B1C1
:10168000BAF1D46F0FD822A3D3E90023284621460C
:1016900004F048FB002840F087810D9B03F1D663DE
:1016A000A3EB0A030D93049E0B98DDE90C2331464E
:1016B000CDE9042301F0F6FD02460B46DDE9040105
:1016C00004F0B4F833460B9A03F0FAFECDE90601B4
:1016D0000E46099B23B9154B33409A4500F0028111
:1016E0001C99484601F056FA3946484601F052FA2C
:1016F0004146484601F04EFA5946484601F04AFA3A
:1017000015E700230C934FF0010A58E7AFF3008070
:101710000000C0FFFFFFDF419C604000FC60400014
:10172000E062400002FCFFFF0000F03F0000F07F9D
:101730000000E07FAE4B20462946002204F076F8F8
:10174000109B024605460C46002B64D101F1004374
:1017500014901593079B1193DDE91423CDE90C2315
:1017600084E741461A46484601F0F2FB804640B302
:1017700001461C9A484601F03DFB10B310901C999D
:10178000484601F007FA109B1C93002C7FF72EAF00
:101790001C992246484601F04BFC1C9000287FF41F
:1017A00025AFBA465E460FE0129A0F9ED51AEFE6B5
:1017B0003946129A484601F0CBFB074600287FF4D1
:1017C00019AFBA465E461C982223C9F80030894BEF
:1017D00004934FF0000BB4E039462A46484601F026
:1017E00027FC074600287FF408AFEAE7824A4FF05B
:1017F000010AD31A0AFA03F30C93E0E60022CDF8AB
:101800006C800B9287E501220E9208F102021B9276
:1018100098F80240D8E50B46CDE914239AE7DDE9B4
:101820000612002940F0AF80C2F313031192002B7F
:1018300040F0AF80714B00222046294604F068FA40
:10184000002840F0AE826A4B20462946002203F071
:10185000EDFF01F1004305460C4618901993DDE9B0
:101860001823CDE90C2301E7652C4FF0010E3FF45E
:101870009CAD19E5A2F154730793DDE90623DDE978
:101880000C01CDE9060110461946CDE90C2301F003
:1018900009FD02460B46DDE9060103F0C7FFDDE95D
:1018A0000C2303F00DFE564A0E409642CDE9060188
:1018B00076D9049A534B9A4202D10B9B013380D0C4
:1018C000504A4FF0FF33CDE9063209E700220E926D
:1018D0009BE7652C00F0FB80452C00F0F8804FF072
:1018E000010EAEE52846214604F0FCFA03F070FF35
:1018F0000B4602462146284603F0E0FD109C069D5B
:10190000C6F3130644EA050C5CEA060304460D46DA
:1019100000F0C28032A3D3E9002304F0F9F948B9FA
:1019200031A3D3E900232046294604F00FFA00280A
:101930003FF4D6AEDDE906341C9804945E46BA4600
:101940009B460146484601F025F95146484601F0BC
:1019500021F94146484601F01DF91399484601F026
:1019600019F93146484601F015F992E501230A9329
:101970007A1C1B927B78002B3FF49DAC174629E420
:1019800000230A93F4E7DDE90612012900F07481CF
:1019900011921D4B194C0022CDE90C23002565E660
:1019A00001F15476079694E62146284604F0EEF9B4
:1019B000012838BF012003F0BFFE109B02460546F8
:1019C0000C46002B40F0698101F1004316901793FB
:1019D000DDE91623CDE90C235FE600BFAFF30080FD
:1019E0009535A094FFFFDF3F35E5AF350000E03FC0
:1019F0000000E03F0000F07FE2FBFFFF0000F03F4F
:101A0000FFFF9F7CFFFFEF7F0000F0BFB3F59A7FE1
:101A100000F3D380102B4FEA2314A54B40F3C6826A
:101A2000DDE906019846099300239A4614F0010F58
:101A30000AF1010A4FEA640404D0D8E9002303F054
:101A4000F5FE0123012C08F10808EFD10BB1CDE917
:101A50000601099B03EBCA01079BA3F1547307938B
:101A6000DDE90623D1E9000103F0E0FE914BCDE969
:101A700006010B400A4690498B4200F29E80A1F578
:101A800080118B4240F21C828C494FF0FF33CDE92C
:101A900006310023099330E583A3D3E9002304F042
:101AA00037F900283FF41CAE44E71633FFF60BADC0
:101AB0000B9BABEB0302824B03EBC203DDE9060198
:101AC000D3E9002303F0DCFF83460491E1E4002224
:101AD000049293464FF0010EFFF7EABB6E2C3FF4E1
:101AE000C2ACFFF7E8BB3FF406AD644214F00F024E
:101AF0000AD0734B03EBC203DDE90601D3E90023EF
:101B000003F0BEFFCDE9060124113FF4F4AC1F2C15
:101B100035DC14F01003DDE9060118BF6A23DFF895
:101B2000A48109930023E20704D5D8E9002303F038
:101B30007DFE0123641008F10808F4D10BB1CDE952
:101B40000601099B93B1DDE90601C1F30A52C2F116
:101B50006B03002B0ADD1F2B40F350820020342B37
:101B6000069040F356824FF05C730793DDE906015F
:101B70000022002304F0C2F800283FF4BEAC222368
:101B80004FF0000BC9F80030CDF810B081E41E9B77
:101B900006931D9B03F233421F9B23F4801343EAF9
:101BA00002530793200742BF079B43F0004307936C
:101BB000DDE906349B4604946BE43E4A04922223FA
:101BC000C9F800304FF0000B63E40A9B01931CAB93
:101BD000029400933C4A1DAB1BA9484600F09CFBB5
:101BE00010F0070504463FF450AC062D40F09380FA
:101BF000089B0137002B3FF463AB4FF0000B1F60D5
:101C0000CDF810B0FFF760BB6A1C012B1B9C9B44F6
:101C1000104615D02B4403F1FF3C03E046009445E9
:101C20000DD001322B46082B154606EB8600F5D960
:101C3000102ADCBF0AEB8A0A4FEA4A0AEFE7981C2F
:101C4000082D5BDC0546FFF715BB04995A4638465C
:101C500002F084FB002800F0888000231D460493D6
:101C60009A461E46FFF751BB44F61F629042A8BF3A
:101C700010460B90FFF7DBBBDDE906341194002C16
:101C80007FF487AEBA465E4622234FF0000B1C98C5
:101C9000C9F80030CDF810B053E60B46CDE9162355
:101CA00096E600BFAFF300809535A094FFFFCF3FCD
:101CB000D06340000000F07F0000A07CFFFFEF7FBA
:101CC000E0624000C8604000A0604000AD491BA831
:101CD00000F000FE00283FF4EEAA1B9BAA49013B3E
:101CE0001BA81B9300F0F6FD10B91B9B01331B933F
:101CF000A64B04934FF0000BFFF7CBBB1028DCBFC3
:101D00000AEB8A0A01EB4A0A05460023FFF7B7BA35
:101D10000023FFF7A1BA1C9A3AB135211EA801F0A1
:101D2000F7FB1C99484600F035FF013D042D3FF6B6
:101D300039AF01A353F825F08F1B4000611D40000F
:101D40005B1D40004D1D40008F1B40004FF0FF33D6
:101D50006FF00045CDE9063524E78C4B079321E76A
:101D60001E9B06931F9B07931CE71B9A13465A441E
:101D70001B9213F80B4006468246FFF762BA0E9894
:101D8000834901EBC001DDE90623D1E9000103F03D
:101D90004DFD83460491FFF77CBB04958346FFF716
:101DA00071BA7C4B7C4C109D0022CDE9182356E57E
:101DB000774CC5F10F0504EBC501DDE90623D1E938
:101DC000000103F033FD0E9B5D1B04EBC504D4E959
:101DD000002303F02BFD83460491FFF75ABB109BB1
:101DE0005E46D446BA46DDE90BB7002B6FD0DDE97D
:101DF00006456A4BC5F3130199422A463CD0002F91
:101E000000F0A380DDE906231F421C4621D0109B71
:101E100004995846002B00F0CD8001F043FA099D4B
:101E200002460B467DB1C4F30A54C4F16B04002C86
:101E300009DD240504F17F53002203F5401303F06C
:101E4000F5FC02460B460499584603F039FB8346DD
:101E50000491099B73B10499514B5846002203F039
:101E6000E5FC03460B4308BF22238346049108BFC9
:101E7000C9F800301C9864E5099B0699002B00F016
:101E8000C580424B2B40B3F1D46F00F2BF801B0DD5
:101E9000C3F16B034FF0FF3000FA03F39942AED168
:101EA000404B9A4200F0D880384B134003F5801322
:101EB000079300230693DDE906349B460494C8E7A4
:101EC00002F15473079300230993FFF716BBDDE972
:101ED0000612C2F313030B43144690D1099B002B47
:101EE00040F0AF80294B2340A3F580136FEA1353D2
:101EF0006FEA035307934FF0FF33DBE7DDE9061288
:101F0000109B0B4358465E46BA46DDF82CB0A0D174
:101F1000C2F313031446002B9BD122F000431B0D88
:101F20001B05B3F1D66F94D9436913B90369012B2B
:101F30008FDD31460122484601F07AF841460646D7
:101F400001F0EAF8002884DDC8E7DDE906341CEA80
:101F5000030F3FF47EAF5AE713491BA81EAA00F0F7
:101F6000D3FC05287FF48BAA1F9B43F0FF4343F467
:101F7000E00307931E9B0693DDE906349B46049419
:101F8000FFF787BA90604000946040000000F07F47
:101F9000E06240000000E0BF0000E03FFFFF0F00F4
:101FA00000005039FFFFEF7FB460400009934FF00D
:101FB000000A4EE501F076F9099D02460B4695B3FD
:101FC000C4F30A54C4F16B04002C09DD240504F1A8
:101FD0007F53109A03F5401303F028FC02460B468A
:101FE0000499584603F06AFA0022002383460491BC
:101FF00003F084FE00283FF42EAF45E64FF0FF3299
:1020000002FA03F3069A1A400692AFE54FF0FF3347
:1020100044E74FF0FF33C2F14B0203FA02F202EA47
:1020200001030793A2E50499584603F047FA0022FA
:1020300000238346049103F061FE00283FF41AAFA9
:1020400022E6084B2340B3F1D66F3FF74DAFB3F113
:102050005C7F3FF700AF17E601317FF425AFFFF754
:10206000B2BB00BF0000F07F014BFFF765B800BFB7
:102070006C00002010B4044C84461346206810BC49
:102080000A466146FFF758B80400002010B4044C1B
:10209000044B84460A46206810BC6146FFF74CB8E2
:1020A000040000206C0000202DE9F041214F04467F
:1020B000134638680A462146FFF73EF802460B46AB
:1020C00005460C4603F04CFE40BB21462846FEF771
:1020D0000BFD20F0004806461749404603F0ECFE91
:1020E000C8B91549404603F0C9FEA0B924F0004420
:1020F000124B284621464FF0FF3203F031FE38B92B
:102100000E4B284621464FF0FF3203F00BFE10B174
:102110003B6822221A603046BDE8F081002C084856
:1021200004DA02F09FF800F10046F4E7BDE8F04160
:1021300002F098B804000020FFFF7F7FFFFFEF7FD1
:10214000FC6040002DE9F041214F224B04460A4635
:1021500038682146FEF7F0FF02460B4605460C465E
:1021600003F0FEFD40BB21462846FEF7BDFC20F0F3
:10217000004806461849404603F09EFEC8B9164975
:10218000404603F07BFEA0B924F00044134B2846E0
:1021900021464FF0FF3203F0E3FD38B90F4B2846DC
:1021A00021464FF0FF3203F0BDFD10B13B68222203
:1021B0001A603046BDE8F081002C094804DA02F0CC
:1021C00051F800F10046F4E7BDE8F04102F04AB8EA
:1021D000040000206C000020FFFF7F7FFFFFEF7FE7
:1021E000FC60400000B50B4C25681446EE681A46AA
:1021F00085B003460D464CB107490095CDE9011461
:102200003046064900F022F802F0E6F904490C468F
:10221000F3E700BF04000020F060400000614000D0
:10222000FC60400008B513460022FFF7DBFF00BF4B
:102230000CB400B583B004AB53F8042B019301F048
:10224000BDFC03B05DF804EB02B070470EB410B5EE
:1022500083B005AB064C53F8042B0193014620686C
:1022600001F0ACFC03B0BDE8104003B0704700BF04
:10227000040000202DE9F0410469B4EB611F2FDD5B
:1022800000F1140E4E1111F01F0C0EEB84050EEB35
:1022900086032BD05EF8262004339D4222FA0CF1EF
:1022A000CCF1200818D977461A6802FA08F20A43D6
:1022B00047F8042B53F8041B9D4221FA0CF1F3D884
:1022C000A41BA300053B9B0801330EEB83044EF8CF
:1022D0002310C9B1043417E0416174460029F9D1D3
:1022E0000023036100234361BDE8F0819D4288BF64
:1022F00000F11002F4D953F8041B42F8041F9D4268
:10230000F9D8A41B0EEB8404A4EB0E039B107445B8
:102310000361E7D0BDE8F0812DE9F04FA84C8BB008
:10232000246805902046894602920793039401F0A1
:10233000A7FF21460144D9F8003011F801BC997873
:102340003029024640F0DA816FF00100C01A0333F1
:1023500000EB030A1C4613F8011B3029F8D0DFF804
:10236000648218F80130002B00F0F08023780027F9
:1023700018F803303D4626462BB116F8013F18F8F1
:102380000330002BF9D103990192304601F0E6FFAA
:10239000019A0090002800F09180002D40F091807B
:1023A0003378009503F0DF03502B354600F093801F
:1023B000C9F80060002F40F0AB802B1B013B072BBE
:1023C000394604DD5B10072B01F10101FADC0598A9
:1023D000049200F09FFB049A0190002800F06782AD
:1023E000019BAC4203F11406069680F0DC810027C5
:1023F000C2F10103B946049310E0202F00F0918050
:102400003946043715F8013C18F80330554603F0F7
:102410000F038B40A54249EA030916D915F8013C80
:102420005B4505F1FF3AE8D1049B5344A342E4D352
:10243000184603990992089301F090FFDDE90832EC
:102440000028DAD11D46A542E8D846F8049B069B31
:10245000F61A019BB6101E61484600F067FC029B0D
:1024600076011C68301AA04200F3AE80C0F22681CB
:102470000027029B009A9B689342C0F289810299CF
:10248000009A4B6893427EDD9D1AAC4200F3BC80FB
:10249000CA68022A00F0BC81032A00F0B481012A34
:1024A00000F098810598019900F074FB5025149A6A
:1024B0000023284613600BB0BDE8F08F002D00F01C
:1024C0000B81AD1BAB000093337803F0DF03502B7F
:1024D00035467FF46DAF6B782B2B00F0ED802D2B04
:1024E0006AD06E1C002018F803104B1E182B61D800
:1024F000737818F803301039013623BB00B1494214
:10250000009BC9F800600B440093002F3FF455AFC7
:10251000BAF1000F14BF0025062528460BB0BDE810
:10252000F08F002146F8049B042789466AE701EBF7
:10253000810103EB4103A3F1100116F8013F18F8E4
:102540000330002BDAD0192BF1DDD7E70399009285
:10255000204601F003FF009A002873D1A15C18F80F
:102560000130A518002B6FD030292C4605D114F866
:10257000013F302BFBD018F80330B3FA83F77F0903
:102580004FF0010AF7E6012557B1029BDB68022BE9
:1025900062D0032B64D0012B00F0858045F010053C
:1025A000149B019A1A60079B009A1A6028460BB088
:1025B000BDE8F08F2E46FBE60120AB78AE1C92E71B
:1025C0008462400080614000019D061B3146284620
:1025D00000F0CCFF074678B1721E5311069901270F
:1025E00051F8231002F01F0307FA03F30B4203D044
:1025F000BA4200F3E2800227009B0198334431463F
:102600000093FFF737FE34E76E1E002F40F0C980BD
:10261000002E40F0CC807311069A019852F82320C6
:1026200006F01F06012303FA06F61642294618BFD4
:1026300047F00207FFF71EFE029B5B680093641BD6
:102640000225A1E72178254601F0DF01502900F09D
:10265000BD80C9F800505BE7159BC3F101031593DA
:10266000159B002B9AD0019BDDF818901E69002164
:102670004B464FEA860809EB860003E0984243F890
:10268000041C3FD91F4653F8042BB2F1FF3FF5D08D
:102690000132022D3A6000F0C08014F01F0440F0B7
:1026A000E08021257CE7BA077FF578AF069B1B68A1
:1026B0001F43FB07D7D471E700207EE7DDE9003137
:1026C000221A9B1A0598009300F0B2FC03461433BB
:1026D000019006930027CCE6B35C18F80310B018FD
:1026E000064600293FF45EAE16F8013F18F80310C5
:1026F0000029F9D1801B8100009153E69C1C4FF00A
:10270000000A2CE6019B9B689E4280F28D80334636
:10271000019901EB830201330B61022D4FF001019E
:1027200051617AD09E42B8DA002B40F3A780019A1B
:1027300009EB8303516902F1180083424FEA51010A
:1027400040F2AF804C46026841EAC27144F8041B73
:1027500050F8041B83424FEA5101F4D8019A9B1AA6
:10276000193B9B08013349F8231009EB8303002927
:1027700040F09B800199A3EB090292104B450A613E
:102780007FD0029B009A9B6801329342009288DAC4
:102790000199059800F0FEF9149A00231360A3250F
:1027A000BBE6012737E7069E4FF000094DE601988A
:1027B000314600F0DBFE07462DE7B11E284600F04B
:1027C000D5FE00283FF417AF032715E70023009339
:1027D000012780E6AC427FF465AE012C08D0019859
:1027E000611E00F0C3FE00283FF45CAE029B5B68F4
:1027F00007990B60019B069901221A610A60149ADD
:102800006225136089E6159A002A3FF44BAEEFE784
:10281000159A002A7FF446AEEAE7029B1B68013B4B
:10282000A34232D02225BBE6019B059859680131AD
:1028300000F070F9074600283FD0DDF80490D9F881
:102840001030494602339A000C310C30FEF7D2FAB0
:102850004946059800F09EF907F114093B69019774
:1028600056E7C844C4F1200458F8040C00F05EFA9E
:10287000A042BFF616AF019B1B6955E7019A0023E2
:102880001361019A002353617BE7631104F01F0475
:1028900059F823200123A34013420CBF22252125F0
:1028A0007EE6C9F800104B4669B1043362E7074B76
:1028B0000748019ADE21FFF795FC044B04483A468D
:1028C0008421FFF78FFC019B1961DAE7306140003A
:1028D0004461400010B4046809E014F8013FA3F11A
:1028E000410CBCF1190F98BF2033934208D111F865
:1028F000012B002AF1D101340460012010BC704783
:10290000002010BC704700BF2DE9F04F096885B06A
:102910004B1111F01F01029002EB8303039140F071
:102920008E801D1F0193029B01991C68002341F8B2
:10293000043C61780134002900F09780DFF8709141
:10294000A846AC469A461E460EE0202900F28B802F
:10295000B24506DAC44501D2072B5BDD624551D38F
:10296000082314F8011FA1B119F801000028ECD0C8
:102970000133082B06F101063ADCDCF800100901EE
:1029800000F00F000843CCF8000014F8011F0029E4
:10299000EAD1002E69D0E04501D9072B73DD6245ED
:1029A00051D2111F634653F8040B41F8040F9D42A6
:1029B000F9D2A5EB0C0323F00303691C04330CF1DB
:1029C000010C614538BF04231344002143F8041B64
:1029D0009D42FBD2019B53F8043C2BB9AA4248D03C
:1029E00055F8043D002BF9D0052005B0BDE8F08F67
:1029F0006245B6D200234CF8043C1946ACF1040CF5
:102A00000123BDE70023ACF104084CF8043CB246B6
:102A1000C446A6E7C3F108018900DCF80030C1F123
:102A2000200E60468B46416801FA0EF73B43036077
:102A300021FA0BF340F8043F4045F4D38EE7191D0B
:102A400001911D466FE7039B002BC3D0039B0198A8
:102A5000C3F120014FF0FF33CB4050F8041C0B4072
:102A600040F8043CB9E7292909D0042005B0BDE8A5
:102A7000F08F012305202B6005B0BDE8F08F02998F
:102A800001340C6085E7C3F108039B00DCF80010FB
:102A9000C3F120076446666806FA07F00143216027
:102AA00026FA03F144F8041FA045F4D877E700BFE5
:102AB00080614000024B0146186800F0F3BD00BF82
:102AC00004000020024B0146186800F08DBD00BFD5
:102AD0000400002010B4034CD4F8E440A44610BC19
:102AE000604700BF6C00002082B049B15AB16BB1A1
:102AF00013780B601278101E18BF012002B07047C7
:102B000001A9002AF3D1104602B070476FF001000E
:102B1000F4E700BF70B5466A05460C465EB1F3683F
:102B2000A3B153F82400E8B1026843F8242000233D
:102B3000C0E9033370BD1020FFF7BCFF0646686292
:102B4000E8B10023C0E901330360C36021220421FE
:102B5000284600F03BFD6B6AF060DB68002BE0D19B
:102B6000002070BD012101FA04F6721D9200284672
:102B700000F02CFD0028F3D0C0E90146D7E7034B55
:102B8000034832466621FFF72DFB00BF446040003A
:102B90009C62400070B5466A05460C464EB13CB199
:102BA0006B6A6268DB6853F82210216043F82240A8
:102BB00070BD1020FFF77EFF0246686220B1C0E9B9
:102BC00001660660C660EAE7024B03488A21FFF708
:102BD00009FB00BF446040009C6240002DE9F041C9
:102BE0000D6907460E461C4601F1140E0020DEF862
:102BF00000108BB202FB03434FEA134C090C02FB9B
:102C000001CC01309BB203EB0C4385424EF8043BF0
:102C10004FEA1C44EBDC3CB1B368AB4207DD06EB8A
:102C2000850301355C6135613046BDE8F08171682E
:102C300038460131FFF76EFF804690B132690232AB
:102C400006F10C0192000C30FEF7D4F831463846FC
:102C50004646FFF79FFF06EB850301355C61356152
:102C6000E2E7034B03484246B521FFF7BBFA00BF3A
:102C7000306140009C6240002DE9F8430C46284931
:102C80001E46174603F1080281FB0231092E4FEA66
:102C9000E2730546C3EB610339DD4FF0010C0021FF
:102CA0004FEA4C0C634501F10101F9DC2846FFF7BE
:102CB00031FF014668B3089B4361092F4FF00103C0
:102CC000036112DC0A340927BE420BDDF61B2644E1
:102CD00014F8013B0A22303B2846FFF77FFFA6424B
:102CE0000146F5D10846BDE8F88304F10909C84654
:102CF0003C4418F8013B0A22303B2846FFF76EFFA0
:102D0000A0450146F5D1A7F108044C44DCE70021B9
:102D1000CCE70A46034B0448CE21FFF763FA00BF15
:102D2000398EE338306140009C624000020C12048E
:102D30000346CAB90304102013F07F4F04BF1B02DF
:102D4000083013F0704F04BF1B01043013F0404FE4
:102D500004BF9B000230002B05DB13F0804F00F115
:102D6000010008BF202070470020E5E70368024605
:102D700013F0070007D0D9071DD498071FD55B08AB
:102D800013600120704799B209B91B0C1020D9B209
:102D900009B908301B0A190704BF1B090430990739
:102DA00004BF9B080230D90703D45B0800F101007F
:102DB00003D01360704700207047202070479B08A5
:102DC00013600220704700BF10B50C460121FFF7C9
:102DD000A1FE024618B10123C0E9043410BD034B23
:102DE00003484FF4A071FFF7FDF900BF30614000C8
:102DF0009C6240002DE9F04F0E691569AE4285B026
:102E00008846144605DB2A46234635460C461646B8
:102E10009846A3686168AF19BB42B8BF0131FFF79C
:102E200079FE0190002800F08780019B03F11409CE
:102E300009EB870AD14505D24B46002243F8042B03
:102E40009A45FBD808F1140808EB860B04F114032B
:102E5000D8451A4603EB85055FD22B1B153B23F0A3
:102E6000030304331534A54238BF0423CDE902A778
:102E7000AC461F46924605E0000C29D1C34509F136
:102E8000040948D958F8040B85B2002DF4D05646F1
:102E90004C46002356F8040B216882B21FFA81FECB
:102EA00005FB02EE000C0A0C734405FB002202EB4A
:102EB00013429BB243EA0243B44544F8043B4FEA51
:102EC0001243E7D849F8073058F8040C000CD5D065
:102ED000D9F80030544619464D4600222688090C80
:102EE00000FB06110A449BB243EA024345F8043B47
:102EF00054F8046B2968360C8BB200FB063303EBE5
:102F00001243A4454FEA1342E8D8C34549F80730B5
:102F100009F10409B6D8DDE902A7002F02DC05E0BB
:102F2000013F03D05AF8043D002BF9D0019B18460D
:102F30001F6105B0BDE8F08F034B0448019A40F2D1
:102F40005D11FFF74FF900BF306140009C62400007
:102F50002DE9F04112F0030382B0144607462DD14B
:102F60000E46A4101CD07A6A8AB39568002D39D019
:102F7000E3074FF0000806D4641011D0286898B118
:102F80000546E307F8D531462A463846FFF732FFB3
:102F90003146034638461E46FFF7FCFD6410EDD16E
:102FA000304602B0BDE8F0812A4629463846FFF790
:102FB00021FF2860C0F800800546E2E7013B184A7F
:102FC00052F823200023FFF709FE0646C9E7102028
:102FD000FFF770FD02467862E0B10023C0E90133DB
:102FE0000360C360012138460192FFF793FD019A07
:102FF000054640B1012340F27121C0E904310023AC
:1030000090600360B4E7074B07482A464FF4A0716D
:10301000FFF7E8F8054B04484FF4D771FFF7E2F8E3
:10302000D0624000306140009C624000446040003B
:103030002DE9F0470D4691462F69AB68496807EBCB
:1030400062177C1C9C4280464FEA621A04DD5B00DA
:103050009C4201F10101FADC4046FFF75BFD0646A8
:1030600000284DD0BAF1000F00F114000EDD0AF176
:1030700005024FEA820C034606EB8202002143F868
:10308000041B9342FBD1ACF114031844296905F1E8
:10309000140319F01F0903EB810129D0C9F1200E97
:1030A00084464FF0000A1A6802FA09F242EA0A025C
:1030B0004CF8042B53F8042B994222FA0EFAF2D85A
:1030C0004B1B153B23F00303043305F1150291421A
:1030D00038BF0423BAF1000F18BF274640F803A0F9
:1030E000404637612946FFF755FD3046BDE8F08779
:1030F000043853F8042B40F8042F9942F9D8EFE72D
:10310000034B0448324640F2D911FFF76BF800BF79
:10311000306140009C6240000B6984460069C01A1F
:1031200015D10CF1140C14310CEB830210B401EB2B
:10313000830301E0944508D252F8044D53F8041D6E
:103140008C42F7D004D24FF0FF3010BC704770476C
:10315000012010BC704700BF2DE9F84F0F691369BB
:10316000FF1A002F0E4690467AD101F11405143251
:1031700002EB830205EB830301E09D4273D253F817
:10318000041D52F8044DA142F7D064D37168FFF7D3
:10319000C1FC8146002872D03569D8F81020C7607C
:1031A00008F1140E06F1140009F1140A06F1100CCE
:1031B0000EEB820200EB8507564600215EF8044BB9
:1031C0005CF804BFA3B211FA8BF1CB1A210CC1EB4E
:1031D0001B4101EB23419BB243EA0143724546F890
:1031E000043B4FEA2141E9D8A2EB0804153C08F161
:1031F0001508424524F0030606F1040638BF0426EC
:10320000304424F0030238BF002287425244B244C3
:1032100016D95646044654F8043B11FA83F10A14B1
:1032200002EB134289B241EA0243A74246F8043B4B
:103230004FEA2241EFD87A1E101A20F003025244BE
:1032400023B952F8043D013D002BFAD0C9F81050C3
:103250004846BDE8F88F334601274646984695E72D
:10326000F9DB002792E70021FFF754FC814668B1A3
:1032700001220023C9E904234846BDE8F88F074B23
:1032800007484A464FF41071FEF7ACFF034B044861
:103290004A4640F23221FEF7A5FF00BF30614000F0
:1032A0009C6240000F4B0B40A3F15073002B02DDDA
:1032B0000020194670475B42B3F1A07F4FEA2352CA
:1032C00005DA4FF40023002043FA02F17047143A64
:1032D0001E2ADABF4FF0004323FA02F20122002136
:1032E000104670470000F07F2DE9F843066900F1B1
:1032F000140808EB8606A6F1040956F8047C384643
:10330000FFF714FDC0F120030A280B6036DDC84525
:103310001ED2B0F10B0356F8082C26D0C3F1200CB6
:1033200022FA0CF19F400F43A6F1080147F07F55A8
:10333000884545F440153AD202FA03F056F80C3CA1
:1033400023FA0CF303431C4620462946BDE8F883C4
:10335000B0F10B0308D007FA03F343F07F550023C5
:1033600045F440151C46EFE71A4647F07F5545F4F3
:103370004015144620462946BDE8F883C0F10B03EA
:1033800027FA03F2C84542F07F553CBF56F8082C97
:10339000DA4000F1150328BF002207FA03F345F4D1
:1033A000401543EA020420462946BDE8F88302FAA4
:1033B00003F31C46C8E700BF70B5012182B0164672
:1033C0001D46FFF7A7FB044600284BD02B46C5F34C
:1033D0000A55C3F313030DB143F48013002E019378
:1033E00022D068460096FFF7C1FC002836D0019B2A
:1033F0000099C0F1200203FA02F20A43C34001938C
:103400006261002B14BF02210121A3612161ADB1D2
:10341000069AA5F2334303441360079BC0F13500BD
:103420001860204602B070BD01A8FFF79FFC019B09
:103430000121C4E904132030002DE9D104EB8102FD
:10344000A0F232431069069A1360FFF76FFC079BE6
:10345000C0EB41112046196002B070BDDDE90023C8
:103460006261CEE7034B0448224640F20A31FEF780
:10347000B9FE00BF306140009C6240002DE9F0437E
:1034800083B00F4669468046FFF72EFF04460D467F
:10349000384601A9FFF728FFD8F810303A690F46DF
:1034A0009A1ADDE90013CB1A03EB4213002B0646F0
:1034B0000BDD05EB03594D4632463B462046294677
:1034C00002F0DEFA03B0BDE8F083C3EB033307EB91
:1034D00003510F46F0E700BF172870B506460ADD16
:1034E0000849094D0020002422462B4602F09EF98F
:1034F000013EF9D170BD054B03EBC006D6E90401CE
:1035000070BD00BF0000F03F00002440D0624000CA
:103510000139491101F1010C116902F1140303EBA6
:1035200081018B4200EB8C0C16D210B5A0F1040E79
:1035300053F8044B4EF8044F9942F9D88B1A153BB7
:1035400023F0030304331844844504D9002340F8CE
:10355000043B8445FBD810BD844505D9002340F8C1
:10356000043B8445FBD87047704700BF03694A118C
:10357000934200F1140009DA00EB830302E053F8F0
:10358000042DC2B98342FAD80020704710DD11F033
:103590001F010DD010B450F8224000EB820324FA32
:1035A00001F202FA01F18C420BD0012010BC7047ED
:1035B00000EB8203E6E70120704753F8042D002A50
:1035C000F3D18342F9D8002010BC704738B502FB14
:1035D00001F5294600F066F8044618B12A46002194
:1035E000FDF7A2FC204638BD002951D038B551F86E
:1035F000043C0C1F002BB8BFE418054601F014FD75
:10360000274A13682BB1A3420CD921686018834262
:103610002CD0636028461460BDE8384001F006BD38
:10362000A3420FD81A465B68002BF9D111685018D5
:10363000844217D02DD3636054602846BDE83840DB
:1036400001F0F4BC11685018A04215D021D82168AF
:1036500060188342EFD118685B680144C4E9001325
:103660005460EAE7236819441160E6E718685B686C
:103670000144C4E90013CDE7206801445018834297
:103680001160DAD1D3E900030144C2E90013D4E7A1
:1036900070470C232B602846BDE8384001F0C6BCBB
:1036A000F8010020F8B5CD1C25F0030508350C2DD8
:1036B00038BF0C25002D064623DBA94221D8254F13
:1036C00001F0B2FC3A6822B3144603E06368224674
:1036D000FBB11C4623685B1BF8D40B2B15D8636821
:1036E00094420CBF3B605360304601F09FFC04F1F4
:1036F0000B00231D20F00700C21A01D01B1AA35093
:10370000F8BD0C2333600020F8BD23601C44256005
:10371000EAE77968C9B12946304600F091FD431CBB
:103720000CD0C41C24F00304A04205D0211A30465A
:1037300000F086FD013001D02560D5E70C2330462E
:10374000336001F073FC0020F8BD304600F078FDD6
:103750007860E0E7F80100202DE9F0478F689F428C
:103760000C461D46164638D88246888910F4906F5C
:103770000ED108683D462A46314601F0D9FBA268C1
:103780002368D21B2B44A26023600020BDE8F08791
:103790004B69096903EB4308236808EBD878A3EB6E
:1037A00001096B1C4FEA68084B444345424684BFFD
:1037B00098464246430513D511465046FFF772FF1F
:1037C000074608B321694A46FDF714FBA38923F491
:1037D000906343F08003A38107E008681F46CAE7AF
:1037E000504601F025FC074650B107EB0900A8EB55
:1037F00009032761C4F81480A36020602F46BAE74C
:1038000021695046FFF7F0FE0C23CAF80030A38967
:1038100043F040034FF0FF30A381B7E72DE9F04FAD
:10382000936883B09146002B6DD017688D688046F1
:103830000C460868083743E0A38913F4906F2ED034
:10384000D4E90415A0EB010A05EB450505EBD57598
:103850000AEB06006D100130A8422A4684BF0546D7
:103860002A465B0536D511464046FFF71BFF002868
:103870003AD0524621690190FDF7BCFAA289019B1A
:1038800022F4906242F08002A281A5EB0A0203EBCF
:103890000A006561A260236120603546B246594640
:1038A000524601F045FBD9F80830A16820684D1B4D
:1038B00050449E1BA5602060C9F808601EB30837FD
:1038C00057E902B6002EFAD0B542AA46B4D9354619
:1038D000B246E4E7404601F0ABFB03460028D4D1F2
:1038E00021694046FFF780FE0C23C8F80030A38909
:1038F000002243F040034FF0FF30A381C9E90122C9
:1039000003B0BDE8F08F0020C9F8040003B0BDE8A3
:10391000F08F00BF2DE9F04F1C468B891D069DB02E
:1039200088468146924603D50B69002B00F0EF8054
:103930000023099320238DF8293030238DF82A3075
:103940009AF800307B4D03940126002B72D0544628
:1039500003E014F8013F002B76D0252BF9D1B4EB0E
:103960000A0B74D12278002A64D000234FF0FF3272
:10397000CDE90523049307938DF853301A9301344E
:1039800004E0049A06FA03F313430493A2460522C3
:1039900014F8011B284601F07BFA431B0028F0D1E4
:1039A000049BD80644BF20228DF8532019079AF8AB
:1039B000001044BF2B228DF853202A2954D1039A9A
:1039C00011680432002903927CDB07919AF80110F8
:1039D0000AF1010A2E2959D0574C0322204601F042
:1039E00057FA40B1049B001B402404FA00F0034343
:1039F00004930AF1010A1AF8011B50488DF82810A7
:103A0000062201F045FA002862D04D4B002B52D01F
:103A100003AA00924B4B424604A94846AFF30080EC
:103A200007467A1C06D0099B3B4409939AF800305C
:103A3000002B8CD1B8F80C305B0654BF09984FF0BE
:103A4000FF301DB0BDE8F08FB4EB0A0BF2D05B463F
:103A5000524641464846FFF77FFE0130EAD0099BB7
:103A600022785B4409937EE7A1F13002092AB1D89C
:103A7000079B1AF8011F03EB830302EB4303A1F139
:103A80003002092AF5D92E290793A5D19AF80110F9
:103A90002A2927D1039B9AF802101A680592043349
:103AA000002A0AF102000393B8BF4FF0FF338246A9
:103AB000B8BF059390E7039B073323F00703083350
:103AC0000393B0E7494243F00203079104937DE773
:103AD00003AA00921B4B424604A9484600F052FA42
:103AE00007469EE7A1F130020023092A05930AF157
:103AF000010A3FF671AF1AF8011F03EB830302EBD3
:103B00004303A1F13002092AF5D9059364E7402166
:103B1000FFF7C8FDC8F80000C8F8100018B140232E
:103B2000C8F8143004E70C23C9F800304FF0FF3018
:103B300087E700BFF8634000006440000464400071
:103B400000000000593740009368013B002B936050
:103B500005DAD2F818C0634507DB0A2905D01368D7
:103B6000581C106019700846704700F037BC00BF41
:103B70009BB1F8B5134406460F46541E5D1E01E086
:103B8000AC4208D014F8011F3A463046FFF7DCFF7C
:103B9000431CF5D1F8BD0020F8BD0020704700BFE0
:103BA000936810B5144613B95360184610BD00F061
:103BB00023FF0023C4E9013310BD00BF2DE9F04FFE
:103BC00088469FB015461C46814618B18369002B74
:103BD00000F0A280924B984500F0A480914B98454C
:103BE00000F0B180904B984508BFD9F80C80B8F828
:103BF0000C30180740F19D80D8F81030002B00F0F1
:103C0000988000230B932978884E059420238DF803
:103C1000313030238DF832300127002974D02C4602
:103C20000B4604E014F8013F002B00F08F80252B99
:103C3000F8D1B4EB050B40F08C802378002B63D0D7
:103C400000234FF0FF32CDE90723069309938DF847
:103C50005B301C93013404E0069A07FA03F3134324
:103C600006932546052214F8011B304601F010F991
:103C7000831B0028F0D1069BD90644BF20228DF873
:103C80005B2029781A0744BF2B228DF85B202A2954
:103C900070D1059A1168043200290592C0F29B8008
:103CA0000991697801352E2976D0614C032220468E
:103CB00001F0EEF838B1069B001B402404FA00F036
:103CC00003430693013515F8011B5A488DF830104F
:103CD000062201F0DDF8002800F08380564B002B0F
:103CE0006DD005AA0092554B424606A94846AFF34F
:103CF00000800390039B013306D00B9B039A297825
:103D000013440B9300298AD1B8F80C305B0617D402
:103D10000B981FB0BDE8F08F00F04EFE404B984569
:103D20007FF45CAFD9F80480B8F80C3018073FF581
:103D300063AF4146484600F0CDFB00283FF461AF39
:103D40004FF0FF30E5E7D9F8088050E7B4EB050BFA
:103D5000DAD0AA46C5F1010503E0934536D91AF831
:103D6000011F42464846FFF7EFFE013005EB0A020D
:103D7000F3D1C9E7A1F13002092A94D8099B15F8BB
:103D8000011F03EB830302EB4303A1F13002092A75
:103D9000F5D92E29099388D169782A292BD1059B39
:103DA000A9781A6807920433002A05F102000593E6
:103DB000B8BF4FF0FF330546B8BF079375E7059BC3
:103DC000073323F007030833059396E70B9A23780C
:103DD0005A440B9232E7494243F002030991069399
:103DE0005FE705AA0092154B424606A9484600F037
:103DF000C9F803907EE7A1F130020023092A079356
:103E000005F101053FF651AF15F8011F03EB8303E0
:103E100002EB4303A1F13002092AF5D9079344E7E5
:103E2000786540005865400038654000F863400000
:103E3000006440000464400000000000713B40004A
:103E400010B4044C84461346206810BC0A466146F0
:103E5000FFF7B4BE040000202DE9F04791461E464E
:103E60000A698B68DDF820809A42B8BF1A46C9F803
:103E7000002091F843300C46054613B10132C9F8D1
:103E80000020226891065DD5D9F800300233C9F8C8
:103E90000030226812F0060F11461ED1E168CB1ADD
:103EA000002BD8BF114618DD04F1190A002706E0DF
:103EB000D9F80030E268A2EB030CBC450CDD01230D
:103EC000524631462846C047013007F10107EFD17D
:103ED0004FF0FF30BDE8F087216894F84330003B95
:103EE00018BF01238A060AD5E1185A1C302081F830
:103EF0004300224494F8451082F84310023304F141
:103F0000430231462846C0470130E1D0236803F020
:103F10000603042B1DD0A3682269934225DD0027E8
:103F20009B1A1F4404F11A09002401E0BC421CDA68
:103F300001234A4631462846C047013004F10104B6
:103F4000F4D1C5E712F0060F12D0003B18BF0123D1
:103F5000D5E7D9F80030E1682269C91AA36893420D
:103F600021EAE177DCDC0029DCDC0020BDE8F08719
:103F7000E168D9F80030CB1A002BD8BF114693DC8A
:103F8000ABE700BF2DE9F043174685B00A7E0C9DD4
:103F90000C460646984601F1430C002A33D0A2F1A4
:103FA0005803D9B2202967D8202B65D8DFE813F051
:103FB000DE00640064006400640064006400640067
:103FC000640064006400A3006E0064006400640088
:103FD00064006E00640064006400640021007F00DF
:103FE000C00064006400AE0064007F0064006400F0
:103FF000E50023681A0640F104812B686269191DE7
:1040000029601B681A600023E1462361CDF8008017
:104010003B4603AA21463046FFF71EFF013020D061
:1040200023694A4639463046C047013019D02368D3
:10403000E06803999B0719D5431A002B16DD04F19C
:104040001909002504E0E0680399431AAB420DDD2D
:1040500001234A4639463046C047013005F1010583
:10406000F1D14FF0FF3005B0BDE8F0838842B8BF12
:10407000084605B0BDE8F083012384F8422023619F
:1040800004F14209002384F84330BFE7236819068E
:1040900002D45A0600F1C18029680A6804312960F7
:1040A0001146002A6BDBDFF884E10A2510E0236863
:1040B000180640F19C802B68191D29601968DFF8EB
:1040C0006CE16F2A0CBF08250A25002384F84330D1
:1040D0006268A260002A7FDB236823F00403236068
:1040E00000295BD1002A79D1E146082D65D0ACEBDF
:1040F000090323618AE72B680122196804332B60C6
:1041000004F1420984F842102261BBE72B6862681F
:10411000191D2960D3F800900021484600F0B8FE30
:10412000002800F08180A0EB090060602061A9E711
:10413000236843F0200323607822DFF8F4E084F85A
:1041400045202A68111D2960190643D45D0641D512
:104150001188D80744BF43F020032360002944D1CD
:10416000236823F0200323601025AEE7582384F84A
:104170004530DFF8B8E02368E3E72368DCE76268EE
:10418000A2602D20002AC1F1000184F8430002DB67
:1041900023F004032360DFF894E00A25E146B1FB35
:1041A000F5F305FB13100A46AA421EF8001009F8A1
:1041B000011D1946F3D2082D99D12368D90796D548
:1041C000626823699A4292DC302309F8013C09F1C4
:1041D000FF398CE71168BCE70029DFD19EF8003079
:1041E00084F8423004F142097FE710256DE713F0AF
:1041F000400F2B6803F1040129600CBF196819886E
:104200005DE713F0400F2B68626903F10401296038
:104210001B6814BF1A801A60F5E62A68B2F900100C
:1042200004322A600A463CE760687FE70C6440007D
:104230002064400001490020704700BF0000F87F63
:1042400038B5074D0022044608462A6001F0BAFE40
:10425000431C00D038BD2B68002BFBD0236038BD39
:1042600000020020004870470000C07F00000000EE
:10427000000000000000000000000000000000003E
:1042800090F800F06DE9024520F007016FF0000C96
:1042900010F0070491F820F040F049804FF000043E
:1042A0006FF00700D1E9002391F840F000F1080019
:1042B00082FA4CF2A4FA8CF283FA4CF3A2FA8CF351
:1042C0004BBBD1E9022382FA4CF200F10800A4FAB8
:1042D0008CF283FA4CF3A2FA8CF3E3B9D1E904230C
:1042E00082FA4CF200F10800A4FA8CF283FA4CF343
:1042F000A2FA8CF37BB9D1E9062301F1200182FAFD
:104300004CF200F10800A4FA8CF283FA4CF3A2FA02
:104310008CF3002BC6D0002A04BF04301A4612BA10
:10432000B2FA82F2FDE8024500EBD2007047D1E913
:10433000002304F00305C4F100004FEAC50514F0A2
:10434000040F91F840F00CFA05F562EA05021CBF73
:1043500063EA050362464FF00004A9E7A2B330B553
:1043600040EA0104A40784460B462AD09CF80000CA
:104370000C7884422FD1012A0DD0E64660B11EF898
:10438000010F11F8014F6FEA0E03A042134422D12E
:104390001CEB0303F2D1002030BD0468194653F82A
:1043A000045BA4F1013EAC4284462EEA040E00F107
:1043B00004000BD1043A84461946ECD01EF0803F2D
:1043C000E9D1032AE9D8D1E7104670479CF80000EC
:1043D0000C78A042D1D0001B30BD00BFF8B50D460F
:1043E0001446064608B1836943B3254B9C422AD044
:1043F000244B9C4229D0244B9C4208BFF468A389DB
:10440000A269A2601A0722D5236903B322686169F1
:10441000D31AEDB299422F4629DD0133A168013943
:10442000A160511C2160157062699A4216D0A3895F
:10443000DB0701D50A2D11D03846F8BD00F0BCFAD3
:104440000F4B9C42D4D17468D9E7B468D7E72146B2
:10445000304600F03FF838B92369D7E721463046A7
:1044600000F044F90028E7D04FF0FF37E4E7214699
:10447000304600F03BF90028F6D122680123CDE751
:1044800078654000586540003865400010B4044C21
:1044900003460A46206810BC1946FFF79FBF00BFBD
:1044A0000400002010B4034CD4F8E040A44610BC33
:1044B000604700BF6C00002049B1FF2A02D80A7093
:1044C000012070478A2303604FF0FF307047084691
:1044D000704700BF3C4B70B51D6806460C460DB1D9
:1044E000AB69E3B1394B9C421FD0394B9C424DD054
:1044F000384B9C4208BFEC68B4F90C3018079AB2EC
:1045000019D5216911B312F001002FD00020A0604D
:1045100060694042A06100292ED0002070BD28466D
:1045200000F04AFA294B9C42DFD16C68B4F90C3098
:1045300018079AB2E5D4D1063ED5520728D421698E
:1045400043F00803A3819AB20029DCD102F4207061
:10455000B0F5007FD7D02146304600F005FCB4F915
:104560000C3021699AB212F00100CFD1950758BFE3
:104570006069A0600029D0D1120658BF0846CDD589
:1045800043F04003A3814FF0FF3070BDAC68B3E748
:10459000616B51B104F14402914204D03046FFF7FF
:1045A00023F8B4F90C300022626321690022C4E9C7
:1045B000001223F02403C3E7092243F040033260D2
:1045C0004FF0FF30A38170BD0400002078654000EB
:1045D000586540003865400008B5062000F0E4FD4D
:1045E000012001F005FD00BFF8B58B890C461907C5
:1045F00007463AD46268002A53DDE66A002E4ED0A0
:1046000000223D683A6013F480524ED1216A0123A2
:104610003846B047421C5AD0A389E66A5B0705D5E5
:104620006368C01A636B0BB1236CC01A216A02461F
:1046300000233846B047411C39D13B68002B36D0A7
:104640001D2B01D0162B49D123690022C4E9003269
:10465000616B3D6019B304F14403994202D03846BE
:10466000FEF7C2FF00206063F8BD2669BEB1256871
:1046700026609A070CBF63690023AD1BA3600CE0A2
:10468000D4F828C0216A2B4632463846E047B0F1BC
:10469000000CA5EB0C05664412DD002DF0DC0020BB
:1046A000F8BD226C002AA8DCF9E7606DB6E70023AC
:1046B000636023692360A389DB04C9D56065C7E70C
:1046C000A38943F040034FF0FF30A381F8BD3B685E
:1046D000002BA1D01D2B06D0162B04D0A38943F0AC
:1046E0004003A381F8BD3D60D9E700BF38B50B6931
:1046F000BBB10C46054608B18369B3B10D4B9C4272
:1047000011D00D4B9C4213D00C4B9C4208BFEC685F
:10471000B4F90C302BB121462846BDE83840FFF7EC
:1047200063BF002038BD6C68F2E700F045F9E5E7AB
:10473000AC68EDE77865400058654000386540009A
:1047400038B540B303690446E3B1174B1D680DB19A
:10475000AB69CBB1154B9C420FD0154B9C4221D07D
:10476000144B9C4208BFEC68B4F90C3053B121469D
:104770002846BDE83840FFF737BF6C68B4F90C3005
:10478000002BF4D1002038BD284600F015F9074B66
:104790009C42E2D1F1E7084B08491868BDE838406F
:1047A00000F0BEBAAC68DFE7040000207865400086
:1047B000586540003865400040604000ED464000CC
:1047C00000207047014900F0ABBA00BFED46400041
:1047D0000020704770B568224D1E02FB05F50E469D
:1047E00005F17401FEF75EFF044640B100210C3074
:1047F000C4E90016A06005F16802FCF795FB2046AD
:1048000070BD00BF274B2DE9F0411E68B369074614
:1048100053B348364FF00408D6E90134013B04D5C0
:104820001EE05A1C04F168041AD0B4F90C50013B84
:10483000002DF6D11C4B6566C4E90055C4E902534E
:10484000C4E90455A5610822294604F15C00FCF77F
:104850006BFBC4E90D55C4E912552046BDE8F08153
:1048600035682DB12E46D7E7304600F01FF8D0E767
:104870004FF4D6713846FEF715FF044668B105605F
:10488000C0F804800C302946A06025464FF4D07251
:10489000FCF74AFB34602E46BEE70C2330603B60D9
:1048A000DBE700BF406040000100FFFF2DE9F84F4B
:1048B000344B35491A68816290424FF00003C0E9D9
:1048C0001233036504BF012383610546FFF79AFF96
:1048D00068602846FFF796FFA8602846FFF792FF1A
:1048E0006F68E86000240423C7E9024308222146D8
:1048F000C7E90044C7E904447C66BC6107F15C0079
:10490000FCF712FBDFF884B0AE68DFF884A0DFF8B4
:104910008490DFF88480214BC7F828A0C7E9087B82
:10492000C7F82C90C7F830800822F360C6E900442D
:10493000C6E904447466B460B461214606F15C00C3
:10494000FCF7F2FAC6E9086BC6E90AA9C6F8308096
:10495000EE68134BF360C6E90044C6E9044474668C
:10496000B460B4612146082206F15C00FCF7DCFA71
:104970000123C6E9086BC6E90B98C6F828A0AB610D
:10498000BDE8F88F40604000C54740001953400023
:104990004153400081534000A153400009000100F1
:1049A00012000200024B0349186800F0B9B900BFB9
:1049B00040604000ED464000836903B976E77047E8
:1049C000704700BF704700BF704700BF704700BF0F
:1049D000024B0349186800F083B900BF04000020AF
:1049E000C1474000024B0349186800F079B900BF85
:1049F00004000020D14740009368002B00F0818024
:104A00002DE9F04FB1F90C300C461907804683B000
:104A1000174698B223D523690BB310F002033D6803
:104A20002BD04FF0000ADFF8B4B256465E4533464D
:104A3000524628BF5B464046002E4FD0216AD4F82C
:104A400028C0E047002852DDBB681B1A8244361A92
:104A5000BB60002BEAD1002003B0BDE8F08F2146F7
:104A60004046FFF737FD002840F03481B4F90C30A0
:104A70003D6898B210F00203D3D110F0010942D181
:104A80004E463EB38205D4F808B040F18180B3456C
:104A90005A4600F2B18010F4906F40F0BE8020685A
:104AA0000192494600F044FAA3682168019AA3EBF9
:104AB0000B030A44B246A36022600026B868A0EB4C
:104AC0000A00D144B8600028C5D0B4F90C0080B207
:104AD000002ED7D1D5E900960835D2E7D5E900A652
:104AE0000835A3E721464046FFF700FE80B3B4F93E
:104AF0000C3043F040034FF0FF30A38103B0BDE81A
:104B0000F08F002070471E46AA46994618461D465B
:104B100056B388B34A46D4E904132068B24228BF8A
:104B20003246884205D9A16803EB010B5A4500F3D0
:104B3000A780934264DC216AD4F828C02A46404604
:104B4000E047B0F1000BD2DDB9EB0B09CAD0012070
:104B5000BB68A3EB0B035D44A6EB0B06BB60002B0D
:104B60003FF479AF002ED4D10AF1080353E902567D
:104B70009A460833002EF9D032460A21284600F022
:104B800087F9002800F09D800130A0EB0509C1E7FE
:104B900020682369984217D86369B34214D86FF02C
:104BA0000042B24228BF3246216A92FBF3F2D4F8A7
:104BB00028C002FB03F340464A46E047B0F1000A32
:104BC00095DDA6EB0A0679E7B345DA4628BFB2467B
:104BD0005246494600F0ACF9A3682268A3EB0A03E9
:104BE0005244A3602260002BEBD121464046FFF7E0
:104BF0007DFD0028E5D07AE72068B34632464FE7CE
:104C00002946019200F094F9019AA3689B1AA360C7
:104C1000236813442360934696E723682169A3EB36
:104C2000010B636903EB430A0AEBDA7A0BF1010328
:104C30004FEA6A0A33445345524684BF9A46524665
:104C400043052CD511464046FEF72CFD00283BD0ED
:104C50005A4621690190FCF7CDF8A289019B22F404
:104C6000906242F08002A28103EB0B002361AAEB69
:104C70000B03C4F814A0A3602060B34632460FE7CC
:104C800029465A4600F054F923685B4423602146C4
:104C90004046FFF72BFD00283FF456AF27E740467C
:104CA00000F0C6F903460028DED121694046FEF730
:104CB0009BFCB4F90C300C2223F08003C8F80020D0
:104CC00017E7721C914626E70C22B4F90C30C8F89D
:104CD00000200EE74FF0FF30BEE600BF00FCFF7F74
:104CE0002DE9F041884600F148070026D7E9015434
:104CF000013D0FD4A389012B05F1FF3506D9B4F985
:104D00000E300133204601D0C04706436B1C04F12E
:104D10006804EFD13F68002FE8D13046BDE8F0814C
:104D20002DE9F8430746884600F148064FF0000990
:104D3000D6E90154013D11D4A389012B05F1FF35BA
:104D400008D9B4F90E300133214603D03846C047A4
:104D500049EA00096B1C04F16804EDD13668002EA5
:104D6000E6D14846BDE8F883F0B58B890C46990733
:104D700097B007D504F147030122C4E90432236048
:104D800017B0F0BDB4F90E10002905462DDB6A46B8
:104D900000F032FB002827DB019E06F470464FF43A
:104DA0008067A6F50056B6FA86F639462846760993
:104DB000FEF778FC30B3A3891A4AAA6243F0800355
:104DC000C4E90407A3812060002ED9D0B4F90E10E5
:104DD000284600F027FB0028D2D0A38923F0030344
:104DE00043F00103A381CBE7A38913F0800F14BF25
:104DF00040274FF48067394628460026FEF752FCCC
:104E00000028D8D1B4F90C309A05B9D423F00303A3
:104E100004F1470243F002030121C4E90421A38104
:104E20002260ADE7C547400070B50C46B1F90E10E1
:104E3000002996B016461D4613DB6A4600F0DCFAE0
:104E400000280EDB019901F47041A1F50051B1FA7F
:104E500081F14FF48063490900202960336016B066
:104E600070BDB4F90C3000221B062A6004D5402323
:104E70000020336016B070BD4FF4806300203360B3
:104E800016B070BD0000000000000000000000002F
:104E900001F0FF01102A2BDB10F0070F08D010F8EB
:104EA000013B013A8B422DD010F0070F42B3F6D1EF
:104EB000F0B441EA012141EA014122F007047FF008
:104EC00000070023F0E80256083C85EA010586EA5F
:104ED000010685FA47F5A3FA87F586FA47F6A5FA9B
:104EE00087F68EB9EED1F0BC01F0FF0102F00702A7
:104EF00032B110F8013B013A83EA010313B1F8D152
:104F00000020704701387047002D06BF3546033832
:104F1000073815F0010F07D1013015F4807F02BF6B
:104F2000013015F4C03F0130F0BC0138704700BFBC
:104F300088420DD98B1883420AD900EB020CBAB112
:104F4000624613F801CD02F801CD9942F9D17047BC
:104F50000F2A0ED8034602F1FF3C4AB10CF1010CB6
:104F6000013B8C4411F8012B03F8012F6145F9D165
:104F7000704740EA01039B0750D1A2F1100370B5BE
:104F800001F1200C23F00F0501F1100E00F11004C7
:104F9000AC441B095EF8105C44F8105C5EF80C5CD5
:104FA00044F80C5C5EF8085C44F8085C5EF8045C4D
:104FB00044F8045C0EF1100EE64504F11004E9D14A
:104FC000013312F00C0F01EB031102F00F0400EBA0
:104FD000031327D0043C24F003064FEA940C1E442C
:104FE0001C1F8E465EF8045B44F8045FB442F9D19E
:104FF0000CF1010402F0030203EB840301EB8401D2
:1050000002F1FF3C4AB10CF1010C013B8C4411F858
:10501000012B03F8012F6145F9D170BD02F1FF3C6E
:1050200003469BE72246EBE7704700BF704700BF8F
:10503000F8B51446F9B1CAB106460D4600F01AFAA1
:10504000A04202D32F463846F8BD21463046FEF72F
:1050500029FB07460028F6D022462946FBF7CAFE60
:1050600030462946FEF7C0FA3846F8BD2746FEF717
:10507000BBFA3846F8BDBDE8F8401146FEF712BB52
:1050800038B5446C0CB1002038BD80210546FEF7D0
:1050900009FB0246686430B1031F7C3243F8044FB9
:1050A0009342FBD1EFE74FF0FF3038BD1F29F8B531
:1050B000054608D8466C0C4617464EB156F82400F3
:1050C00046F82470F8BD162303604FF0FF30F8BD9A
:1050D0008021FEF7E7FA0646686440B1031F00F13D
:1050E0007C05002143F8041F9D42FBD1E6E74FF009
:1050F000FF30F8BD1F2938B5054620D8426C0C4654
:105100006AB152F8213053B1012B16D0591C10D07E
:105110000025204642F824509847284638BD2846A6
:1051200000F0F8F8224601462846BDE8384000F075
:10513000DBB816230360012038BD002038BD1623DC
:1051400003604FF0FF3038BD1F292AD8426C38B5B4
:105150000C46054682B152F8243002EB84024BB172
:10516000591C19D0012B15D00025204615609847F1
:10517000284638BD012038BD8021FEF793FA02464B
:10518000686458B1031F00217C3043F8041F984223
:10519000FBD1E0E7032038BD022038BD4FF0FF30DF
:1051A00038BD4FF0FF30704738B5144B1F281D68CD
:1051B0001FD86A6C044662B152F820304BB1012B03
:1051C00015D0591C0FD0002542F82050984728468A
:1051D00038BD284600F09EF8224601462846BDE824
:1051E000384000F081B816232B60012038BD002024
:1051F00038BD16232B604FF0FF3038BD040000206F
:10520000124B1F2870B51E6808D80D46716C0446F5
:1052100049B151F8240041F8245070BD1623336081
:105220004FF0FF3070BD80213046FEF73BFA01465B
:10523000706440B1031F00F17C0C002243F8042F7E
:105240006345FBD1E5E74FF0FF3070BD040000205F
:1052500038B50B4B1D686C6C0CB1002038BD80213B
:105260002846FEF71FFA686438B1031F00F17C027C
:1052700043F8044F9342FBD1EFE74FF0FF3038BDC6
:105280000400002038B5174B1F281D6826D86A6C0B
:10529000044682B152F8243002EB84024BB1591C0F
:1052A0001AD0012B16D000252046156098472846B5
:1052B00038BD012038BD80212846FEF7F3F90246AB
:1052C000686458B1031F00217C3043F8041F8342F7
:1052D000FBD1DFE7032038BD022038BD4FF0FF309F
:1052E00038BD00BF0400002070B50C46084D0346D1
:1052F0000026204611461C462E6000F04BFE431C43
:1053000000D070BD2B68002BFBD0236070BD00BFA8
:105310000002002000F02EBE10B50C46B1F90E10B0
:1053200000F0B2F8002803DB636D0344636510BD31
:10533000A38923F48053A38110BD00BF00207047D0
:105340002DE9F0410C46B1F90C101F46CB0505467E
:1053500016460BD421F48051A1813B46B4F90E10BE
:1053600032462846BDE8F04100F01EB8B4F90E10F0
:105370000223002200F068F8B4F90C10EAE700BF3D
:1053800010B50C46B1F90E1000F05EF8A389421C6E
:105390000EBF23F4805343F480536065A38110BD96
:1053A000B1F90E1000F016B838B50C46084D844619
:1053B000114620461A4600232B60644600F010FE7A
:1053C000431C00D038BD2B68002BFBD0236038BDB8
:1053D0000002002038B5074D0022044608462A6026
:1053E00000F0B8FD431C00D038BD2B68002BFBD06B
:1053F000236038BD0002002070B50C46084D0346FE
:105400000026204611461C462E6000F0ABFD431CD2
:1054100000D070BD2B68002BFBD0236070BD00BF97
:105420000002002038B5074D0022044608462A60D5
:1054300000F0A8FD431C00D038BD2B68002BFBD02A
:10544000236038BD0002002038B50C46084D844664
:10545000114620461A4600232B60644600F0A2FD48
:10546000431C00D038BD2B68002BFBD0236038BD17
:105470000002002051F8040C0028A0F10400BCBF79
:105480000B58C018704700BF38B50C46084D84460D
:10549000114620461A4600232B60644600F08AFD20
:1054A000431C00D038BD2B68002BFBD0236038BDD7
:1054B0000002002081F0004102E000BF83F00043C1
:1054C00030B54FEA41044FEA430594EA050F08BF9F
:1054D00090EA020F1FBF54EA000C55EA020C7FEA63
:1054E000645C7FEA655C00F0E2804FEA5454D4EBE0
:1054F0005555B8BF6D420CDD2C4480EA020281EAAA
:10550000030382EA000083EA010180EA020281EAE1
:105510000303362D88BF30BD11F0004F4FEA013133
:105520004FF4801C4CEA113102D0404261EB410142
:1055300013F0004F4FEA03334CEA133302D05242C8
:1055400063EB430394EA050F00F0A780A4F1010484
:10555000D5F1200E0DDB02FA0EFC22FA05F28018BE
:1055600041F1000103FA0EF2801843FA05F35941A4
:105570000EE0A5F120050EF1200E012A03FA0EFC23
:1055800028BF4CF0020C43FA05F3C01851EBE3714D
:1055900001F0004507D54FF0000EDCF1000C7EEB6A
:1055A00000006EEB0101B1F5801F1BD3B1F5001FA8
:1055B0000CD349085FEA30004FEA3C0C04F10104C7
:1055C0004FEA445212F5800F80F09A80BCF1004FF0
:1055D00008BF5FEA500C50F1000041EB045141EA72
:1055E000050130BD5FEA4C0C404141EB0101013C3B
:1055F00028BFB1F5801FE9D291F0000F04BF01462A
:105600000020B1FA81F308BF2033A3F10B03B3F1FB
:1056100020020CDA0C3208DD02F1140CC2F10C028B
:1056200001FA0CF021FA02F10CE002F11402D8BFE9
:10563000C2F1200C01FA02F120FA0CFCDCBF41EAB5
:105640000C019040E41AA2BF01EB0451294330BD84
:105650006FEA04041F3C1CDA0C340EDC04F1140461
:10566000C4F1200220FA04F001FA02F340EA030038
:1056700021FA04F345EA030130BDC4F10C04C4F17E
:10568000200220FA02F001FA04F340EA030029465E
:1056900030BD21FA04F0294630BD94F0000F83F4A8
:1056A000801306BF81F480110134013D4EE77FEA8B
:1056B000645C18BF7FEA655C29D094EA050F08BFD7
:1056C00090EA020F05D054EA000C04BF19461046B8
:1056D00030BD91EA030F1EBF0021002030BD5FEAFC
:1056E000545C05D14000494128BF41F0004130BD24
:1056F00014F580043CBF01F5801130BD01F0004578
:1057000045F0FE4141F470014FF0000030BD7FEAEA
:10571000645C1ABF194610467FEA655C1CBF0B46E5
:10572000024650EA013406BF52EA033591EA030FFC
:1057300041F4002130BD00BF90F0000F04BF0021F4
:10574000704730B54FF4806404F132044FF0000527
:105750004FF0000150E700BF90F0000F04BF0021A0
:10576000704730B54FF4806404F1320410F0004506
:1057700048BF40424FF000013EE700BF42004FEA01
:10578000E2014FEA31014FEA02701FBF12F07F437E
:1057900093F07F4F81F06051704732F07F4208BF35
:1057A000704793F07F4F04BF41F40021704730B53C
:1057B0004FF4607401F0004521F000411CE700BF88
:1057C00050EA010208BF704730B54FF000050AE00B
:1057D00050EA010208BF704730B511F0004502D50C
:1057E000404261EB41014FF4806404F132045FEA0E
:1057F000915C3FF4D8AE4FF003025FEADC0C18BFB7
:1058000003325FEADC0C18BF033202EBDC02C2F1A8
:10581000200300FA03FC20FA02F001FA03FE40EA3A
:105820000E0021FA02F11444BDE600BF70B54FF03E
:10583000FF0C4CF4E06C1CEA11541DBF1CEA13551C
:1058400094EA0C0F95EA0C0F00F0DEF82C4481EA84
:10585000030621EA4C5123EA4C5350EA013518BFA4
:1058600052EA033541F4801143F4801338D0A0FB91
:1058700002CE4FF00005E1FB02E506F00042E0FB3E
:1058800003E54FF00006E1FB03569CF0000F18BF44
:105890004EF0010EA4F1FF04B6F5007F64F54074EC
:1058A00004D25FEA4E0E6D4146EB060642EAC6217F
:1058B00041EA55514FEAC52040EA5E504FEACE2EEC
:1058C000B4F1FD0C88BFBCF5E06F1ED8BEF1004FEF
:1058D00008BF5FEA500E50F1000041EB045170BD6B
:1058E00006F0004646EA010140EA020081EA0301AF
:1058F000B4EB5C04C2BFD4EB0C0541EA045170BDAB
:1059000041F480114FF0000E013C00F3AB8014F124
:10591000360FDEBF002001F0004170BDC4F100046D
:10592000203C35DA0C341BDC04F11404C4F12005EE
:1059300000FA05F320FA04F001FA05F240EA020049
:1059400001F0004221F0004110EBD37021FA04F67F
:1059500042EB06015EEA430E08BF20EAD37070BD39
:10596000C4F10C04C4F1200500FA04F320FA05F098
:1059700001FA04F240EA020001F0004110EBD3709A
:1059800041F100015EEA430E08BF20EAD37070BD0A
:10599000C4F1200500FA05F24EEA020E20FA04F3E3
:1059A00001FA05F243EA020321FA04F001F0004192
:1059B00021FA04F220EA020000EBD3705EEA430E03
:1059C00008BF20EAD37070BD94F0000F0FD101F032
:1059D0000046400041EB010111F4801F08BF013C6B
:1059E000F7D041EA060195F0000F18BF704703F0A9
:1059F0000046520043EB030313F4801F08BF013D30
:105A0000F7D043EA0603704794EA0C0F0CEA1355EB
:105A100018BF95EA0C0F0CD050EA410618BF52EAA5
:105A20004306D1D181EA030101F000414FF00000AB
:105A300070BD50EA410606BF1046194652EA4306B9
:105A400019D094EA0C0F02D150EA013613D195EA2D
:105A50000C0F05D152EA03361CBF104619460AD175
:105A600081EA030101F0004141F0FE4141F470017F
:105A70004FF0000070BD41F0FE4141F4780170BD6F
:105A800070B54FF0FF0C4CF4E06C1CEA11541DBFD4
:105A90001CEA135594EA0C0F95EA0C0F00F0A7F8D6
:105AA000A4EB050481EA030E52EA03354FEA013103
:105AB00000F088804FEA03334FF0805545EA131316
:105AC00043EA12634FEA022245EA111545EA1065DE
:105AD0004FEA00260EF000419D4208BF964244F175
