:020000040040BA
:1000000020100020A10240009D0240009D024000FF
:100010009D0240009D0240009D0240000000000043
:100020000000000000000000000000009D024000F1
:100030009D024000000000009D0240009D02400023
:100040009D0240009D0240009D0240009D02400034
:100050009D0240009D0240009D0240000000000003
:100060009D0240009D024000000000009D024000F3
:100070009D024000000000009D0240009D024000E3
:1000800000000000000000009D0240009D024000B2
:100090009D0240009D0240009D0240009D024000E4
:1000A0009D0240009D024000000000000000000092
:1000B000000000009D0240009D0240009D024000A3
:1000C0009D0240009D0240009D0240000348044BF9
:1000D000834202D0034B03B118477047400C4000E5
:1000E000400C400000000000054806490B1AD90FDB
:1000F00001EBA301491002D0034B03B1184770472D
:10010000400C4000400C40000000000010B5064CC0
:10011000237843B9FFF7DAFF044B13B10448AFF378
:1001200000800123237010BD0400002000000000A7
:10013000400C400008B5044B1BB104490448AFF320
:100140000080BDE80840CFE7000000000800002064
:10015000400C400082B00023019340F6FE72019BE8
:10016000934201D902B07047019B01330193F6E736
:100170007047704738B5044D04462078A84714F8F6
:10018000013F002BF9D138BD310440002DE9F04189
:10019000DFF8308004460E460025B5420DDA6719B7
:1001A000C047C0B260550028FAD00A2803D1002306
:1001B0003B70BDE8F0810135EFE73444002304F8DB
:1001C000013CF6E74D04400070B5224B224C234D14
:1001D0008CB09847224B9847224B9847224B18687F
:1001E00002909B882148ADF80C30A0472048A047DA
:1001F0002048A847A0472048A047204B98472048C0
:10020000A04720211F4B04A898471F4B984702A9DD
:1002100004AA062311F8016B12F8010B864217D1CC
:10022000013B13F0FF03F5D11848A047184B0120FC
:1002300098470CE0019B01330193019B002BF9DDF2
:100240001448A847A847A047134B01209847FEE74A
:100250000023F1E7350340007501400055014000DF
:10026000CD03400071044000170C4000580B4000C3
:100270007B0B4000980B40009B0B4000910440001A
:10028000CA0B40008D014000B1044000FD0B40004E
:1002900071014000EE0B400073014000FEE70000DA
:1002A00019491A48814210B520D9194BDA1C121A83
:1002B00022F00302C41EA34238BF0022154B984708
:1002C00000BF154B1548DA1C121AC11E22F003029A
:1002D000994288BF0022124B00219847114B124AC5
:1002E0009A60124B9847124B9847FEE7E8D2084BAA
:1002F0000A1F181A1044C1F10401C842E0D050F896
:10030000042943F8042DF8E7400C400000000020C9
:10031000040000208109400020000020040000208B
:10032000B50A400000ED00E000004000390940003F
:10033000C9014000184B4FF4004270B500205A65C7
:10034000164D174C174EA8470120A8470520A8476F
:10035000154B002098471548A047154B002098479B
:10036000144B3E2101209847B0470028FCD0124B87
:1003700000209847114B98471148A047114A13682D
:1003800023F0806313600B20A847BDE870400E4B3C
:100390004FF060510F20184700140E40DD08400058
:1003A00099074000CD0840001D094000000E2707B6
:1003B000FD074000810840003D084000CD06400098
:1003C00010757000000A0E40210640001FB5104B4A
:1003D000104C4FF46132CDE901324FF400630393C6
:1003E00008200D4B984701A90C4B20469847204602
:1003F0000B4B98470B4B204698470B4C0B49092059
:10040000A0474FF000610A20A04704B010BD00BF14
:1004100090AD710000060E40DD084000D1044000A0
:100420000B054000050540002106400001000008C2
:1004300070B5044E044D044621463046A8470028B6
:10044000FAD170BD00060E401105400037B5064DCB
:10045000064C0DF107012846A0470028F9D19DF868
:10046000070003B030BD00BF00060E401F0540006E
:1004700010B5054B0B209847BDE81040034B4FF0DB
:1004800040510720184700BFDD084000210640000A
:1004900010B5054B07209847BDE81040034B4FF0BF
:1004A00040510720184700BF0706400021064000C2
:1004B00010B5054B07209847BDE81040034B4FF09F
:1004C00060510720184700BFED054000210640009D
:1004D000AC2310B50360D1E90032B3FBF2F31B0982
:1004E0005C1E4FF6FE7294420AD803628B6843602A
:1004F00040F20223C0F8203150230360002010BDD9
:100500000120FCE74023036070471023036070471D
:1005100043699B0746BFC1610020012070474369C2
:10052000DB0743BF83690B70002001207047B1F1E6
:10053000C05F426426D007D8B1F1006F12D0B1F18C
:10054000805F1CD061B97047B1F1005F23D007D341
:10055000B1F1405F05D021F08051B1F1205F00D0B2
:1005600042607047016F036F0B4023EA0203036789
:10057000416F436F0B4023EA02034367F0E7036FC9
:100580001343F4E7016F036F0B4023EA0203036791
:10059000436F1343F1E7036F1343F8E7D307416455
:1005A0004CBF4166016612F00A0F14BF016241623E
:1005B000930704D5C0F880104161016070471307AC
:1005C00048BFC0F88410F7E710B5029C41643CB105
:1005D00041663BB101653AB101630161016010BD43
:1005E0000166F6E74165F6E74163F6E7430903F57F
:1005F000001303F207735B0200F01F00012202FAEE
:1006000000F018637047430903F5001303F2077302
:100610005B0200F01F00012202FA00F058637047ED
:1006200073B5044640090D4600F5001001F0F04195
:1006300000F20770B1F1005F4FEA40201ED00CD8E5
:10064000B1F1805F1AD0B1F1C05F17D0B1F1006F86
:1006500014D00026304602B070BD05F0E043B3F17F
:10066000405F19D0B1F1205FF3D104F01F040126DF
:10067000134B2A4606FA04F19847EBE704F01F02F1
:10068000012404FA02F20F4B984715EA040612BF40
:10069000426602662646DDE705F06052012602F159
:1006A000484105EA06034A4204F01F0400934A4108
:1006B000C5F3800306FA04F1034CA047CAE700BF64
:1006C0009D0540002F054000C905400010B52C4A8B
:1006D0002C4B116B01F0030101292AD002390129A9
:1006E0001DD8116ACC0148D427491960116A01F05C
:1006F000700110293ED020293FD0106B196800F0FE
:10070000030002280BBF946AD46A906AD06AC4F3CB
:100710000A4404FB0111C0B2B1FBF0F107E01B4930
:10072000496A08064CBF4FF400414FF4FA41196082
:100730000DE0116AC90101D51549F8E712491960A0
:10074000116A01F07001102912D02029F4D0106B29
:10075000196800F0700070281BBF126BC2F3021200
:10076000032221FA02F208BFB1FBF2F21A6010BDB7
:100770000849DCE707491960BFE70549FBE700BF07
:1007800000040E400000002000093D0000140E404F
:10079000001BB70000127A000E4B98420E4B03D894
:1007A0004FF080621A6070470C4A904201D20C4AA6
:1007B000F8E70C4A904201D20B4AF3E70B4A904209
:1007C00001D80B4AEEE70B4A90428CBF0A4A4FF021
:1007D0000422E7E7FF2C3101000A0E40005A6202B2
:1007E000000100040087930300020004FFB3C40467
:1007F00000030004FFE0F505000500040E4B1A6B32
:1008000022F003021A6340F60102996E09070BD524
:100810001A6B22F070021043186340F60102996EC1
:10082000090705D500207047013AEED10120704735
:10083000013AF4D1FAE700BF00040E400F4B1A6BE7
:1008400022F0030242F001021A6340F60102996E9F
:1008500009070BD51A6B22F070021043186340F69B
:100860000102996E090705D500207047013AEED1C3
:1008700001207047013AF4D1FAE700BF00040E40AE
:100880000F4A30B1136A0F4919400F4B0B431362E3
:100890007047106A0B0220F45C119BB221F0030137
:1008A0000B4343F45C1343F001031362936EDB07C5
:1008B000FCD5136A43F09B7343F48033E7E700BF32
:1008C00000040E40FCFFC8FE02003701024B986E88
:1008D00000F48030704700BF00040E40222818D872
:1008E0001F280D4A4FF0010308D8916903FA00F060
:1008F00030EA010300D0106100207047D2F80811DF
:10090000203803FA00F030EA0103F5D0C2F8000104
:10091000F2E70120704700BF00040E40034B18B1FE
:10092000034AC3F8E4207047024AFAE700040E4085
:1009300001434D5000434D5070B50D4E0D4D761B8B
:10094000B61006D0002455F8043B01349847A6425F
:10095000F9D1094E094D761B00F062F9B61006D0A8
:10096000002455F8043B01349847A642F9D170BDE4
:100970002C0C40002C0C4000300C40002C0C400093
:10098000844641EA000313F003036DD1403A41D39A
:1009900051F8043B40F8043B51F8043B40F8043B59
:1009A00051F8043B40F8043B51F8043B40F8043B49
:1009B00051F8043B40F8043B51F8043B40F8043B39
:1009C00051F8043B40F8043B51F8043B40F8043B29
:1009D00051F8043B40F8043B51F8043B40F8043B19
:1009E00051F8043B40F8043B51F8043B40F8043B09
:1009F00051F8043B40F8043B51F8043B40F8043BF9
:100A000051F8043B40F8043B51F8043B40F8043BE8
:100A1000403ABDD2303211D351F8043B40F8043B88
:100A200051F8043B40F8043B51F8043B40F8043BC8
:100A300051F8043B40F8043B103AEDD20C3205D398
:100A400051F8043B40F8043B043AF9D2043208D090
:100A5000D2071CBF11F8013B00F8013B01D30B8802
:100A600003806046704700BF082A13D38B078DD0E0
:100A700010F003038AD0C3F10403D21ADB071CBFB2
:100A800011F8013B00F8013B80D331F8023B20F81C
:100A9000023B7BE7043AD9D3013A11F8013B00F855
:100AA000013BF9D20B7803704B7843708B788370DD
:100AB00060467047830730B548D0541E002A3FD0A7
:100AC000CAB2034601E0013C3AD303F8012B9D076B
:100AD000F9D1032C2DD9CDB245EA05250F2C45EAD5
:100AE000054536D9A4F1100222F00F0C03F1200EB7
:100AF000E6444FEA121C03F1100242E9045542E9B0
:100B0000025510327245F8D10CF1010214F00C0FAD
:100B100003EB021204F00F0C13D0ACF1040323F02A
:100B200003030433134442F8045B9342FBD10CF0FB
:100B300003042CB1CAB21C4403F8012B9C42FBD124
:100B400030BD64461346002CF4D1F9E70346144641
:100B5000BFE71A46A446E0E72A2A2A2A2A536166F2
:100B6000652D6F2D6D617469632033303030204204
:100B70006F6F74696E672E2E2E0A0044656372795A
:100B80007074696E672064617461626173652E2E92
:100B90005B444F4E455D0A000A0A005741524E49D8
:100BA0004E473A20554E415554484F52495A4544B4
:100BB000204143434553532057494C4C2042452044
:100BC00050554E49534845440A00506C6561736561
:100BD00020656E7465722070617373776F72642024
:100BE000746F20636F6E74696E75653A20005041B2
:100BF0005353574F5244204641494C0A00416363C6
:100C0000657373206772616E7465642C2057656C20
:100C1000636F6D65210A0068307078330000000052
:100C2000F8B500BFF8BC08BC9E46704735014000CF
:100C3000F8B500BFF8BC08BC9E4670470D014000E7
:040C400000093D006A
:04000005004002A114
:00000001FF
