:020000040040BA
:10000000981000209D034000990340009903400090
:10001000990340009903400099034000000000004C
:1000200000000000000000000000000099034000F4
:10003000990340000000000099034000990340002C
:100040009903400099034000990340009903400040
:10005000990340009903400099034000000000000C
:1000600099034000990340000000000099034000FC
:1000700099034000000000009903400099034000EC
:1000800000000000000000009903400099034000B8
:1000900099034000990340009903400099034000F0
:1000A0009903400099034000000000000000000098
:1000B00000000000990340009903400099034000AC
:1000C0009903400099034000990340000348044B02
:1000D000834202D0034B03B118477047181B4000FE
:1000E000181B400000000000054806490B1AD90FF4
:1000F00001EBA301491002D0034B03B1184770472D
:10010000181B4000181B40000000000010B5064CF2
:10011000237843B9FFF7DAFF044B13B10448AFF378
:1001200000800123237010BD680000200000000043
:10013000181B400008B5044B1BB104490448AFF339
:100140000080BDE80840CFE7000000006C00002000
:10015000181B400038B5044D04462078A84714F811
:10016000013F002BF9D138BD2D0540002DE9F041AC
:10017000DFF8308004460E460025B5420DDA6719D7
:10018000C047C0B260550028FAD00A2803D1002326
:100190003B70BDE8F0810135EFE73444002304F8FB
:1001A000013CF6E7490540002DE9F043DFF83880CF
:1001B000DFF8389085B007460E460025B54205DBCE
:1001C0000A4B0A20984705B0BDE8F08357F8252070
:1001D000074B4146684698476C4614F8010B08B92E
:1001E0000135EBE7C847F8E7881A40002D054000C5
:1001F0005D1040002DE9F74F0025DFF89090DFF803
:100200009080244F2E462C46C847142300BF013B44
:10021000FCD184EA060B4FF0140A00BFBAF1010AC0
:10022000FBD1C04704F130038DF800305E238DF818
:10023000013006F130038DF802303D238DF8033094
:100240000BF1300B0A23684601358DF804B08DF8A8
:100250000530B847B5F57A7F02D103B0BDE8F08F1D
:1002600015F0030309D0012B09D0022B09D0032B71
:100270000AD1012423461E46C6E75446FAE75446EF
:10028000F9E753460124F6E73346F4E7AD054000AD
:100290008D0540005501400010B50023934200DB5E
:1002A00010BDC45C303C41F823400133F6E7000048
:1002B000B0B500AFADF5806D04460D4668464FF40D
:1002C0008061084B98470848084B98472A462146C2
:1002D0006846074B9847074B294620469847BD4636
:1002E000B0BD00BF6D014000B71A4000550140008D
:1002F00099024000A90140002DE9F84F1A4B1B4F0D
:1003000098471B4B98471B4B98474FF000082020FD
:10031000B84720220021184BDFF860A0DFF860907A
:10032000054698471748184B9847184B0821284608
:1003300098474020B8470024064600F1040B4BF8CC
:10034000348055F82400D0470021C84746F83400CF
:100350000134082CF3D130460D4B214698470D4B04
:1003600028469847D3E700BF31044000990C40006D
:10037000C90440006D054000ED0D4000A90B400090
:10038000410A40008C1A400055014000B102400073
:10039000F5014000A90C4000FEE7000019491A4889
:1003A000814210B520D9194BDA1C121A22F003022F
:1003B000C41EA34238BF0022154B984700BF154BFF
:1003C0001548DA1C121AC11E22F00302994288BF96
:1003D0000022124B00219847114B124A9A60124B8F
:1003E0009847124B9847FEE7E8D2084B0A1F181AA5
:1003F0001044C1F10401C842E0D050F8042943F888
:10040000042DF8E7181B40000000002068000020C1
:10041000B90C40009400002068000020ED0D400061
:1004200000ED00E000004000510C4000F9024000E7
:10043000184B4FF4004270B500205A65164D174C0A
:10044000174EA8470120A8470520A847154B0020B4
:1004500098471548A047154B00209847144B3E215C
:1004600001209847B0470028FCD0124B0020984745
:10047000114B98471148A047114A136823F0806335
:1004800013600B20A847BDE870400E4B4FF0605141
:100490000F20184700140E40D9094000950840006D
:1004A000C9094000190A4000000E2707F90840005A
:1004B0007D09400039094000C907400010757000EF
:1004C000000A0E401D0740001FB5104B104C4FF4A2
:1004D0006132CDE901324FF40063039308200D4BE4
:1004E000984701A90C4B2046984720460B4B98474C
:1004F0000B4B204698470B4C0B490920A0474FF067
:1005000000610A20A04704B010BD00BF90AD71008B
:1005100000060E40D9094000CD0540000706400006
:10052000010640001D0740000100000870B5044EA0
:10053000044D044621463046A8470028FAD170BD34
:1005400000060E400D06400037B5064D064C0DF175
:1005500007012846A0470028F9D19DF8070003B0FD
:1005600030BD00BF00060E401B06400010B5054B15
:100570000B209847BDE81040034B4FF04051072037
:10058000184700BFD90940001D07400010B5054BB2
:1005900007209847BDE81040034B4FF0405107201B
:1005A000184700BF030740001D07400010B5054B6A
:1005B00007209847BDE81040034B4FF060510720DB
:1005C000184700BFE90640001D074000AC2310B5E6
:1005D0000360D1E90032B3FBF2F31B095C1E4FF656
:1005E000FE7294420AD803628B68436040F2022391
:1005F000C0F8203150230360002010BD0120FCE72B
:1006000040230360704710230360704743699B07D2
:1006100046BFC1610020012070474369DB0743BF2B
:1006200083690B70002001207047B1F1C05F426404
:1006300026D007D8B1F1006F12D0B1F1805F1CD085
:1006400061B97047B1F1005F23D007D3B1F1405FCA
:1006500005D021F08051B1F1205F00D04260704799
:10066000016F036F0B4023EA02030367416F436F7F
:100670000B4023EA02034367F0E7036F1343F4E7F9
:10068000016F036F0B4023EA02030367436F1343B9
:10069000F1E7036F1343F8E7D30741644CBF4166AA
:1006A000016612F00A0F14BF01624162930704D57C
:1006B000C0F88010416101607047130748BFC0F85F
:1006C0008410F7E710B5029C41643CB141663BB130
:1006D00001653AB101630161016010BD0166F6E791
:1006E0004165F6E74163F6E7430903F5001303F2BA
:1006F00007735B0200F01F00012202FA00F018638A
:100700007047430903F5001303F207735B0200F01F
:100710001F00012202FA00F05863704773B50446C7
:1007200040090D4600F5001001F0F04100F207709D
:10073000B1F1005F4FEA40201ED00CD8B1F1805FCC
:100740001AD0B1F1C05F17D0B1F1006F14D00026FC
:10075000304602B070BD05F0E043B3F1405F19D000
:10076000B1F1205FF3D104F01F040126134B2A4698
:1007700006FA04F19847EBE704F01F02012404FA9B
:1007800002F20F4B984715EA040612BF4266026652
:100790002646DDE705F06052012602F1484105EAF0
:1007A00006034A4204F01F0400934A41C5F3800344
:1007B00006FA04F1034CA047CAE700BF99064000BF
:1007C0002B064000C506400010B52C4A2C4B116B7F
:1007D00001F0030101292AD0023901291DD8116A2B
:1007E000CC0148D427491960116A01F07001102921
:1007F0003ED020293FD0106B196800F0030002287A
:100800000BBF946AD46A906AD06AC4F30A4404FBAA
:100810000111C0B2B1FBF0F107E01B49496A0806BB
:100820004CBF4FF400414FF4FA4119600DE0116ADA
:10083000C90101D51549F8E712491960116A01F09B
:100840007001102912D02029F4D0106B196800F023
:10085000700070281BBF126BC2F30212032221FA30
:1008600002F208BFB1FBF2F21A6010BD0849DCE7E2
:1008700007491960BFE70549FBE700BF00040E40C8
:100880000000002000093D0000140E40001BB700CE
:1008900000127A000E4B98420E4B03D84FF0806244
:1008A0001A6070470C4A904201D20C4AF8E70C4A91
:1008B000904201D20B4AF3E70B4A904201D80B4A0F
:1008C000EEE70B4A90428CBF0A4A4FF00422E7E75A
:1008D000FF2C3101000A0E40005A620200010004A0
:1008E0000087930300020004FFB3C4040003000464
:1008F000FFE0F505000500040E4B1A6B22F0030221
:100900001A6340F60102996E09070BD51A6B22F0A3
:1009100070021043186340F60102996E090705D56D
:1009200000207047013AEED101207047013AF4D11E
:10093000FAE700BF00040E400F4B1A6B22F00302CF
:1009400042F001021A6340F60102996E09070BD5C5
:100950001A6B22F070021043186340F60102996E80
:10096000090705D500207047013AEED101207047F4
:10097000013AF4D1FAE700BF00040E400F4A30B14B
:10098000136A0F4919400F4B0B4313627047106AEB
:100990000B0220F45C119BB221F003010B4343F4E2
:1009A0005C1343F001031362936EDB07FCD5136AFB
:1009B00043F09B7343F48033E7E700BF00040E402D
:1009C000FCFFC8FE02003701024B986E00F4803035
:1009D000704700BF00040E40222818D81F280D4A77
:1009E0004FF0010308D8916903FA00F030EA0103DF
:1009F00000D0106100207047D2F80811203803FAA7
:100A000000F030EA0103F5D0C2F80001F2E701205E
:100A1000704700BF00040E40034B18B1034AC3F8EF
:100A2000E4207047024AFAE700040E4001434D50AB
:100A300000434D5080F0004002E000BF81F00041D3
:100A400042001FBF5FEA410392EA030F7FEA226C74
:100A50007FEA236C6AD04FEA1262D2EB1363C1BF04
:100A6000D218414048404140B8BF5B42192B88BF73
:100A7000704710F0004F40F4000020F07F4018BF96
:100A8000404211F0004F41F4000121F07F4118BFB6
:100A9000494292EA030F3FD0A2F1010241FA03FC5E
:100AA00010EB0C00C3F1200301FA03F100F0004346
:100AB00002D5494260EB4000B0F5000F13D3B0F10E
:100AC000807F06D340084FEA310102F10102FE2A7D
:100AD00051D2B1F1004F40EBC25008BF20F00100ED
:100AE00040EA03007047490040EB0000013A28BF8C
:100AF000B0F5000FEDD2B0FA80FCACF1080CB2EB0F
:100B00000C0200FA0CF0AABF00EBC250524218438C
:100B1000BCBFD0401843704792F0000F81F4000131
:100B200006BF80F400000132013BB5E74FEA410304
:100B30007FEA226C18BF7FEA236C21D092EA030F70
:100B400004D092F0000F08BF0846704790EA010FEA
:100B50001CBF0020704712F07F4F04D1400028BF17
:100B600040F00040704712F100723CBF00F50000F9
:100B7000704700F0004343F0FE4040F4000070472F
:100B80007FEA226216BF08467FEA236301464202DB
:100B900006BF5FEA412390EA010F40F480007047EE
:100BA0004FF0000304E000BF10F0004348BF404294
:100BB0005FEA000C08BF704743F0964301464FF0D0
:100BC00000001CE050EA010208BF70474FF000032C
:100BD0000AE000BF50EA010208BF704711F000436D
:100BE00002D5404261EB41015FEA010C02BF84463D
:100BF0000146002043F0B64308BFA3F18053A3F59C
:100C00000003BCFA8CF2083AA3EBC25310DB01FAE2
:100C100002FC634400FA02FCC2F12002BCF1004F66
:100C200020FA02F243EB020008BF20F001007047F7
:100C300002F1200201FA02FCC2F1200250EA4C004B
:100C400021FA02F243EB020008BF20EADC70704791
:100C500070B50D4E0D4D761BB61006D0002455F81C
:100C6000043B01349847A642F9D1094E094D761B41
:100C700000F042FFB61006D0002455F8043B0134C2
:100C80009847A642F9D170BD041B4000041B4000E8
:100C9000081B4000041B4000024B0146186800F08E
:100CA00055B900BF04000020024B0146186800F04F
:100CB000EFB800BF04000020844641EA000313F0AF
:100CC00003036DD1403A41D351F8043B40F8043B53
:100CD00051F8043B40F8043B51F8043B40F8043B16
:100CE00051F8043B40F8043B51F8043B40F8043B06
:100CF00051F8043B40F8043B51F8043B40F8043BF6
:100D000051F8043B40F8043B51F8043B40F8043BE5
:100D100051F8043B40F8043B51F8043B40F8043BD5
:100D200051F8043B40F8043B51F8043B40F8043BC5
:100D300051F8043B40F8043B51F8043B40F8043BB5
:100D400051F8043B40F8043B403ABDD2303211D355
:100D500051F8043B40F8043B51F8043B40F8043B95
:100D600051F8043B40F8043B51F8043B40F8043B85
:100D7000103AEDD20C3205D351F8043B40F8043B55
:100D8000043AF9D2043208D0D2071CBF11F8013B53
:100D900000F8013B01D30B8803806046704700BF19
:100DA000082A13D38B078DD010F003038AD0C3F128
:100DB0000403D21ADB071CBF11F8013B00F8013B0A
:100DC00080D331F8023B20F8023B7BE7043AD9D3C9
:100DD000013A11F8013B00F8013BF9D20B7803709E
:100DE0004B7843708B78837060467047830730B5CB
:100DF00048D0541E002A3FD0CAB2034601E0013C4D
:100E00003AD303F8012B9D07F9D1032C2DD9CDB28C
:100E100045EA05250F2C45EA054536D9A4F110020F
:100E200022F00F0C03F1200EE6444FEA121C03F1EE
:100E3000100242E9045542E9025510327245F8D1D8
:100E40000CF1010214F00C0F03EB021204F00F0C72
:100E500013D0ACF1040323F003030433134442F82A
:100E6000045B9342FBD10CF003042CB1CAB21C44C6
:100E700003F8012B9C42FBD130BD64461346002C85
:100E8000F4D1F9E703461446BFE71A46A446E0E763
:100E9000002951D038B551F8043C0C1F002BB8BFC5
:100EA000E418054600F0FAF8274A13682BB1A3426C
:100EB0000CD92168601883422CD0636028461460E6
:100EC000BDE8384000F0ECB8A3420FD81A465B6882
:100ED000002BF9D111685018844217D02DD36360CC
:100EE00054602846BDE8384000F0DAB81168501860
:100EF000A04215D021D8216860188342EFD118682C
:100F00005B680144C4E900135460EAE723681944AC
:100F10001160E6E718685B680144C4E90013CDE797
:100F200020680144501883421160DAD1D3E90003EC
:100F30000144C2E90013D4E770470C232B60284614
:100F4000BDE8384000F0ACB884000020F8B5CD1CF6
:100F500025F0030508350C2D38BF0C25002D06465D
:100F600023DBA94221D8254F00F098F83A6822B334
:100F7000144603E063682246FBB11C4623685B1BF2
:100F8000F8D40B2B15D8636894420CBF3B605360B8
:100F9000304600F085F804F10B00231D20F0070017
:100FA000C21A01D01B1AA350F8BD0C2333600020D5
:100FB000F8BD23601C442560EAE77968C9B1294679
:100FC000304600F01DF8431C0CD0C41C24F0030470
:100FD000A04205D0211A304600F012F8013001D0AD
:100FE0002560D5E70C233046336000F059F8002027
:100FF000F8BD304600F004F87860E0E78400002097
:1010000038B5074D0022044608462A6000F02EFD40
:10101000431C00D038BD2B68002BFBD0236038BDAB
:101020008C0000200CB410B59CB01EAB6FF00044D7
:10103000CDE906140291084953F8042B059102A941
:101040000193049400F00CF9029B00221A701CB06A
:10105000BDE8104002B070470802FFFF0EB410B5A3
:101060009DB06FF000411FABCDE906010491094925
:1010700053F8042B0290084C0868019302A90594C8
:1010800000F0EEF8029B00221A701DB0BDE810407F
:1010900003B07047040000200802FFFF704700BF44
:1010A000704700BF2DE9F0478F689F420C461D46F0
:1010B000164638D88246888910F4906F0ED1086899
:1010C0003D462A46314600F023FCA2682368D21B25
:1010D0002B44A26023600020BDE8F0874B690969BA
:1010E00003EB4308236808EBD878A3EB01096B1CDA
:1010F0004FEA68084B444345424684BF98464246FF
:10110000430513D511465046FFF720FF074608B3A5
:1011100021694A46FFF7D0FDA38923F4906343F089
:101120008003A38107E008681F46CAE7504600F025
:101130006BFC074650B107EB0900A8EB09032761D8
:10114000C4F81480A36020602F46BAE72169504696
:10115000FFF79EFE0C23CAF80030A38943F040033A
:101160004FF0FF30A381B7E72DE9F04F936883B0CC
:101170009146002B6DD017688D6880460C46086834
:10118000083743E0A38913F4906F2ED0D4E90415F7
:10119000A0EB010A05EB450505EBD5750AEB06004A
:1011A0006D100130A8422A4684BF05462A465B05D9
:1011B00036D511464046FFF7C9FE00283AD05246C0
:1011C00021690190FFF778FDA289019B22F49062CA
:1011D00042F08002A281A5EB0A0203EB0A006561DE
:1011E000A260236120603546B2465946524600F05F
:1011F0008FFBD9F80830A16820684D1B50449E1B16
:10120000A5602060C9F808601EB3083757E902B628
:10121000002EFAD0B542AA46B4D93546B246E4E724
:10122000404600F0F1FB03460028D4D12169404636
:10123000FFF72EFE0C23C8F80030A389002243F0EC
:1012400040034FF0FF30A381C9E9012203B0BDE89C
:10125000F08F0020C9F8040003B0BDE8F08F00BF94
:101260002DE9F04F1C468B891D069DB088468146AE
:10127000924603D50B69002B00F0EF800023099301
:1012800020238DF8293030238DF82A309AF8003049
:101290007B4D03940126002B72D0544603E014F8D2
:1012A000013F002B76D0252BF9D1B4EB0A0B74D17A
:1012B0002278002A64D000234FF0FF32CDE90523C5
:1012C000049307938DF853301A93013404E0049A81
:1012D00006FA03F313430493A246052214F8011BF4
:1012E000284600F0C5FA431B0028F0D1049BD8061D
:1012F00044BF20228DF8532019079AF8001044BFEC
:101300002B228DF853202A2954D1039A11680432D4
:10131000002903927CDB07919AF801100AF1010A77
:101320002E2959D0574C0322204600F0A1FA40B193
:10133000049B001B402404FA00F0034304930AF1C9
:10134000010A1AF8011B50488DF82810062200F0F7
:101350008FFA002862D04D4B002B52D003AA009286
:101360004B4B424604A94846AFF3008007467A1C1F
:1013700006D0099B3B4409939AF80030002B8CD18E
:10138000B8F80C305B0654BF09984FF0FF301DB021
:10139000BDE8F08FB4EB0A0BF2D05B4652464146F3
:1013A0004846FFF77FFE0130EAD0099B22785B4474
:1013B00009937EE7A1F13002092AB1D8079B1AF8F8
:1013C000011F03EB830302EB4303A1F13002092A5F
:1013D000F5D92E290793A5D19AF801102A2927D1EA
:1013E000039B9AF802101A6805920433002A0AF146
:1013F00002000393B8BF4FF0FF338246B8BF059396
:1014000090E7039B073323F0070308330393B0E708
:10141000494243F00203079104937DE703AA009237
:101420001B4B424604A9484600F0CAF807469EE70F
:10143000A1F130020023092A05930AF1010A3FF6BF
:1014400071AF1AF8011F03EB830302EB4303A1F111
:101450003002092AF5D9059364E74021FFF776FDAC
:10146000C8F80000C8F8100018B14023C8F81430BC
:1014700004E70C23C9F800304FF0FF3087E700BFC6
:10148000BC1A4000C41A4000C81A40000000000006
:10149000A51040002DE9F04791461E460A698B6869
:1014A000DDF820809A42B8BF1A46C9F8002091F8AA
:1014B00043300C46054613B10132C9F800202268BA
:1014C00091065DD5D9F800300233C9F800302268A2
:1014D00012F0060F11461ED1E168CB1A002BD8BFBF
:1014E000114618DD04F1190A002706E0D9F800308A
:1014F000E268A2EB030CBC450CDD012352463146E9
:101500002846C047013007F10107EFD14FF0FF3007
:10151000BDE8F087216894F84330003B18BF0123F1
:101520008A060AD5E1185A1C302081F8430022446B
:1015300094F8451082F84310023304F14302314617
:101540002846C0470130E1D0236803F00603042B8E
:101550001DD0A3682269934225DD00279B1A1F44F2
:1015600004F11A09002401E0BC421CDA01234A46B6
:1015700031462846C047013004F10104F4D1C5E7E3
:1015800012F0060F12D0003B18BF0123D5E7D9F89F
:101590000030E1682269C91AA368934221EAE17721
:1015A000DCDC0029DCDC0020BDE8F087E168D9F84C
:1015B0000030CB1A002BD8BF114693DCABE700BF3D
:1015C0002DE9F043174685B00A7E0C9D0C46064671
:1015D000984601F1430C002A33D0A2F15803D9B246
:1015E000202967D8202B65D8DFE813F0DE006400DF
:1015F00064006400640064006400640064006400CB
:101600006400A3006E0064006400640064006E0067
:10161000640064006400640021007F00C000640076
:101620006400AE0064007F0064006400E50023688D
:101630001A0640F104812B686269191D29601B6834
:101640001A600023E1462361CDF800803B4603AADF
:1016500021463046FFF71EFF013020D023694A465D
:1016600039463046C047013019D02368E0680399F5
:101670009B0719D5431A002B16DD04F11909002523
:1016800004E0E0680399431AAB420DDD01234A46AA
:1016900039463046C047013005F10105F1D14FF020
:1016A000FF3005B0BDE8F0838842B8BF084605B0FA
:1016B000BDE8F083012384F84220236104F142094C
:1016C000002384F84330BFE72368190602D45A0682
:1016D00000F1C18029680A68043129601146002A96
:1016E0006BDBDFF884E10A2510E02368180640F17F
:1016F0009C802B68191D29601968DFF86CE16F2A3E
:101700000CBF08250A25002384F843306268A260D4
:10171000002A7FDB236823F00403236000295BD1C8
:10172000002A79D1E146082D65D0ACEB090323618D
:101730008AE72B680122196804332B6004F14209FF
:1017400084F842102261BBE72B686268191D29608A
:10175000D3F800900021484600F08AF8002800F0F5
:101760008180A0EB090060602061A9E7236843F055
:10177000200323607822DFF8F4E084F845202A680B
:10178000111D2960190643D45D0641D51188D8077B
:1017900044BF43F020032360002944D1236823F091
:1017A000200323601025AEE7582384F84530DFF886
:1017B000B8E02368E3E72368DCE76268A2602D20D5
:1017C000002AC1F1000184F8430002DB23F0040386
:1017D0002360DFF894E00A25E146B1FBF5F305FB51
:1017E00013100A46AA421EF8001009F8011D1946F6
:1017F000F3D2082D99D12368D90796D56268236959
:101800009A4292DC302309F8013C09F1FF398CE758
:101810001168BCE70029DFD19EF8003084F842301F
:1018200004F142097FE710256DE713F0400F2B68A4
:1018300003F1040129600CBF196819885DE713F0F2
:10184000400F2B68626903F1040129601B6814BF13
:101850001A801A60F5E62A68B2F9001004322A608C
:101860000A463CE760687FE7D01A4000E41A40006F
:1018700001F0FF01102A2BDB10F0070F08D010F841
:10188000013B013A8B422DD010F0070F42B3F6D145
:10189000F0B441EA012141EA014122F007047FF05E
:1018A00000070023F0E80256083C85EA010586EAB5
:1018B000010685FA47F5A3FA87F586FA47F6A5FAF1
:1018C00087F68EB9EED1F0BC01F0FF0102F00702FD
:1018D00032B110F8013B013A83EA010313B1F8D1A8
:1018E0000020704701387047002D06BF3546033889
:1018F000073815F0010F07D1013015F4807F02BFC2
:10190000013015F4C03F0130F0BC0138704700BF12
:1019100088420DD98B1883420AD900EB020CBAB168
:10192000624613F801CD02F801CD9942F9D1704712
:101930000F2A0ED8034602F1FF3C4AB10CF1010C0C
:10194000013B8C4411F8012B03F8012F6145F9D1BB
:10195000704740EA01039B0750D1A2F1100370B514
:1019600001F1200C23F00F0501F1100E00F110041D
:10197000AC441B095EF8105C44F8105C5EF80C5C2B
:1019800044F80C5C5EF8085C44F8085C5EF8045CA3
:1019900044F8045C0EF1100EE64504F11004E9D1A0
:1019A000013312F00C0F01EB031102F00F0400EBF6
:1019B000031327D0043C24F003064FEA940C1E4482
:1019C0001C1F8E465EF8045B44F8045FB442F9D1F4
:1019D0000CF1010402F0030203EB840301EB840128
:1019E00002F1FF3C4AB10CF1010C013B8C4411F8AF
:1019F000012B03F8012F6145F9D170BD02F1FF3CC5
:101A000003469BE72246EBE7F8B51446F9B1CAB1A5
:101A100006460D4600F020F8A04202D32F46384675
:101A2000F8BD21463046FFF791FA07460028F6D068
:101A300022462946FFF740F930462946FFF728FAA3
:101A40003846F8BD2746FFF723FA3846F8BDBDE80B
:101A5000F8401146FFF77ABA51F8040C0028A0F1BB
:101A60000400BCBF0B58C018704700BF044A0549AA
:101A70001368002B08BF0B461844106018467047C7
:101A80009000002098100020256420000A506C650A
:101A900061736520656E74657220696E707574205F
:101AA0006B657920284D6178203332204865782095
:101AB00042697473293A200A00000000232D302B5C
:101AC00020000000686C4C006566674546470000D2
:101AD0003031323334353637383941424344454664
:101AE0000000000030313233343536373839616226
:101AF0006364656600000000F8B500BFF8BC08BC70
:101B00009E46704735014000F8B500BFF8BC08BCE0
:081B10009E4670470D014000E4
:101B180000093D000800002000000000000000004F
:101B280000000000000000000000000000000000AD
:101B3800000000000000000000000000000000009D
:101B4800000000000000000000000000000000008D
:101B5800000000000000000000000000000000007D
:101B6800000000000000000000000000000000006D
:081B7800000000000000000065
:040000050040039D17
:00000001FF
