:020000040040BA
:1000000098100020F1034000ED034000ED03400094
:10001000ED034000ED034000ED0340000000000050
:10002000000000000000000000000000ED034000A0
:10003000ED03400000000000ED034000ED03400030
:10004000ED034000ED034000ED034000ED034000F0
:10005000ED034000ED034000ED0340000000000010
:10006000ED034000ED03400000000000ED03400000
:10007000ED03400000000000ED034000ED034000F0
:100080000000000000000000ED034000ED03400010
:10009000ED034000ED034000ED034000ED034000A0
:1000A000ED034000ED0340000000000000000000F0
:1000B00000000000ED034000ED034000ED034000B0
:1000C000ED034000ED034000ED0340000348044B06
:1000D000834202D0034B03B118477047C019400058
:1000E000C019400000000000054806490B1AD90F4E
:1000F00001EBA301491002D0034B03B1184770472D
:10010000C0194000C01940000000000010B5064CA6
:10011000237843B9FFF7DAFF044B13B10448AFF378
:1001200000800123237010BD680000200000000043
:10013000C019400008B5044B1BB104490448AFF393
:100140000080BDE80840CFE7000000006C00002000
:10015000C019400038B5044D04462078A84714F86B
:10016000013F002BF9D138BD810540002DE9F04158
:10017000DFF8308004460E460025B5420DDA6719D7
:10018000C047C0B260550028FAD00A2803D1002326
:100190003B70BDE8F0810135EFE73444002304F8FB
:1001A000013CF6E79D05400010B50023934200DBBB
:1001B00010BDC45C303C41F823400133F6E710B574
:1001C0000023934200DB10BD50F823403034CC5460
:1001D0000133F6E74FF47A7300BF00BF00BF00BFE2
:1001E00000BF00BF00BF00BF00BF00BF013BF3D195
:1001F000704700002DE9F84F164C89461946A04774
:10020000834600256FF0030A0A9B9D4220DA09EB22
:1002100085060AFB05B8002011E0854215DCA047E1
:1002200058F8203052F820705F43A0470B68FF1841
:1002300007F0010748BF7F420F600130043E0B9B6F
:100240009842EADB01350431DEE7A0473368E9E78D
:10025000BDE8F88FD50140002DE9F043DFF8388084
:10026000DFF8389085B007460E460025B54205DB1D
:100270000A4B0A20984705B0BDE8F08357F82520BF
:10028000074B4146684698476C4614F8010B08B97D
:100290000135EBE7C847F8E7A418400081054000A6
:1002A000E10C40002DE9F04F3D4B3E4DB3B0984777
:1002B0003D4B98473D4B98474FF03033CDE90633DF
:1002C00020223B4B002116A898474FF00A0B3948D3
:1002D000394CA0470023039340F6FE72039B9342E0
:1002E0005AD9DFF8D8A03648DFF8D890DFF8D880A0
:1002F000364F374EA047D0473648A0470B2108A8B5
:10030000C847C04708A8A0470A221EA908A8B8479E
:100310002846A0470A211EA8B0472846A047D04734
:100320002D48A047092104A8C847C04704A8A047F2
:1003300008220EA904A8B8472846A04708210EA8FD
:10034000B0472846A047D0472448A0470B210BA818
:10035000C847C0470BA8A0470A2228A90BA8B8473E
:100360002846A0470A2128A8B0472846A0470823C6
:10037000009328AA16AB0EA91EA8194FCDF804B0F9
:10038000B84706A9174B082216A898471648A04751
:10039000082116A8B0479AE7039B013303939DE712
:1003A00085044000DB1840001D054000C1054000E9
:1003B000050C4000A818400055014000E105400030
:1003C000DA1840006D01400001064000A90140001C
:1003D00059024000DD184000021940002819400071
:1003E000F5014000BF01400058194000FEE7000041
:1003F00019491A48814210B520D9194BDA1C121A32
:1004000022F00302C41EA34238BF0022154B9847B6
:1004100000BF154B1548DA1C121AC11E22F0030248
:10042000994288BF0022124B00219847114B124A73
:100430009A60124B9847124B9847FEE7E8D2084B58
:100440000A1F181A1044C1F10401C842E0D050F844
:10045000042943F8042DF8E7C019400000000020EB
:1004600068000020D10A40009400002068000020AD
:10047000050C400000ED00E000004000890A40004B
:10048000A5024000184B4FF4004270B500205A6599
:10049000164D174C174EA8470120A8470520A8471E
:1004A000154B002098471548A047154B002098474A
:1004B000144B3E2101209847B0470028FCD0124B36
:1004C00000209847114B98471148A047114A1368DC
:1004D00023F0806313600B20A847BDE870400E4BEB
:1004E0004FF060510F20184700140E402D0A4000B5
:1004F000E90840001D0A40006D0A4000000E270771
:100500004D094000D10940008D0940001D08400000
:1005100010757000000A0E40710740001FB5104BA7
:10052000104C4FF46132CDE901324FF40063039374
:1005300008200D4B984701A90C4B204698472046B0
:100540000B4B98470B4B204698470B4C0B49092007
:10055000A0474FF000610A20A04704B010BD00BFC3
:1005600090AD710000060E402D0A400021064000AB
:100570005B0640005506400071074000010000087E
:1005800070B5044E044D044621463046A847002865
:10059000FAD170BD00060E406106400037B5064D29
:1005A000064C0DF107012846A0470028F9D19DF817
:1005B000070003B030BD00BF00060E406F064000CC
:1005C00010B5054B0B209847BDE81040034B4FF08A
:1005D00040510720184700BF2D0A40007107400016
:1005E00010B5054B07209847BDE81040034B4FF06E
:1005F00040510720184700BF5707400071074000CF
:1006000010B5054B07209847BDE81040034B4FF04D
:1006100060510720184700BF3D07400071074000A8
:10062000AC2310B50360D1E90032B3FBF2F31B0930
:100630005C1E4FF6FE7294420AD803628B684360D8
:1006400040F20223C0F8203150230360002010BD87
:100650000120FCE7402303607047102303607047CC
:1006600043699B0746BFC161002001207047436971
:10067000DB0743BF83690B70002001207047B1F195
:10068000C05F426426D007D8B1F1006F12D0B1F13B
:10069000805F1CD061B97047B1F1005F23D007D3F0
:1006A000B1F1405F05D021F08051B1F1205F00D061
:1006B00042607047016F036F0B4023EA0203036738
:1006C000416F436F0B4023EA02034367F0E7036F78
:1006D0001343F4E7016F036F0B4023EA0203036740
:1006E000436F1343F1E7036F1343F8E7D307416404
:1006F0004CBF4166016612F00A0F14BF01624162ED
:10070000930704D5C0F8801041610160704713075A
:1007100048BFC0F88410F7E710B5029C41643CB1B3
:1007200041663BB101653AB101630161016010BDF1
:100730000166F6E74165F6E74163F6E7430903F52D
:10074000001303F207735B0200F01F00012202FA9C
:1007500000F018637047430903F5001303F20773B1
:100760005B0200F01F00012202FA00F0586370479C
:1007700073B5044640090D4600F5001001F0F04144
:1007800000F20770B1F1005F4FEA40201ED00CD894
:10079000B1F1805F1AD0B1F1C05F17D0B1F1006F35
:1007A00014D00026304602B070BD05F0E043B3F12E
:1007B000405F19D0B1F1205FF3D104F01F0401268E
:1007C000134B2A4606FA04F19847EBE704F01F02A0
:1007D000012404FA02F20F4B984715EA040612BFEF
:1007E000426602662646DDE705F06052012602F108
:1007F000484105EA06034A4204F01F0400934A41B7
:10080000C5F3800306FA04F1034CA047CAE700BF12
:10081000ED0640007F0640001907400010B52C4A45
:100820002C4B116B01F0030101292AD00239012957
:100830001DD8116ACC0148D427491960116A01F00A
:10084000700110293ED020293FD0106B196800F0AC
:10085000030002280BBF946AD46A906AD06AC4F37A
:100860000A4404FB0111C0B2B1FBF0F107E01B49DF
:10087000496A08064CBF4FF400414FF4FA41196031
:100880000DE0116AC90101D51549F8E7124919604F
:10089000116A01F07001102912D02029F4D0106BD8
:1008A000196800F0700070281BBF126BC2F30212AF
:1008B000032221FA02F208BFB1FBF2F21A6010BD66
:1008C0000849DCE707491960BFE70549FBE700BFB6
:1008D00000040E400000002000093D0000140E40FE
:1008E000001BB70000127A000E4B98420E4B03D843
:1008F0004FF080621A6070470C4A904201D20C4A55
:10090000F8E70C4A904201D20B4AF3E70B4A9042B7
:1009100001D80B4AEEE70B4A90428CBF0A4A4FF0CF
:100920000422E7E7FF2C3101000A0E40005A620260
:10093000000100040087930300020004FFB3C40415
:1009400000030004FFE0F505000500040E4B1A6BE0
:1009500022F003021A6340F60102996E09070BD5D3
:100960001A6B22F070021043186340F60102996E70
:10097000090705D500207047013AEED101207047E4
:10098000013AF4D1FAE700BF00040E400F4B1A6B96
:1009900022F0030242F001021A6340F60102996E4E
:1009A00009070BD51A6B22F070021043186340F64A
:1009B0000102996E090705D500207047013AEED172
:1009C00001207047013AF4D1FAE700BF00040E405D
:1009D0000F4A30B1136A0F4919400F4B0B43136292
:1009E0007047106A0B0220F45C119BB221F00301E6
:1009F0000B4343F45C1343F001031362936EDB0774
:100A0000FCD5136A43F09B7343F48033E7E700BFE0
:100A100000040E40FCFFC8FE02003701024B986E36
:100A200000F48030704700BF00040E40222818D820
:100A30001F280D4A4FF0010308D8916903FA00F00E
:100A400030EA010300D0106100207047D2F808118D
:100A5000203803FA00F030EA0103F5D0C2F80001B3
:100A6000F2E70120704700BF00040E40034B18B1AD
:100A7000034AC3F8E4207047024AFAE700040E4034
:100A800001434D5000434D5070B50D4E0D4D761B3A
:100A9000B61006D0002455F8043B01349847A6420E
:100AA000F9D1094E094D761B00F07AFFB61006D039
:100AB000002455F8043B01349847A642F9D170BD93
:100AC000AC194000AC194000B0194000AC1940000E
:100AD000844641EA000313F003036DD1403A41D349
:100AE00051F8043B40F8043B51F8043B40F8043B08
:100AF00051F8043B40F8043B51F8043B40F8043BF8
:100B000051F8043B40F8043B51F8043B40F8043BE7
:100B100051F8043B40F8043B51F8043B40F8043BD7
:100B200051F8043B40F8043B51F8043B40F8043BC7
:100B300051F8043B40F8043B51F8043B40F8043BB7
:100B400051F8043B40F8043B51F8043B40F8043BA7
:100B500051F8043B40F8043B51F8043B40F8043B97
:100B6000403ABDD2303211D351F8043B40F8043B37
:100B700051F8043B40F8043B51F8043B40F8043B77
:100B800051F8043B40F8043B103AEDD20C3205D347
:100B900051F8043B40F8043B043AF9D2043208D03F
:100BA000D2071CBF11F8013B00F8013B01D30B88B1
:100BB00003806046704700BF082A13D38B078DD08F
:100BC00010F003038AD0C3F10403D21ADB071CBF61
:100BD00011F8013B00F8013B80D331F8023B20F8CB
:100BE000023B7BE7043AD9D3013A11F8013B00F804
:100BF000013BF9D20B7803704B7843708B7883708C
:100C000060467047830730B548D0541E002A3FD055
:100C1000CAB2034601E0013C3AD303F8012B9D0719
:100C2000F9D1032C2DD9CDB245EA05250F2C45EA83
:100C3000054536D9A4F1100222F00F0C03F1200E65
:100C4000E6444FEA121C03F1100242E9045542E95E
:100C5000025510327245F8D10CF1010214F00C0F5C
:100C600003EB021204F00F0C13D0ACF1040323F0D9
:100C700003030433134442F8045B9342FBD10CF0AA
:100C800003042CB1CAB21C4403F8012B9C42FBD1D3
:100C900030BD64461346002CF4D1F9E703461446F0
:100CA000BFE71A46A446E0E70CB410B59CB01EABF3
:100CB0006FF00044CDE906140291084953F8042B63
:100CC000059102A90193049400F008F9029B002207
:100CD0001A701CB0BDE8104002B070470802FFFF58
:100CE0000EB410B59DB06FF000411FABCDE9060109
:100CF0000491094953F8042B0290084C08680193A9
:100D000002A9059400F0EAF8029B00221A701DB0B7
:100D1000BDE8104003B07047040000200802FFFF48
:100D20002DE9F0478F689F420C461D46164638D87D
:100D30008246888910F4906F0ED108683D462A4695
:100D4000314600F025FCA2682368D21B2B44A26028
:100D500023600020BDE8F0874B69096903EB430875
:100D6000236808EBD878A3EB01096B1C4FEA6808ED
:100D70004B444345424684BF98464246430513D5FB
:100D80001146504600F0DEFC074608B321694A468A
:100D9000FFF79EFEA38923F4906343F08003A381B1
:100DA00007E008681F46CAE7504600F025FD0746E1
:100DB00050B107EB0900A8EB09032761C4F81480C0
:100DC000A36020602F46BAE72169504600F05CFC22
:100DD0000C23CAF80030A38943F040034FF0FF30E2
:100DE000A381B7E72DE9F04F936883B09146002BBC
:100DF0006DD017688D6880460C460868083743E058
:100E0000A38913F4906F2ED0D4E90415A0EB010A46
:100E100005EB450505EBD5750AEB06006D100130B5
:100E2000A8422A4684BF05462A465B0536D51146A8
:100E3000404600F087FC00283AD0524621690190D4
:100E4000FFF746FEA289019B22F4906242F08002E5
:100E5000A281A5EB0A0203EB0A006561A26023618F
:100E600020603546B2465946524600F091FBD9F80B
:100E70000830A16820684D1B50449E1BA56020606F
:100E8000C9F808601EB3083757E902B6002EFAD039
:100E9000B542AA46B4D93546B246E4E7404600F02A
:100EA000ABFC03460028D4D12169404600F0ECFB9E
:100EB0000C23C8F80030A389002243F040034FF010
:100EC000FF30A381C9E9012203B0BDE8F08F002003
:100ED000C9F8040003B0BDE8F08F00BF2DE9F04F62
:100EE0001C468B891D069DB088468146924603D5D7
:100EF0000B69002B00F0EF800023099320238DF86D
:100F0000293030238DF82A309AF800307B4D039435
:100F10000126002B72D0544603E014F8013F002B49
:100F200076D0252BF9D1B4EB0A0B74D12278002AA4
:100F300064D000234FF0FF32CDE9052304930793DB
:100F40008DF853301A93013404E0049A06FA03F33F
:100F500013430493A246052214F8011B284600F00F
:100F6000C7FA431B0028F0D1049BD80644BF2022B7
:100F70008DF8532019079AF8001044BF2B228DF8E2
:100F800053202A2954D1039A11680432002903926C
:100F90007CDB07919AF801100AF1010A2E2959D039
:100FA000574C0322204600F0A3FA40B1049B001BDB
:100FB000402404FA00F0034304930AF1010A1AF8EA
:100FC000011B50488DF82810062200F091FA0028E5
:100FD00062D04D4B002B52D003AA00924B4B42469D
:100FE00004A94846AFF3008007467A1C06D0099B47
:100FF0003B4409939AF80030002B8CD1B8F80C30A0
:101000005B0654BF09984FF0FF301DB0BDE8F08F6C
:10101000B4EB0A0BF2D05B46524641464846FFF716
:101020007FFE0130EAD0099B22785B4409937EE77A
:10103000A1F13002092AB1D8079B1AF8011F03EB6E
:10104000830302EB4303A1F13002092AF5D92E29CB
:101050000793A5D19AF801102A2927D1039B9AF862
:1010600002101A6805920433002A0AF10200039361
:10107000B8BF4FF0FF338246B8BF059390E7039B9C
:10108000073323F0070308330393B0E7494243F0E3
:101090000203079104937DE703AA00921B4B42468B
:1010A00004A9484600F0CAF807469EE7A1F13002BD
:1010B0000023092A05930AF1010A3FF671AF1AF8D5
:1010C000011F03EB830302EB4303A1F13002092A62
:1010D000F5D9059364E7402100F034FBC8F800001F
:1010E000C8F8100018B14023C8F8143004E70C23E6
:1010F000C9F800304FF0FF3087E700BF64194000A7
:101100006C1940007019400000000000210D4000E3
:101110002DE9F04791461E460A698B68DDF820806C
:101120009A42B8BF1A46C9F8002091F843300C46DD
:10113000054613B10132C9F80020226891065DD539
:10114000D9F800300233C9F80030226812F0060FD7
:1011500011461ED1E168CB1A002BD8BF114618DD0D
:1011600004F1190A002706E0D9F80030E268A2EB82
:10117000030CBC450CDD0123524631462846C047CE
:10118000013007F10107EFD14FF0FF30BDE8F087E4
:10119000216894F84330003B18BF01238A060AD522
:1011A000E1185A1C302081F84300224494F845107D
:1011B00082F84310023304F1430231462846C04707
:1011C0000130E1D0236803F00603042B1DD0A3688F
:1011D0002269934225DD00279B1A1F4404F11A0956
:1011E000002401E0BC421CDA01234A46314628466D
:1011F000C047013004F10104F4D1C5E712F0060F35
:1012000012D0003B18BF0123D5E7D9F80030E168C0
:101210002269C91AA368934221EAE177DCDC00293C
:10122000DCDC0020BDE8F087E168D9F80030CB1A9B
:10123000002BD8BF114693DCABE700BF2DE9F0438C
:10124000174685B00A7E0C9D0C460646984601F16D
:10125000430C002A33D0A2F15803D9B2202967D811
:10126000202B65D8DFE813F0DE0064006400640022
:101270006400640064006400640064006400A3000F
:101280006E0064006400640064006E00640064002A
:101290006400640021007F00C00064006400AE00B0
:1012A00064007F0064006400E50023681A0640F1D2
:1012B00004812B686269191D29601B681A6000236C
:1012C000E1462361CDF800803B4603AA2146304623
:1012D000FFF71EFF013020D023694A4639463046C9
:1012E000C047013019D02368E06803999B0719D5DE
:1012F000431A002B16DD04F11909002504E0E0680B
:101300000399431AAB420DDD01234A463946304664
:10131000C047013005F10105F1D14FF0FF3005B0B4
:10132000BDE8F0838842B8BF084605B0BDE8F08349
:10133000012384F84220236104F14209002384F848
:101340004330BFE72368190602D45A0600F1C18072
:1013500029680A68043129601146002A6BDBDFF82E
:1013600084E10A2510E02368180640F19C802B6870
:10137000191D29601968DFF86CE16F2A0CBF082578
:101380000A25002384F843306268A260002A7FDBCC
:10139000236823F00403236000295BD1002A79D15C
:1013A000E146082D65D0ACEB090323618AE72B6881
:1013B0000122196804332B6004F1420984F84210B9
:1013C0002261BBE72B686268191D2960D3F8009081
:1013D0000021484600F08CF8002800F08180A0EB46
:1013E000090060602061A9E7236843F020032360BF
:1013F0007822DFF8F4E084F845202A68111D29607E
:10140000190643D45D0641D51188D80744BF43F07F
:1014100020032360002944D1236823F020032360A4
:101420001025AEE7582384F84530DFF8B8E023688C
:10143000E3E72368DCE76268A2602D20002AC1F19F
:10144000000184F8430002DB23F004032360DFF88B
:1014500094E00A25E146B1FBF5F305FB13100A46BB
:10146000AA421EF8001009F8011D1946F3D2082DF2
:1014700099D12368D90796D5626823699A4292DC8C
:10148000302309F8013C09F1FF398CE71168BCE70A
:101490000029DFD19EF8003084F8423004F142097F
:1014A0007FE710256DE713F0400F2B6803F104016F
:1014B00029600CBF196819885DE713F0400F2B688D
:1014C000626903F1040129601B6814BF1A801A6065
:1014D000F5E62A68B2F9001004322A600A463CE7B1
:1014E00060687FE7781940008C1940000000000018
:1014F00001F0FF01102A2BDB10F0070F08D010F8C5
:10150000013B013A8B422DD010F0070F42B3F6D1C8
:10151000F0B441EA012141EA014122F007047FF0E1
:1015200000070023F0E80256083C85EA010586EA38
:10153000010685FA47F5A3FA87F586FA47F6A5FA74
:1015400087F68EB9EED1F0BC01F0FF0102F0070280
:1015500032B110F8013B013A83EA010313B1F8D12B
:101560000020704701387047002D06BF354603380C
:10157000073815F0010F07D1013015F4807F02BF45
:10158000013015F4C03F0130F0BC0138704700BF96
:1015900088420DD98B1883420AD900EB020CBAB1EC
:1015A000624613F801CD02F801CD9942F9D1704796
:1015B0000F2A0ED8034602F1FF3C4AB10CF1010C90
:1015C000013B8C4411F8012B03F8012F6145F9D13F
:1015D000704740EA01039B0750D1A2F1100370B598
:1015E00001F1200C23F00F0501F1100E00F11004A1
:1015F000AC441B095EF8105C44F8105C5EF80C5CAF
:1016000044F80C5C5EF8085C44F8085C5EF8045C26
:1016100044F8045C0EF1100EE64504F11004E9D123
:10162000013312F00C0F01EB031102F00F0400EB79
:10163000031327D0043C24F003064FEA940C1E4405
:101640001C1F8E465EF8045B44F8045FB442F9D177
:101650000CF1010402F0030203EB840301EB8401AB
:1016600002F1FF3C4AB10CF1010C013B8C4411F832
:10167000012B03F8012F6145F9D170BD02F1FF3C48
:1016800003469BE72246EBE7002951D038B551F8D5
:10169000043C0C1F002BB8BFE418054600F0E6F828
:1016A000274A13682BB1A3420CD9216860188342E2
:1016B0002CD0636028461460BDE8384000F0D8B8EC
:1016C000A3420FD81A465B68002BF9D11168501855
:1016D000844217D02DD3636054602846BDE838405B
:1016E00000F0C6B811685018A04215D021D8216862
:1016F00060188342EFD118685B680144C4E90013A5
:101700005460EAE7236819441160E6E718685B68EB
:101710000144C4E90013CDE7206801445018834216
:101720001160DAD1D3E900030144C2E90013D4E720
:1017300070470C232B602846BDE8384000F098B86D
:1017400084000020F8B5CD1C25F0030508350C2DCC
:1017500038BF0C25002D064623DBA94221D8254F92
:1017600000F084F83A6822B3144603E06368224626
:10177000FBB11C4623685B1BF8D40B2B15D86368A0
:1017800094420CBF3B605360304600F071F804F1A6
:101790000B00231D20F00700C21A01D01B1AA35012
:1017A000F8BD0C2333600020F8BD23601C44256085
:1017B000EAE77968C9B12946304600F045F8431C8C
:1017C0000CD0C41C24F00304A04205D0211A3046DA
:1017D00000F03AF8013001D02560D5E70C233046FF
:1017E000336000F045F80020F8BD304600F02CF8DA
:1017F0007860E0E784000020F8B51446F9B1CAB17A
:1018000006460D4600F036F8A04202D32F46384671
:10181000F8BD21463046FFF795FF07460028F6D071
:1018200022462946FFF754F930462946FFF72CFF98
:101830003846F8BD2746FFF727FF3846F8BDBDE814
:10184000F8401146FFF77EBF38B5074D0022044629
:1018500008462A6000F018F8431C00D038BD2B68F9
:10186000002BFBD0236038BD8C000020704700BFE8
:10187000704700BF51F8040C0028A0F10400BCBF61
:101880000B58C018704700BF044A05491368002B65
:1018900008BF0B461844106018467047900000209F
:1018A00098100020256420000A0A2A2A2A2A507249
:1018B0006F7669646520546F65706C69747A204D29
:1018C00061747269782053706563696669636174D5
:1018D000696F6E2A2A2A2A2A0A000A0A00506C65B1
:1018E00061736520656E74657220726F7720737006
:1018F0006563202873697A65206C5F6B6579293A86
:101900002000506C6561736520656E74657220639C
:101910006F6C2073706563202873697A652070612D
:101920005F6C656E293A2000506C656173652065B7
:101930006E746572204572726F7220436F727265A9
:1019400063746564204B6579202873697A65206C1F
:101950005F6B6579293A20005041204B45593A2068
:1019600000000000232D302B20000000686C4C008C
:1019700065666745464700003031323334353637C7
:10198000383941424344454600000000303132338B
:1019900034353637383961626364656600000000AB
:1019A000F8B500BFF8BC08BC9E4670473501400042
:1019B000F8B500BFF8BC08BC9E4670470D0140005A
:1019C00000093D00080000200000000000000000A9
:1019D0000000000000000000000000000000000007
:1019E00000000000000000000000000000000000F7
:1019F00000000000000000000000000000000000E7
:101A000000000000000000000000000000000000D6
:101A100000000000000000000000000000000000C6
:081A20000000000000000000BE
:04000005004003F1C3
:00000001FF
